{
  "abi": [
    {
      "type": "constructor",
      "inputs": [],
      "stateMutability": "nonpayable"
    },
    {
      "type": "function",
      "name": "FORMAT_DEFAULT_SCIENTIFIC_MAX",
      "inputs": [],
      "outputs": [
        {
          "name": "",
          "type": "bytes32",
          "internalType": "Float"
        }
      ],
      "stateMutability": "view"
    },
    {
      "type": "function",
      "name": "FORMAT_DEFAULT_SCIENTIFIC_MIN",
      "inputs": [],
      "outputs": [
        {
          "name": "",
          "type": "bytes32",
          "internalType": "Float"
        }
      ],
      "stateMutability": "view"
    },
    {
      "type": "function",
      "name": "abs",
      "inputs": [
        {
          "name": "a",
          "type": "bytes32",
          "internalType": "Float"
        }
      ],
      "outputs": [
        {
          "name": "",
          "type": "bytes32",
          "internalType": "Float"
        }
      ],
      "stateMutability": "pure"
    },
    {
      "type": "function",
      "name": "add",
      "inputs": [
        {
          "name": "a",
          "type": "bytes32",
          "internalType": "Float"
        },
        {
          "name": "b",
          "type": "bytes32",
          "internalType": "Float"
        }
      ],
      "outputs": [
        {
          "name": "",
          "type": "bytes32",
          "internalType": "Float"
        }
      ],
      "stateMutability": "pure"
    },
    {
      "type": "function",
      "name": "ceil",
      "inputs": [
        {
          "name": "a",
          "type": "bytes32",
          "internalType": "Float"
        }
      ],
      "outputs": [
        {
          "name": "",
          "type": "bytes32",
          "internalType": "Float"
        }
      ],
      "stateMutability": "pure"
    },
    {
      "type": "function",
      "name": "div",
      "inputs": [
        {
          "name": "a",
          "type": "bytes32",
          "internalType": "Float"
        },
        {
          "name": "b",
          "type": "bytes32",
          "internalType": "Float"
        }
      ],
      "outputs": [
        {
          "name": "",
          "type": "bytes32",
          "internalType": "Float"
        }
      ],
      "stateMutability": "pure"
    },
    {
      "type": "function",
      "name": "e",
      "inputs": [],
      "outputs": [
        {
          "name": "",
          "type": "bytes32",
          "internalType": "Float"
        }
      ],
      "stateMutability": "pure"
    },
    {
      "type": "function",
      "name": "eq",
      "inputs": [
        {
          "name": "a",
          "type": "bytes32",
          "internalType": "Float"
        },
        {
          "name": "b",
          "type": "bytes32",
          "internalType": "Float"
        }
      ],
      "outputs": [
        {
          "name": "",
          "type": "bool",
          "internalType": "bool"
        }
      ],
      "stateMutability": "pure"
    },
    {
      "type": "function",
      "name": "floor",
      "inputs": [
        {
          "name": "a",
          "type": "bytes32",
          "internalType": "Float"
        }
      ],
      "outputs": [
        {
          "name": "",
          "type": "bytes32",
          "internalType": "Float"
        }
      ],
      "stateMutability": "pure"
    },
    {
      "type": "function",
      "name": "format",
      "inputs": [
        {
          "name": "a",
          "type": "bytes32",
          "internalType": "Float"
        },
        {
          "name": "scientific",
          "type": "bool",
          "internalType": "bool"
        }
      ],
      "outputs": [
        {
          "name": "",
          "type": "string",
          "internalType": "string"
        }
      ],
      "stateMutability": "pure"
    },
    {
      "type": "function",
      "name": "format",
      "inputs": [
        {
          "name": "a",
          "type": "bytes32",
          "internalType": "Float"
        }
      ],
      "outputs": [
        {
          "name": "",
          "type": "string",
          "internalType": "string"
        }
      ],
      "stateMutability": "pure"
    },
    {
      "type": "function",
      "name": "format",
      "inputs": [
        {
          "name": "a",
          "type": "bytes32",
          "internalType": "Float"
        },
        {
          "name": "scientificMin",
          "type": "bytes32",
          "internalType": "Float"
        },
        {
          "name": "scientificMax",
          "type": "bytes32",
          "internalType": "Float"
        }
      ],
      "outputs": [
        {
          "name": "",
          "type": "string",
          "internalType": "string"
        }
      ],
      "stateMutability": "pure"
    },
    {
      "type": "function",
      "name": "frac",
      "inputs": [
        {
          "name": "a",
          "type": "bytes32",
          "internalType": "Float"
        }
      ],
      "outputs": [
        {
          "name": "",
          "type": "bytes32",
          "internalType": "Float"
        }
      ],
      "stateMutability": "pure"
    },
    {
      "type": "function",
      "name": "fromFixedDecimalLossless",
      "inputs": [
        {
          "name": "value",
          "type": "uint256",
          "internalType": "uint256"
        },
        {
          "name": "decimals",
          "type": "uint8",
          "internalType": "uint8"
        }
      ],
      "outputs": [
        {
          "name": "",
          "type": "bytes32",
          "internalType": "Float"
        }
      ],
      "stateMutability": "pure"
    },
    {
      "type": "function",
      "name": "fromFixedDecimalLossy",
      "inputs": [
        {
          "name": "value",
          "type": "uint256",
          "internalType": "uint256"
        },
        {
          "name": "decimals",
          "type": "uint8",
          "internalType": "uint8"
        }
      ],
      "outputs": [
        {
          "name": "",
          "type": "bytes32",
          "internalType": "Float"
        },
        {
          "name": "",
          "type": "bool",
          "internalType": "bool"
        }
      ],
      "stateMutability": "pure"
    },
    {
      "type": "function",
      "name": "gt",
      "inputs": [
        {
          "name": "a",
          "type": "bytes32",
          "internalType": "Float"
        },
        {
          "name": "b",
          "type": "bytes32",
          "internalType": "Float"
        }
      ],
      "outputs": [
        {
          "name": "",
          "type": "bool",
          "internalType": "bool"
        }
      ],
      "stateMutability": "pure"
    },
    {
      "type": "function",
      "name": "gte",
      "inputs": [
        {
          "name": "a",
          "type": "bytes32",
          "internalType": "Float"
        },
        {
          "name": "b",
          "type": "bytes32",
          "internalType": "Float"
        }
      ],
      "outputs": [
        {
          "name": "",
          "type": "bool",
          "internalType": "bool"
        }
      ],
      "stateMutability": "pure"
    },
    {
      "type": "function",
      "name": "integer",
      "inputs": [
        {
          "name": "a",
          "type": "bytes32",
          "internalType": "Float"
        }
      ],
      "outputs": [
        {
          "name": "",
          "type": "bytes32",
          "internalType": "Float"
        }
      ],
      "stateMutability": "pure"
    },
    {
      "type": "function",
      "name": "inv",
      "inputs": [
        {
          "name": "a",
          "type": "bytes32",
          "internalType": "Float"
        }
      ],
      "outputs": [
        {
          "name": "",
          "type": "bytes32",
          "internalType": "Float"
        }
      ],
      "stateMutability": "pure"
    },
    {
      "type": "function",
      "name": "isZero",
      "inputs": [
        {
          "name": "a",
          "type": "bytes32",
          "internalType": "Float"
        }
      ],
      "outputs": [
        {
          "name": "",
          "type": "bool",
          "internalType": "bool"
        }
      ],
      "stateMutability": "pure"
    },
    {
      "type": "function",
      "name": "log10",
      "inputs": [
        {
          "name": "a",
          "type": "bytes32",
          "internalType": "Float"
        }
      ],
      "outputs": [
        {
          "name": "",
          "type": "bytes32",
          "internalType": "Float"
        }
      ],
      "stateMutability": "view"
    },
    {
      "type": "function",
      "name": "lt",
      "inputs": [
        {
          "name": "a",
          "type": "bytes32",
          "internalType": "Float"
        },
        {
          "name": "b",
          "type": "bytes32",
          "internalType": "Float"
        }
      ],
      "outputs": [
        {
          "name": "",
          "type": "bool",
          "internalType": "bool"
        }
      ],
      "stateMutability": "pure"
    },
    {
      "type": "function",
      "name": "lte",
      "inputs": [
        {
          "name": "a",
          "type": "bytes32",
          "internalType": "Float"
        },
        {
          "name": "b",
          "type": "bytes32",
          "internalType": "Float"
        }
      ],
      "outputs": [
        {
          "name": "",
          "type": "bool",
          "internalType": "bool"
        }
      ],
      "stateMutability": "pure"
    },
    {
      "type": "function",
      "name": "max",
      "inputs": [
        {
          "name": "a",
          "type": "bytes32",
          "internalType": "Float"
        },
        {
          "name": "b",
          "type": "bytes32",
          "internalType": "Float"
        }
      ],
      "outputs": [
        {
          "name": "",
          "type": "bytes32",
          "internalType": "Float"
        }
      ],
      "stateMutability": "pure"
    },
    {
      "type": "function",
      "name": "maxNegativeValue",
      "inputs": [],
      "outputs": [
        {
          "name": "",
          "type": "bytes32",
          "internalType": "Float"
        }
      ],
      "stateMutability": "pure"
    },
    {
      "type": "function",
      "name": "maxPositiveValue",
      "inputs": [],
      "outputs": [
        {
          "name": "",
          "type": "bytes32",
          "internalType": "Float"
        }
      ],
      "stateMutability": "pure"
    },
    {
      "type": "function",
      "name": "min",
      "inputs": [
        {
          "name": "a",
          "type": "bytes32",
          "internalType": "Float"
        },
        {
          "name": "b",
          "type": "bytes32",
          "internalType": "Float"
        }
      ],
      "outputs": [
        {
          "name": "",
          "type": "bytes32",
          "internalType": "Float"
        }
      ],
      "stateMutability": "pure"
    },
    {
      "type": "function",
      "name": "minNegativeValue",
      "inputs": [],
      "outputs": [
        {
          "name": "",
          "type": "bytes32",
          "internalType": "Float"
        }
      ],
      "stateMutability": "pure"
    },
    {
      "type": "function",
      "name": "minPositiveValue",
      "inputs": [],
      "outputs": [
        {
          "name": "",
          "type": "bytes32",
          "internalType": "Float"
        }
      ],
      "stateMutability": "pure"
    },
    {
      "type": "function",
      "name": "minus",
      "inputs": [
        {
          "name": "a",
          "type": "bytes32",
          "internalType": "Float"
        }
      ],
      "outputs": [
        {
          "name": "",
          "type": "bytes32",
          "internalType": "Float"
        }
      ],
      "stateMutability": "pure"
    },
    {
      "type": "function",
      "name": "mul",
      "inputs": [
        {
          "name": "a",
          "type": "bytes32",
          "internalType": "Float"
        },
        {
          "name": "b",
          "type": "bytes32",
          "internalType": "Float"
        }
      ],
      "outputs": [
        {
          "name": "",
          "type": "bytes32",
          "internalType": "Float"
        }
      ],
      "stateMutability": "pure"
    },
    {
      "type": "function",
      "name": "parse",
      "inputs": [
        {
          "name": "str",
          "type": "string",
          "internalType": "string"
        }
      ],
      "outputs": [
        {
          "name": "",
          "type": "bytes4",
          "internalType": "bytes4"
        },
        {
          "name": "",
          "type": "bytes32",
          "internalType": "Float"
        }
      ],
      "stateMutability": "pure"
    },
    {
      "type": "function",
      "name": "pow",
      "inputs": [
        {
          "name": "a",
          "type": "bytes32",
          "internalType": "Float"
        },
        {
          "name": "b",
          "type": "bytes32",
          "internalType": "Float"
        }
      ],
      "outputs": [
        {
          "name": "",
          "type": "bytes32",
          "internalType": "Float"
        }
      ],
      "stateMutability": "view"
    },
    {
      "type": "function",
      "name": "pow10",
      "inputs": [
        {
          "name": "a",
          "type": "bytes32",
          "internalType": "Float"
        }
      ],
      "outputs": [
        {
          "name": "",
          "type": "bytes32",
          "internalType": "Float"
        }
      ],
      "stateMutability": "view"
    },
    {
      "type": "function",
      "name": "sqrt",
      "inputs": [
        {
          "name": "a",
          "type": "bytes32",
          "internalType": "Float"
        }
      ],
      "outputs": [
        {
          "name": "",
          "type": "bytes32",
          "internalType": "Float"
        }
      ],
      "stateMutability": "view"
    },
    {
      "type": "function",
      "name": "sub",
      "inputs": [
        {
          "name": "a",
          "type": "bytes32",
          "internalType": "Float"
        },
        {
          "name": "b",
          "type": "bytes32",
          "internalType": "Float"
        }
      ],
      "outputs": [
        {
          "name": "",
          "type": "bytes32",
          "internalType": "Float"
        }
      ],
      "stateMutability": "pure"
    },
    {
      "type": "function",
      "name": "toFixedDecimalLossless",
      "inputs": [
        {
          "name": "float",
          "type": "bytes32",
          "internalType": "Float"
        },
        {
          "name": "decimals",
          "type": "uint8",
          "internalType": "uint8"
        }
      ],
      "outputs": [
        {
          "name": "",
          "type": "uint256",
          "internalType": "uint256"
        }
      ],
      "stateMutability": "pure"
    },
    {
      "type": "function",
      "name": "toFixedDecimalLossy",
      "inputs": [
        {
          "name": "float",
          "type": "bytes32",
          "internalType": "Float"
        },
        {
          "name": "decimals",
          "type": "uint8",
          "internalType": "uint8"
        }
      ],
      "outputs": [
        {
          "name": "",
          "type": "uint256",
          "internalType": "uint256"
        },
        {
          "name": "",
          "type": "bool",
          "internalType": "bool"
        }
      ],
      "stateMutability": "pure"
    },
    {
      "type": "function",
      "name": "zero",
      "inputs": [],
      "outputs": [
        {
          "name": "",
          "type": "bytes32",
          "internalType": "Float"
        }
      ],
      "stateMutability": "pure"
    },
    {
      "type": "error",
      "name": "CoefficientOverflow",
      "inputs": [
        {
          "name": "signedCoefficient",
          "type": "int256",
          "internalType": "int256"
        },
        {
          "name": "exponent",
          "type": "int256",
          "internalType": "int256"
        }
      ]
    },
    {
      "type": "error",
      "name": "DivisionByZero",
      "inputs": [
        {
          "name": "signedCoefficient",
          "type": "int256",
          "internalType": "int256"
        },
        {
          "name": "exponent",
          "type": "int256",
          "internalType": "int256"
        }
      ]
    },
    {
      "type": "error",
      "name": "ExponentOverflow",
      "inputs": [
        {
          "name": "signedCoefficient",
          "type": "int256",
          "internalType": "int256"
        },
        {
          "name": "exponent",
          "type": "int256",
          "internalType": "int256"
        }
      ]
    },
    {
      "type": "error",
      "name": "ExponentUnderflow",
      "inputs": [
        {
          "name": "signedCoefficient",
          "type": "int256",
          "internalType": "int256"
        },
        {
          "name": "exponent",
          "type": "int256",
          "internalType": "int256"
        }
      ]
    },
    {
      "type": "error",
      "name": "FixedDecimalOverflow",
      "inputs": [
        {
          "name": "signedCoefficient",
          "type": "int256",
          "internalType": "int256"
        },
        {
          "name": "exponent",
          "type": "int256",
          "internalType": "int256"
        },
        {
          "name": "decimals",
          "type": "uint8",
          "internalType": "uint8"
        }
      ]
    },
    {
      "type": "error",
      "name": "Log10Negative",
      "inputs": [
        {
          "name": "signedCoefficient",
          "type": "int256",
          "internalType": "int256"
        },
        {
          "name": "exponent",
          "type": "int256",
          "internalType": "int256"
        }
      ]
    },
    {
      "type": "error",
      "name": "Log10Zero",
      "inputs": []
    },
    {
      "type": "error",
      "name": "LogTablesNotDeployed",
      "inputs": [
        {
          "name": "tablesAddress",
          "type": "address",
          "internalType": "address"
        },
        {
          "name": "expectedCodehash",
          "type": "bytes32",
          "internalType": "bytes32"
        },
        {
          "name": "actualCodehash",
          "type": "bytes32",
          "internalType": "bytes32"
        }
      ]
    },
    {
      "type": "error",
      "name": "LossyConversionFromFloat",
      "inputs": [
        {
          "name": "signedCoefficient",
          "type": "int256",
          "internalType": "int256"
        },
        {
          "name": "exponent",
          "type": "int256",
          "internalType": "int256"
        }
      ]
    },
    {
      "type": "error",
      "name": "LossyConversionToFloat",
      "inputs": [
        {
          "name": "signedCoefficient",
          "type": "int256",
          "internalType": "int256"
        },
        {
          "name": "exponent",
          "type": "int256",
          "internalType": "int256"
        }
      ]
    },
    {
      "type": "error",
      "name": "MaximizeOverflow",
      "inputs": [
        {
          "name": "signedCoefficient",
          "type": "int256",
          "internalType": "int256"
        },
        {
          "name": "exponent",
          "type": "int256",
          "internalType": "int256"
        }
      ]
    },
    {
      "type": "error",
      "name": "MulDivOverflow",
      "inputs": [
        {
          "name": "x",
          "type": "uint256",
          "internalType": "uint256"
        },
        {
          "name": "y",
          "type": "uint256",
          "internalType": "uint256"
        },
        {
          "name": "denominator",
          "type": "uint256",
          "internalType": "uint256"
        }
      ]
    },
    {
      "type": "error",
      "name": "NegativeFixedDecimalConversion",
      "inputs": [
        {
          "name": "signedCoefficient",
          "type": "int256",
          "internalType": "int256"
        },
        {
          "name": "exponent",
          "type": "int256",
          "internalType": "int256"
        }
      ]
    },
    {
      "type": "error",
      "name": "PowNegativeBase",
      "inputs": [
        {
          "name": "signedCoefficient",
          "type": "int256",
          "internalType": "int256"
        },
        {
          "name": "exponent",
          "type": "int256",
          "internalType": "int256"
        }
      ]
    },
    {
      "type": "error",
      "name": "ScientificMinNotLessThanMax",
      "inputs": [
        {
          "name": "scientificMin",
          "type": "bytes32",
          "internalType": "Float"
        },
        {
          "name": "scientificMax",
          "type": "bytes32",
          "internalType": "Float"
        }
      ]
    },
    {
      "type": "error",
      "name": "UnformatableExponent",
      "inputs": [
        {
          "name": "exponent",
          "type": "int256",
          "internalType": "int256"
        }
      ]
    },
    {
      "type": "error",
      "name": "WithTargetExponentOverflow",
      "inputs": [
        {
          "name": "signedCoefficient",
          "type": "int256",
          "internalType": "int256"
        },
        {
          "name": "exponent",
          "type": "int256",
          "internalType": "int256"
        },
        {
          "name": "targetExponent",
          "type": "int256",
          "internalType": "int256"
        }
      ]
    },
    {
      "type": "error",
      "name": "ZeroNegativePower",
      "inputs": [
        {
          "name": "b",
          "type": "bytes32",
          "internalType": "Float"
        }
      ]
    },
    {
      "type": "error",
      "name": "ZeroStringStartPointer",
      "inputs": []
    }
  ],
  "bytecode": {
    "object": "0x6080604052348015600e575f80fd5b5060156019565b60b8565b73c51a14251b0dcf0ae24a96b7153991378938f5f53f7f2573004ac3a9ee7fc8d73654d76386f1b6b99e34cdf86a689c4691e47143420f811460b557604051630912d0ff60e31b815273c51a14251b0dcf0ae24a96b7153991378938f5f560048201527f2573004ac3a9ee7fc8d73654d76386f1b6b99e34cdf86a689c4691e47143420f60248201526044810182905260640160405180910390fd5b50565b614e6d806100c55f395ff3fe608060405234801561000f575f80fd5b506004361061029d575f3560e01c806381f7e2f511610171578063cde72ef3116100d2578063dd64691711610088578063e5526ecd1161006e578063e5526ecd1461062e578063e75f991f14610641578063ffae15ba14610654575f80fd5b8063dd64691714610608578063e0db58881461061b575f80fd5b8063d1de592a116100b8578063d1de592a146105bb578063d35273a7146105ce578063d3d6ffa8146105f5575f80fd5b8063cde72ef314610582578063d102b4d3146105a8575f80fd5b8063a19684b711610127578063bc1b392d1161010d578063bc1b392d1461050b578063bc62d8d814610511578063cb09682b1461055c575f80fd5b8063a19684b7146104d2578063a90d041a146104f8575f80fd5b806396ce1ec71161015757806396ce1ec7146104885780639b4afd991461049b578063a100a3d9146104bf575f80fd5b806381f7e2f5146104625780638dc2980714610475575f80fd5b80633447c0301161021b5780635ca0e7a4116101d1578063719cd99d116101b7578063719cd99d1461042957806373bfb2831461043c57806381a822721461044f575f80fd5b80635ca0e7a4146103f0578063602c35fc14610403575f80fd5b80633b3bd868116102015780633b3bd868146103b757806341aa0080146103ca5780635b23771d146103dd575f80fd5b80633447c03014610374578063371493ce14610397575f80fd5b80631ee62f111161027057806328fa1f011161025657806328fa1f011461033b5780633004fa411461034e5780633029740014610361575f80fd5b80631ee62f11146103155780632538835014610328575f80fd5b806304327dc5146102a1578063078b665b146102c75780630b6429bc146102da578063146e82ad14610302575b5f80fd5b6102b46102af3660046147ef565b61067a565b6040519081526020015b60405180910390f35b6102b46102d5366004614806565b61068a565b6102ed6102e8366004614836565b61069c565b604080519283529015156020830152016102be565b6102b46103103660046147ef565b6106b4565b6102b46103233660046147ef565b6106d3565b6102b46103363660046147ef565b6106f2565b6102b46103493660046147ef565b610711565b6102b461035c366004614806565b61071b565b6102b461036f366004614806565b61073b565b610387610382366004614806565b610746565b60405190151581526020016102be565b6103aa6103a5366004614860565b610751565b6040516102be9190614892565b6102b46103c5366004614836565b61075d565b6102b46103d8366004614806565b610768565b6102b46103eb366004614836565b610773565b6102b46103fe3660046147ef565b61077e565b7f80000000ffffffffffffffffffffffffffffffffffffffffffffffffffffffff6102b4565b6102b46104373660046147ef565b610788565b61038761044a366004614806565b610792565b6102b461045d3660046147ef565b61079d565b610387610470366004614806565b6107a7565b610387610483366004614806565b6107b2565b6102b4610496366004614806565b6107bd565b6102b47c090000000000000000000000000000000000000000000000000000000181565b6103aa6104cd3660046147ef565b6107c8565b7f80000000000000000000000000000000000000000000000000000000000000016102b4565b6102b4610506366004614806565b610812565b5f6102b4565b61052461051f366004614912565b61081d565b604080517fffffffff0000000000000000000000000000000000000000000000000000000090931683526020830191909152016102be565b7f7fffffff7fffffffffffffffffffffffffffffffffffffffffffffffffffffff6102b4565b7f7fffffff800000000000000000000000000000000000000000000000000000006102b4565b6103876105b6366004614806565b610836565b6102b46105c9366004614806565b610841565b6102b47ffffffffc0000000000000000000000000000000000000000000000000000000181565b6102b46106033660046147ef565b61084c565b6103876106163660046147ef565b610856565b6102b46106293660046147ef565b61087c565b6103aa61063c3660046149db565b610886565b6102ed61064f366004614836565b61090f565b7fffffffbe19cfc6ef4f44cf88f14500d013df534fcaad48fca1d5ca47bea26fcc6102b4565b5f6106848261091b565b92915050565b5f610695838361095d565b9392505050565b5f806106a88484610979565b915091505b9250929050565b5f6106848273c51a14251b0dcf0ae24a96b7153991378938f5f56109ba565b5f6106848273c51a14251b0dcf0ae24a96b7153991378938f5f56109e6565b5f6106848273c51a14251b0dcf0ae24a96b7153991378938f5f5610a33565b5f61068482610a66565b5f610695838373c51a14251b0dcf0ae24a96b7153991378938f5f5610aa7565b5f6106958383610d01565b5f6106958383610d63565b60606106958383610db1565b5f6106958383610e44565b5f6106958383610e5f565b5f6106958383610ea4565b5f61068482610ed7565b5f61068482610f8d565b5f6106958383611039565b5f61068482611089565b5f61069583836110ce565b5f610695838361111e565b5f610695838361116d565b6060610684827ffffffffc000000000000000000000000000000000000000000000000000000017c0900000000000000000000000000000000000000000000000000000001610886565b5f61069583836111b2565b5f805f8061082a856111bd565b90969095509350505050565b5f61069583836112ab565b5f61069583836112fa565b5f6106848261133f565b5f7bffffffffffffffffffffffffffffffffffffffffffffffffffffffff821615610684565b5f61068482611371565b606061089283836112ab565b6108d7576040517f3be5bf9400000000000000000000000000000000000000000000000000000000815260048101849052602481018390526044015b60405180910390fd5b5f6108e185611089565b9050610906856108f183876112ab565b806109015750610901838661111e565b610db1565b95945050505050565b5f806106a884846113b2565b5f7bffffffffffffffffffffffffffffffffffffffffffffffffffffffff8216601b0b60e083901d61094d82826113f2565b90925090505f6109068383611440565b5f610968838361111e565b6109725781610695565b5090919050565b5f807bffffffffffffffffffffffffffffffffffffffffffffffffffffffff8416601b0b60e085901d6109ad8282876114a6565b9350935050509250929050565b5f610695837fffffffff0000000000000000000000000000000000000000000000000000000584610aa7565b5f7bffffffffffffffffffffffffffffffffffffffffffffffffffffffff8316601b0b60e084901d610a198483836116b0565b90925090505f610a298383611440565b9695505050505050565b5f7bffffffffffffffffffffffffffffffffffffffffffffffffffffffff8316601b0b60e084901d610a19848383611821565b5f7bffffffffffffffffffffffffffffffffffffffffffffffffffffffff8216601b0b60e083901d82610a998383611b56565b9150505f610a298284611440565b5f7bffffffffffffffffffffffffffffffffffffffffffffffffffffffff848116601b0b9060e086901d908516610ae45750600191506106959050565b5f8213610b7d57815f03610b4157610afc855f6112ab565b15610b36576040517f8be82972000000000000000000000000000000000000000000000000000000008152600481018690526024016108ce565b505f91506106959050565b6040517fcceba0f100000000000000000000000000000000000000000000000000000000815260048101839052602481018290526044016108ce565b610b88856001610d63565b8015610b995750610b99865f61111e565b15610ba8578592505050610695565b610bb2855f6112ab565b15610bdb57610bd2610bc38761091b565b610bcc8761133f565b86610aa7565b92505050610695565b7bffffffffffffffffffffffffffffffffffffffffffffffffffffffff8516601b0b60e086901d5f80610c0e8484611b56565b915091505f610c1e83855f611bbe565b905060015f8080610c558f7bffffffffffffffffffffffffffffffffffffffffffffffffffffffff8116601b0b9160e09190911d90565b915091505b60018510610c9c5784600116600103610c7f57610c7984848484611cd5565b90945092505b600185901c9450610c9282828484611cd5565b9092509050610c5a565b5f80610ca98f8e8e611821565b91509150610cb982828a8d611cd5565b9092509050610cc98f83836116b0565b9092509050610cda82828888611cd5565b90925090505f610cea8383611440565b9e5050505050505050505050505050509392505050565b5f7bffffffffffffffffffffffffffffffffffffffffffffffffffffffff838116601b90810b9160e086811d9291861690910b9085901d8480610d4686868686611e84565b915091505f610d558383611440565b9a9950505050505050505050565b5f7bffffffffffffffffffffffffffffffffffffffffffffffffffffffff838116601b90810b9160e086811d9291861690910b9085901d610da6848484846124a8565b979650505050505050565b60607bffffffffffffffffffffffffffffffffffffffffffffffffffffffff8316601b0b60e084901d5f829003610e21576040518060400160405280600181526020017f300000000000000000000000000000000000000000000000000000000000000081525092505050610684565b8315610e3a57610e3182826124bf565b92505050610684565b61090682826127fc565b5f805f610e518585613026565b915091506109068282613088565b5f7bffffffffffffffffffffffffffffffffffffffffffffffffffffffff838116601b90810b9160e086811d9291861690910b9085901d8480610d46868686866130da565b5f7bffffffffffffffffffffffffffffffffffffffffffffffffffffffff8316601b0b60e084901d610906828286613104565b5f7bffffffffffffffffffffffffffffffffffffffffffffffffffffffff8216601b0b60e083901d828112610f0e57509192915050565b5f80610f1a8484611b56565b915091505f84128015610f2c57508015155b15610f8257610f7d82847f161bcca7119915b50764b4abe86529797775a5f17195100000000000000000007fffffffffffffffffffffffffffffffffffffffffffffffffffffffffffffffb46130da565b935091505b5f610da68385611440565b5f7bffffffffffffffffffffffffffffffffffffffffffffffffffffffff8216601b0b60e083901d828112610fc457509192915050565b5f80610fd08484611b56565b91509150805f03610fe5575093949350505050565b5f811315610f8257610f7d82847f161bcca7119915b50764b4abe86529797775a5f17195100000000000000000007fffffffffffffffffffffffffffffffffffffffffffffffffffffffffffffffb4613160565b5f7bffffffffffffffffffffffffffffffffffffffffffffffffffffffff838116601b90810b9160e086811d9291861690910b9085901d61107c84848484613290565b1315979650505050505050565b5f7bffffffffffffffffffffffffffffffffffffffffffffffffffffffff8216601b0b60e083901d828212156110c35761094d8282613364565b5f6109068383611440565b5f7bffffffffffffffffffffffffffffffffffffffffffffffffffffffff838116601b90810b9160e086811d9291861690910b9085901d61111184848484613290565b1215979650505050505050565b5f7bffffffffffffffffffffffffffffffffffffffffffffffffffffffff838116601b90810b9160e086811d9291861690910b9085901d61116184848484613290565b12979650505050505050565b5f7bffffffffffffffffffffffffffffffffffffffffffffffffffffffff838116601b90810b9160e086811d9291861690910b9085901d8480610d4686868686611cd5565b5f61096883836112ab565b80515f908190602084810191850101828080806111da8686613407565b929650909450925090507fffffffff0000000000000000000000000000000000000000000000000000000084165f0361129c5784830361126c575f8061122084846138a6565b915091508061125b57507f32b8b8be000000000000000000000000000000000000000000000000000000009a5f9a5098505050505050505050565b505f9a909950975050505050505050565b507fad384e8700000000000000000000000000000000000000000000000000000000985f98509650505050505050565b5091975f975095505050505050565b5f7bffffffffffffffffffffffffffffffffffffffffffffffffffffffff838116601b90810b9160e086811d9291861690910b9085901d6112ee84848484613290565b13979650505050505050565b5f7bffffffffffffffffffffffffffffffffffffffffffffffffffffffff838116601b90810b9160e086811d9291861690910b9085901d8480610d4686868686613160565b5f7bffffffffffffffffffffffffffffffffffffffffffffffffffffffff8216601b0b60e083901d61094d8282613364565b5f7bffffffffffffffffffffffffffffffffffffffffffffffffffffffff8216601b0b60e083901d826113a48383611b56565b5090505f610a298284611440565b5f805f805f6113c187876139ac565b9250925092505f806113d385856138a6565b91509150818380156113e25750815b9650965050505050509250929050565b5f806106a87f161bcca7119915b50764b4abe86529797775a5f17195100000000000000000007fffffffffffffffffffffffffffffffffffffffffffffffffffffffffffffffb48686611e84565b5f805f61144d85856138a6565b915091508015801561145d575081155b1561149e576040517f8eba4d0700000000000000000000000000000000000000000000000000000000815260048101869052602481018590526044016108ce565b509392505050565b5f805f8512156114ec576040517f4a7d166b00000000000000000000000000000000000000000000000000000000815260048101869052602481018590526044016108ce565b845f036114fe57505f905060016116a8565b8460ff8416850185811215611549576040517fd556b11100000000000000000000000000000000000000000000000000000000815260048101889052602481018790526044016108ce565b5f805f8312156115b3577fffffffffffffffffffffffffffffffffffffffffffffffffffffffffffffffb383121561158a575f8095509550505050506116a8565b825f03600a0a91508184816115a1576115a1614a04565b04955050840290911491506116a89050565b5f83131561169d57604d831315611609576040517fc849483b000000000000000000000000000000000000000000000000000000008152600481018a90526024810189905260ff881660448201526064016108ce565b82600a0a9150817fffffffffffffffffffffffffffffffffffffffffffffffffffffffffffffffff8161163e5761163e614a04565b0484111561168b576040517fc849483b000000000000000000000000000000000000000000000000000000008152600481018a90526024810189905260ff881660448201526064016108ce565b50919091029250600191506116a89050565b509193506001925050505b935093915050565b5f805f8412156116ec576116c48484613364565b90945092506116d48585856116b0565b90945092506116e384846113f2565b915091506116a8565b5f806116f88686611b56565b9092509050845f808061170b8585613a08565b9194509250905061270d612710611723600182614a5e565b851461173a576117348d8686613af7565b90925090505b83156117c5575f61174c866001614a84565b90505b80848583028161176157611761614a04565b051461177857600a84059350600a8805975061174f565b6117b96117858588614aab565b896117908785614aab565b8f87877ffffffffffffffffffffffffffffffffffffffffffffffffffffffffffffffffc613bb0565b909d509b506117ec9050565b819b507ffffffffffffffffffffffffffffffffffffffffffffffffffffffffffffffffc9a505b5050505050866117fd84835f611bbe565b611808886001614a84565b6118129190614a84565b94509450505050935093915050565b5f80838361182f8282613c4d565b90965094505f86136118b057855f03611874576040517f561fc7b500000000000000000000000000000000000000000000000000000000815260040160405180910390fd5b6040517f5d3fd4db00000000000000000000000000000000000000000000000000000000815260048101839052602481018290526044016108ce565b5050837f161bcca7119915b50764b4abe86529797775a5f1719510000000000000000000036118ee576118e483604c614a84565b5f915091506116a8565b7f161bcca7119915b50764b4abe86529797775a5f17195100000000000000000008412158061193d577fffffffffffffffffffffffffffffffffffffffffffffffffffffffffffffffb561195f565b7fffffffffffffffffffffffffffffffffffffffffffffffffffffffffffffffb45b5f0b8412611b1a575f805f805f8561197857604b61197b565b604c5b611985908a614a84565b90505f80876119b2577d90e40fbeea1d3a4abc8955e946fe31cdcf66f634e10000000000000000006119d3565b7e05a8e89d75252446eb5d5d5b1cc5edf20a1a059e10ca0000000000000000005b7effffffffffffffffffffffffffffffffffffffffffffffffffffffffffffff169050808c81611a0557611a05614a04565b05818102955090850193507ffffffffffffffffffffffffffffffffffffffffffffffffffffffffffffffc18019050611a3e8c82613ca3565b7d90e40fbeea1d3a4abc8955e946fe31cdcf66f634e10000000000000000000295508594508a8414611aca576123278114611aa557611a808c82600101613ca3565b7d90e40fbeea1d3a4abc8955e946fe31cdcf66f634e100000000000000000002611ac7565b7f161bcca7119915b50764b4abe86529797775a5f17195100000000000000000005b94505b50611afa838b848c89897fffffffffffffffffffffffffffffffffffffffffffffffffffffffffffffffb4613bb0565b909a509850611b0b8a8a835f613160565b975097505050505050506116a8565b611b2485856113f2565b9095509350611b34868686611821565b9095509350611b438585613364565b92509250506116a8565b50935093915050565b5f805f8312611b6957508290505f6106ad565b7fffffffffffffffffffffffffffffffffffffffffffffffffffffffffffffffb4831215611b9b57505f9050826106ad565b5f839003600a0a808581611bb157611bb1614a04565b0794859003959350505050565b5f818303611bcd575082610695565b82821315611c1057828203604c811380611be757505f8113155b15611bf5575f915050610695565b80600a0a8581611c0757611c07614a04565b05915050610695565b818303604c811380611c2257505f8113155b15611c6a576040517f1d5d6d100000000000000000000000000000000000000000000000000000000081526004810186905260248101859052604481018490526064016108ce565b600a81900a85810286828281611c8257611c82614a04565b0514611ccb576040517f1d5d6d100000000000000000000000000000000000000000000000000000000081526004810188905260248101879052604481018690526064016108ce565b9250610695915050565b5f8085158415178015611ced575f92505f9150611e7a565b83860191505f84138015611d0057508582125b80611d1457505f84128015611d1457508582135b80611d485750611d4560027f7fffffffffffffffffffffffffffffffffffffffffffffffffffffffffffffff614af6565b82135b15611d89576040517fd556b11100000000000000000000000000000000000000000000000000000000815260048101889052602481018790526044016108ce565b5f611d9388613d2a565b90505f611d9f87613d2a565b90505f611dac8383613d90565b5090505f6f0785ee10d5da46d900f436a000000000821115611de1576f0785ee10d5da46d900f436a000000000820491506025015b670de0b6b3a7640000821115611e0257670de0b6b3a7640000820491506012015b633b9aca00821115611e1b57633b9aca00820491506009015b612710821115611e3057612710820491506004015b8115611e4457600a82049150600101611e30565b611e4e8187614a84565b9550611e708b8a611e6a8787611e6587600a614c7b565b613dcb565b89613eb0565b9097509550505050505b5094509492505050565b5f80835f03611ec9576040517f7a97930f00000000000000000000000000000000000000000000000000000000815260048101879052602481018690526044016108ce565b855f03611eda57505f90508061249f565b5f805f80611ee88a8a613fb7565b919b5099509150611ef98888613fb7565b919950975090505f611f0a8b613d2a565b90505f611f168a613d2a565b90507f161bcca7119915b50764b4abe86529797775a5f1719510000000000000000000604c81831015612333578415611f7457507f0235fadd81c2822bb3f07877973d50f28bf22a31be8ee80000000000000000009050604b6122f2565b6f4b3b4ca85a86c47a098a2240000000008310156120a057678ac7230489e80000831015612004576402540be400831015611fd257620186a0831015611fc25750620186a09050600561227b565b506402540be4009050600a61227b565b655af3107a4000831015611ff15750655af3107a40009050600e61227b565b50678ac7230489e800009050601361227b565b6b204fce5e3e250261100000008310156120565769152d02c7e14af680000083101561203f575069152d02c7e14af68000009050601761227b565b506b204fce5e3e250261100000009050601c61227b565b6d314dc6448d9338c15b0a0000000083101561208557506d314dc6448d9338c15b0a000000009050602161227b565b506f4b3b4ca85a86c47a098a2240000000009050602661227b565b780197d4df19d605767337e9f14d3eec8920e4000000000000008310156121985773af298d050e4395d69670b12b7f41000000000000831015612133577172cb5bd86321e38cb6ce6682e8000000000083101561211457507172cb5bd86321e38cb6ce6682e800000000009050602b61227b565b5073af298d050e4395d69670b12b7f410000000000009050603061227b565b76010b46c6cdd6e3e0828f4db456ff0c8ea0000000000000831015612174575076010b46c6cdd6e3e0828f4db456ff0c8ea00000000000009050603561227b565b50780197d4df19d605767337e9f14d3eec8920e4000000000000009050603a61227b565b7c03b58e88c75313ec9d329eaaa18fb92f75215b1710000000000000000083101561222e577a026e4d30eccc3215dd8f3157d27e23acbdcfe6800000000000000083101561220657507a026e4d30eccc3215dd8f3157d27e23acbdcfe680000000000000009050603f61227b565b507c03b58e88c75313ec9d329eaaa18fb92f75215b171000000000000000009050604461227b565b7e05a8e89d75252446eb5d5d5b1cc5edf20a1a059e10ca00000000000000000083101561227b57507e05a8e89d75252446eb5d5d5b1cc5edf20a1a059e10ca000000000000000000905060495b8183116122af57600a820491507fffffffffffffffffffffffffffffffffffffffffffffffffffffffffffffffff0161227b565b815f036122f2576040517f05e51ecb000000000000000000000000000000000000000000000000000000008152600481018d9052602481018c90526044016108ce565b85612333576040517f05e51ecb000000000000000000000000000000000000000000000000000000008152600481018f9052602481018e90526044016108ce565b807f8000000000000000000000000000000000000000000000000000000000000000018d1261236657808d039c506123d9565b7f80000000000000000000000000000000000000000000000000000000000000009c90038c015f8113156123d957807f7fffffffffffffffffffffffffffffffffffffffffffffffffffffffffffffff038b136123c657998a01996123d9565b5f8099509950505050505050505061249f565b5f808e1280156123e857505f8c135b15612425577f80000000000000000000000000000000000000000000000000000000000000008e01808d1361241d575f612421565b808d035b9150505b8b818f010397506124428f8e61243c888789613dcb565b8b613eb0565b90995097505f81131561248c57604c81131561246c575f809a509a5050505050505050505061249f565b80600a0a898161247e5761247e614a04565b059850885f0361248c575f97505b5096985094965061249f95505050505050565b94509492505050565b5f6124b585858585613290565b1495945050505050565b6060816124cc8482613c4d565b90945092505f806124fd7f161bcca7119915b50764b4abe86529797775a5f171951000000000000000000087614af6565b1561252d57507f161bcca7119915b50764b4abe86529797775a5f17195100000000000000000009050604c612554565b507f0235fadd81c2822bb3f07877973d50f28bf22a31be8ee80000000000000000009050604b5b5f61255f8388614af6565b90505f61256c8489614c86565b90505f808312156125865750600161258383614c99565b92505b5f82121561259d5750600161259a82614c99565b91505b60408051602081019091525f815282156126a6575f806125be600a89614cc9565b90505b6125cb8186614af6565b5f036125f0576125dc600a82614cc9565b9050816125e881614cdc565b9250506125c1565b60408051602081019091525f8082525b8381101561265157816040516020016126199190614d2a565b604080517fffffffffffffffffffffffffffffffffffffffffffffffffffffffffffffffe08184030181529190529150600101612600565b505b61265e600a87614c86565b5f036126765761266f600a87614af6565b9550612653565b8061268087614258565b604051602001612691929190614d62565b60405160208183030381529060405293505050505b5f6126b085614258565b90505f6126bd878c614a84565b9050637fffffff8113806126f057507fffffffffffffffffffffffffffffffffffffffffffffffffffffffff8000000081125b1561272a576040517fe44c72b0000000000000000000000000000000000000000000000000000000008152600481018a90526024016108ce565b5f811561275e5761273a82614258565b60405160200161274a9190614da4565b60405160208183030381529060405261276e565b60405180602001604052805f8152505b90505f8561278a5760405180602001604052805f8152506127c1565b6040518060400160405280600181526020017f2d000000000000000000000000000000000000000000000000000000000000008152505b9050808486846040516020016127da9493929190614dd5565b6040516020818303038152906040529b50505050505050505050505092915050565b60606103e882138061281757506128146103e8614c99565b82125b15612851576040517fe44c72b0000000000000000000000000000000000000000000000000000000008152600481018390526024016108ce565b5f80841290811561286c5761286585614c99565b905061286f565b50835b5f8413156129325783604481106128b5576040517fe44c72b0000000000000000000000000000000000000000000000000000000008152600481018690526024016108ce565b7b7fffffffffffffffffffffffffffffffffffffffffffffffffffffff5f5b828110156128f1576128e7600a83614cc9565b91506001016128d4565b508083111561292f576040517fe44c72b0000000000000000000000000000000000000000000000000000000008152600481018790526024016108ce565b50505b5f61293c826142e4565b80519091505f5b81811080156129bf5750828161295a600185614df5565b6129649190614df5565b8151811061297457612974614e08565b6020910101517fff00000000000000000000000000000000000000000000000000000000000000167f3000000000000000000000000000000000000000000000000000000000000000145b156129d657806129ce81614cdc565b915050612943565b5f6129e18284614df5565b90505f6129ee838a614a84565b90505f87612a0a5760405180602001604052805f815250612a41565b6040518060400160405280600181526020017f2d000000000000000000000000000000000000000000000000000000000000008152505b90505f8212612bbb57815f612a568286614e35565b67ffffffffffffffff811115612a6e57612a6e6148e5565b6040519080825280601f01601f191660200182016040528015612a98576020820181803683370190505b5090505f5b85811015612b0a57888181518110612ab757612ab7614e08565b602001015160f81c60f81b828281518110612ad457612ad4614e08565b60200101907effffffffffffffffffffffffffffffffffffffffffffffffffffffffffffff191690815f1a905350600101612a9d565b505f5b82811015612b87577f300000000000000000000000000000000000000000000000000000000000000082612b418389614e35565b81518110612b5157612b51614e08565b60200101907effffffffffffffffffffffffffffffffffffffffffffffffffffffffffffff191690815f1a905350600101612b0d565b508281604051602001612b9b929190614e48565b6040516020818303038152906040529a5050505050505050505050610684565b5f612bc583614c99565b905080841115612ddc575f612bda8286614df5565b90505f612be8866001614e35565b67ffffffffffffffff811115612c0057612c006148e5565b6040519080825280601f01601f191660200182016040528015612c2a576020820181803683370190505b5090505f5b82811015612c9c57898181518110612c4957612c49614e08565b602001015160f81c60f81b828281518110612c6657612c66614e08565b60200101907effffffffffffffffffffffffffffffffffffffffffffffffffffffffffffff191690815f1a905350600101612c2f565b507f2e00000000000000000000000000000000000000000000000000000000000000818381518110612cd057612cd0614e08565b60200101907effffffffffffffffffffffffffffffffffffffffffffffffffffffffffffff191690815f1a9053505f5b83811015612da75789612d138285614e35565b81518110612d2357612d23614e08565b01602001517fff00000000000000000000000000000000000000000000000000000000000000168282612d57866001614e35565b612d619190614e35565b81518110612d7157612d71614e08565b60200101907effffffffffffffffffffffffffffffffffffffffffffffffffffffffffffff191690815f1a905350600101612d00565b508381604051602001612dbb929190614e48565b6040516020818303038152906040529b505050505050505050505050610684565b5f612de78583614df5565b90505f85612df6836002614e35565b612e009190614e35565b67ffffffffffffffff811115612e1857612e186148e5565b6040519080825280601f01601f191660200182016040528015612e42576020820181803683370190505b5090507f3000000000000000000000000000000000000000000000000000000000000000815f81518110612e7857612e78614e08565b60200101907effffffffffffffffffffffffffffffffffffffffffffffffffffffffffffff191690815f1a9053507f2e0000000000000000000000000000000000000000000000000000000000000081600181518110612eda57612eda614e08565b60200101907effffffffffffffffffffffffffffffffffffffffffffffffffffffffffffff191690815f1a9053505f5b82811015612f85577f300000000000000000000000000000000000000000000000000000000000000082612f3f836002614e35565b81518110612f4f57612f4f614e08565b60200101907effffffffffffffffffffffffffffffffffffffffffffffffffffffffffffff191690815f1a905350600101612f0a565b505f5b86811015612da757898181518110612fa257612fa2614e08565b01602001517fff00000000000000000000000000000000000000000000000000000000000000168282612fd6866002614e35565b612fe09190614e35565b81518110612ff057612ff0614e08565b60200101907effffffffffffffffffffffffffffffffffffffffffffffffffffffffffffff191690815f1a905350600101612f88565b5f805f805f61303587876139ac565b9250925092508061307c576040517fc471796600000000000000000000000000000000000000000000000000000000815260048101849052602481018390526044016108ce565b50909590945092505050565b5f805f61309585856138a6565b915091508061149e576040517f22c9f7bb00000000000000000000000000000000000000000000000000000000815260048101869052602481018590526044016108ce565b5f806130e68484613364565b90945092506130f786868686613160565b9150915094509492505050565b5f805f6131128686866114a6565b9150915080613157576040517f05e4767800000000000000000000000000000000000000000000000000000000815260048101879052602481018690526044016108ce565b50949350505050565b5f808515841517801561318c57865f03613180578484925092505061249f565b8686925092505061249f565b6131968787613c4d565b90975095506131a58585613c4d565b9095509350858413156131b9579395929492935b838603604c8111156131d257878793509350505061249f565b80600a0a86816131e4576131e4614a04565b0595505086850180881860ff90811c151589881890911c1516801561327f57877f7fffffffffffffffffffffffffffffffffffffffffffffffffffffffffffffff03613266576040517fd556b111000000000000000000000000000000000000000000000000000000008152600481018a9052602481018990526044016108ce565b600a968790059690980586019760019790970196613283565b8198505b5096979596505050505050565b5f80851584151781871282861218178584141780156132b5578685925092505061249f565b505f858413156132c9575092949193919260015b8386035f8112604c82131780156132fc5782156132ee575f899450945050505061249f565b885f9450945050505061249f565b600a82900a8981028a82828161331457613314614a04565b0514613340578415613330575f8b96509650505050505061249f565b8a5f96509650505050505061249f565b841561335557889650945061249f9350505050565b955087945061249f9350505050565b5f807f800000000000000000000000000000000000000000000000000000000000000084036133fd577f7fffffffffffffffffffffffffffffffffffffffffffffffffffffffffffffff83036133f0576040517fd556b11100000000000000000000000000000000000000000000000000000000815260048101859052602481018490526044016108ce565b600a840593508260010192505b50505f9190910391565b5f82818061341c8386652000000000006143a0565b9250858314158361343681886703ff0000000000006143a0565b945080850361347057507f34bd20690000000000000000000000000000000000000000000000000000000094505f925082915061389d9050565b5f8061347c8a886143c9565b90925090507fffffffff000000000000000000000000000000000000000000000000000000008216156134ba575095505f935083925061389d915050565b86519095506540000000000060015f9290921a9190911b16151588871016915050801561374957506001909301925f846134fd81896703ff0000000000006143a0565b955080860361353857507f7bfa48af0000000000000000000000000000000000000000000000000000000095505f935083925061389d915050565b855b7fffffffffffffffffffffffffffffffffffffffffffffffffffffffffffffffff81018051908a1160015f9290921a9190911b6601000000000000161515166001036135a7577fffffffffffffffffffffffffffffffffffffffffffffffffffffffffffffffff0161353a565b8181146135fe575f806135ba84846143c9565b90925090507fffffffff000000000000000000000000000000000000000000000000000000008216156135fa575097505f955085945061389d9350505050565b9350505b5f83121561363957507f7bfa48af0000000000000000000000000000000000000000000000000000000096505f945084935061389d92505050565b831561364557825f0392505b80820394505f85131561368557507f013b2aaa0000000000000000000000000000000000000000000000000000000096505f945084935061389d92505050565b855f0361369457829550613746565b5f85900360438111156136d557507f32b8b8be0000000000000000000000000000000000000000000000000000000097505f955085945061389d9350505050565b600a0a8681025f888383816136ec576136ec614a04565b0514159050601b82900b82141581806137025750805b1561373e57507f32b8b8be000000000000000000000000000000000000000000000000000000009a505f985088975061389d9650505050505050565b505084019650505b50505b84516c2000000020000000000000000060015f9290921a9190911b16151587861016801561388e5760019095019485613789818a652000000000006143a0565b96508661379f818b6703ff0000000000006143a0565b97508088036137dc57507f013b2aaa0000000000000000000000000000000000000000000000000000000097505f955085945061389d9350505050565b505f806137e9838a6143c9565b90925090507fffffffff00000000000000000000000000000000000000000000000000000000821615613829575097505f955085945061389d9350505050565b9250508482015f8313801561383d57508581125b8061385157505f8312801561385157508581135b1561388a57507fd556b1110000000000000000000000000000000000000000000000000000000097505f955085945061389d9350505050565b9450505b845f03613899575f93505b5050505b92959194509250565b5f601b83900b831483838261390a577d90e40fbeea1d3a4abc8955e946fe31cdcf66f634e10000000000000000008605156138ea57620186a0860595506005850194505b8586601b0b1461390557600a860595508460010194506138ea565b613920565b855f0361392057505f9250600191506106ad9050565b848560030b1461397c575f85121561394057505f92508291506106ad9050565b6040517fd556b11100000000000000000000000000000000000000000000000000000000815260048101839052602481018290526044016108ce565b50507bffffffffffffffffffffffffffffffffffffffffffffffffffffffff841660e084901b1791509250929050565b5f808060ff841681037f7fffffffffffffffffffffffffffffffffffffffffffffffffffffffffffffff8611156139f757600a860460018201600a88065f1493509350935050613a01565b8593509150600190505b9250925092565b5f805f837ffffffffffffffffffffffffffffffffffffffffffffffffffffffffffffffffc03613a4057508391505f90506001613a01565b7ffffffffffffffffffffffffffffffffffffffffffffffffffffffffffffffffc841215613ace577fffffffffffffffffffffffffffffffffffffffffffffffffffffffffffffffb0841215613a9f57505f9150508215156001613a01565b5f846004015f03600a0a90505f818781613abb57613abb614a04565b0594505080840286141592509050613a01565b5f8412613ae357505f91508190506001613a01565b50505060048101600a0a82025f6001613a01565b5f80806064613b09600a612328614cc9565b613b16600a612328614cc9565b613b21906002614e56565b613b2c906001614e35565b613b369190614e35565b613b409190614e35565b9050613b84565b5f8052600280600a8504028301601e833c5f80516107d0840193505f80526001600a8606600a6064880402018501601f853c5f5101949350505050565b613b8f858288613b47565b92508315611b4d57613ba5600186018288613b47565b915050935093915050565b5f80888803613bc3575083905081613c41565b5f805f80613bd38c8b8f8d6130da565b915091505f80613be58a8a8d8c6130da565b91509150613bf584848484611cd5565b8096508197505050505050505f80613c0f8b8b8f8d6130da565b915091505f80613c2186868686611e84565b915091505f80613c3384848f8e613160565b909a50985050505050505050505b97509795505050505050565b5f805f805f613c5c8787613fb7565b9250925092508061307c576040517f05e51ecb00000000000000000000000000000000000000000000000000000000815260048101889052602481018790526044016108ce565b5f80613cb2600a612328614cc9565b613cbd906002614e56565b613cc8906001614e35565b90505f613cd8600a612328614cc9565b90506002600a8504026001015f8052600281601e883c505f51617fff81169350618000811615613d0757918101915b505f80526001600a8506600a6064870402018301601f873c50505f510192915050565b5f80821215613d87577f80000000000000000000000000000000000000000000000000000000000000008203613d8157507f8000000000000000000000000000000000000000000000000000000000000000919050565b505f0390565b5090565b919050565b5f807fffffffffffffffffffffffffffffffffffffffffffffffffffffffffffffffff83850993909202808410938190039390930393915050565b5f805f613dd88686613d90565b91509150815f03613dfc57838181613df257613df2614a04565b0492505050610695565b838210613e46576040517f6c59da120000000000000000000000000000000000000000000000000000000081526004810187905260248101869052604481018590526064016108ce565b5f84868809600186198101871696879004966002600389028118808a02820302808a02820302808a02820302808a02820302808a02820302808a02909103025f82900382900490920185841190960395909502919093039390930492909217029150509392505050565b5f805f8587181215613f7a577f7fffffffffffffffffffffffffffffffffffffffffffffffffffffffffffffff841115613f6757613f0f7f7fffffffffffffffffffffffffffffffffffffffffffffffffffffffffffffff6001614e35565b8403613f3f57507f800000000000000000000000000000000000000000000000000000000000000090508161249f565b613f4a600a85614cc9565b613f5390614c99565b613f5e846001614a84565b9150915061249f565b613f7084614c99565b839150915061249f565b7f7fffffffffffffffffffffffffffffffffffffffffffffffffffffffffffffff841115613fad57613f53600a85614cc9565b508290508161249f565b5f805f845f03613fcf57505f91508190506001613a01565b7f0235fadd81c2822bb3f07877973d50f28bf22a31be8ee800000000000000000085055f036141e3576f4b3b4ca85a86c47a098a224000000000850515801561403857507f80000000000000000000000000000000000000000000000000000000000000268412155b15614059576f4b3b4ca85a86c47a098a224000000000850294506026840393505b7728c87cb5c89a2571ebfdcb54864ada834a0000000000000085051580156140a157507f80000000000000000000000000000000000000000000000000000000000000138412155b156140ba57678ac7230489e80000850294506013840393505b7b097edd871cfda3a5697758bf0e3cbb5ac5741c640000000000000000850515801561410657507f800000000000000000000000000000000000000000000000000000000000000a8412155b1561411c576402540be40085029450600a840393505b7e3899162693736ac531a5a58f1fbb4b746504382ca7e4000000000000000000850515801561416b57507f80000000000000000000000000000000000000000000000000000000000000028412155b156141815760648502945060028403935061411c565b7f0235fadd81c2822bb3f07877973d50f28bf22a31be8ee800000000000000000085051580156141d157507f80000000000000000000000000000000000000000000000000000000000000018412155b156141e357600a850294506001840393505b600a8086029081058614801561421957507f80000000000000000000000000000000000000000000000000000000000000018512155b15614228578095506001850394505b50939492935050507f0235fadd81c2822bb3f07877973d50f28bf22a31be8ee80000000000000000008305151590565b60605f82126142755760405180602001604052805f8152506142ac565b6040518060400160405280600181526020017f2d000000000000000000000000000000000000000000000000000000000000008152505b6142bd60ff84901d808501186142e4565b6040516020016142ce929190614e48565b6040516020818303038152906040529050919050565b60605f6142f0836144f3565b60010190505f8167ffffffffffffffff81111561430f5761430f6148e5565b6040519080825280601f01601f191660200182016040528015614339576020820181803683370190505b5090508181016020015b7fffffffffffffffffffffffffffffffffffffffffffffffffffffffffffffffff017f3031323334353637383961626364656600000000000000000000000000000000600a86061a8153600a850494508461434357509392505050565b5f5b5f82600186515f1a1b161183851016156143c1576001840193506143a2565b509192915050565b81515f90819065200000000000600191831a9190911b161515838510168085019082806143f684886145d4565b90925090507fffffffff00000000000000000000000000000000000000000000000000000000821615614431575093505f92506106ad915050565b825f03614494577f7fffffffffffffffffffffffffffffffffffffffffffffffffffffffffffffff8111614465575f614487565b7f0fdc2635000000000000000000000000000000000000000000000000000000005b955093506106ad92505050565b7f800000000000000000000000000000000000000000000000000000000000000081116144c1575f6144e3565b7f0fdc2635000000000000000000000000000000000000000000000000000000005b95505f0393505050509250929050565b5f807a184f03e93ff9f4daa797ed6e38ed64bf6a1f010000000000000000831061453b577a184f03e93ff9f4daa797ed6e38ed64bf6a1f010000000000000000830492506040015b6d04ee2d6d415b85acef81000000008310614567576d04ee2d6d415b85acef8100000000830492506020015b662386f26fc10000831061458557662386f26fc10000830492506010015b6305f5e100831061459d576305f5e100830492506008015b61271083106145b157612710830492506004015b606483106145c3576064830492506002015b600a83106106845760010192915050565b5f8082841061460757507f34bd20690000000000000000000000000000000000000000000000000000000090505f6106ad565b835f03614640576040517fda6966d400000000000000000000000000000000000000000000000000000000815260040160405180910390fd5b60305f7fffffffffffffffffffffffffffffffffffffffffffffffffffffffffffffffff8501815b8782101580156146785750604d83105b156146bb57815160018401937fffffffffffffffffffffffffffffffffffffffffffffffffffffffffffffffff90930192600a0a5f9190911a8590030201614668565b8782106147e15781515f1a849003600181111561470357507f0fdc26350000000000000000000000000000000000000000000000000000000095505f94506106ad9350505050565b600a84900a810282810183111561474657507f0fdc26350000000000000000000000000000000000000000000000000000000096505f95506106ad945050505050565b9190910190507fffffffffffffffffffffffffffffffffffffffffffffffffffffffffffffffff909101905b8782106147e15781515f1a603081146147b657507f0fdc26350000000000000000000000000000000000000000000000000000000095505f94506106ad9350505050565b507fffffffffffffffffffffffffffffffffffffffffffffffffffffffffffffffff90910190614772565b5f9890975095505050505050565b5f602082840312156147ff575f80fd5b5035919050565b5f8060408385031215614817575f80fd5b50508035926020909101359150565b803560ff81168114613d8b575f80fd5b5f8060408385031215614847575f80fd5b8235915061485760208401614826565b90509250929050565b5f8060408385031215614871575f80fd5b8235915060208301358015158114614887575f80fd5b809150509250929050565b602081525f82518060208401528060208501604085015e5f6040828501015260407fffffffffffffffffffffffffffffffffffffffffffffffffffffffffffffffe0601f83011684010191505092915050565b7f4e487b71000000000000000000000000000000000000000000000000000000005f52604160045260245ffd5b5f60208284031215614922575f80fd5b813567ffffffffffffffff80821115614939575f80fd5b818401915084601f83011261494c575f80fd5b81358181111561495e5761495e6148e5565b604051601f82017fffffffffffffffffffffffffffffffffffffffffffffffffffffffffffffffe0908116603f011681019083821181831017156149a4576149a46148e5565b816040528281528760208487010111156149bc575f80fd5b826020860160208301375f928101602001929092525095945050505050565b5f805f606084860312156149ed575f80fd5b505081359360208301359350604090920135919050565b7f4e487b71000000000000000000000000000000000000000000000000000000005f52601260045260245ffd5b7f4e487b71000000000000000000000000000000000000000000000000000000005f52601160045260245ffd5b8181035f831280158383131683831282161715614a7d57614a7d614a31565b5092915050565b8082018281125f831280158216821582161715614aa357614aa3614a31565b505092915050565b8082025f82127f800000000000000000000000000000000000000000000000000000000000000084141615614ae257614ae2614a31565b818105831482151761068457610684614a31565b5f82614b0457614b04614a04565b7fffffffffffffffffffffffffffffffffffffffffffffffffffffffffffffffff83147f800000000000000000000000000000000000000000000000000000000000000083141615614b5857614b58614a31565b500590565b600181815b80851115614bb657817fffffffffffffffffffffffffffffffffffffffffffffffffffffffffffffffff04821115614b9c57614b9c614a31565b80851615614ba957918102915b93841c9390800290614b62565b509250929050565b5f82614bcc57506001610684565b81614bd857505f610684565b8160018114614bee5760028114614bf857614c14565b6001915050610684565b60ff841115614c0957614c09614a31565b50506001821b610684565b5060208310610133831016604e8410600b8410161715614c37575081810a610684565b614c418383614b5d565b807fffffffffffffffffffffffffffffffffffffffffffffffffffffffffffffffff04821115614c7357614c73614a31565b029392505050565b5f6106958383614bbe565b5f82614c9457614c94614a04565b500790565b5f7f80000000000000000000000000000000000000000000000000000000000000008203613d8157613d81614a31565b5f82614cd757614cd7614a04565b500490565b5f7fffffffffffffffffffffffffffffffffffffffffffffffffffffffffffffffff8203614d0c57614d0c614a31565b5060010190565b5f81518060208401855e5f93019283525090919050565b5f614d358284614d13565b7f300000000000000000000000000000000000000000000000000000000000000081526001019392505050565b7f2e0000000000000000000000000000000000000000000000000000000000000081525f614d9c614d966001840186614d13565b84614d13565b949350505050565b7f650000000000000000000000000000000000000000000000000000000000000081525f6106956001830184614d13565b5f610a29614d96614def614de9858a614d13565b88614d13565b86614d13565b8181038181111561068457610684614a31565b7f4e487b71000000000000000000000000000000000000000000000000000000005f52603260045260245ffd5b8082018082111561068457610684614a31565b5f614d9c614d968386614d13565b808202811582820484141761068457610684614a3156"
  }
}