{
  "abi": [
    {
      "type": "constructor",
      "inputs": [],
      "stateMutability": "nonpayable"
    },
    {
      "type": "function",
      "name": "FORMAT_DEFAULT_SCIENTIFIC_MAX",
      "inputs": [],
      "outputs": [
        {
          "name": "",
          "type": "bytes32",
          "internalType": "Float"
        }
      ],
      "stateMutability": "view"
    },
    {
      "type": "function",
      "name": "FORMAT_DEFAULT_SCIENTIFIC_MIN",
      "inputs": [],
      "outputs": [
        {
          "name": "",
          "type": "bytes32",
          "internalType": "Float"
        }
      ],
      "stateMutability": "view"
    },
    {
      "type": "function",
      "name": "abs",
      "inputs": [
        {
          "name": "a",
          "type": "bytes32",
          "internalType": "Float"
        }
      ],
      "outputs": [
        {
          "name": "",
          "type": "bytes32",
          "internalType": "Float"
        }
      ],
      "stateMutability": "pure"
    },
    {
      "type": "function",
      "name": "add",
      "inputs": [
        {
          "name": "a",
          "type": "bytes32",
          "internalType": "Float"
        },
        {
          "name": "b",
          "type": "bytes32",
          "internalType": "Float"
        }
      ],
      "outputs": [
        {
          "name": "",
          "type": "bytes32",
          "internalType": "Float"
        }
      ],
      "stateMutability": "pure"
    },
    {
      "type": "function",
      "name": "canonicalize",
      "inputs": [
        {
          "name": "a",
          "type": "bytes32",
          "internalType": "Float"
        }
      ],
      "outputs": [
        {
          "name": "",
          "type": "bytes32",
          "internalType": "Float"
        }
      ],
      "stateMutability": "pure"
    },
    {
      "type": "function",
      "name": "ceil",
      "inputs": [
        {
          "name": "a",
          "type": "bytes32",
          "internalType": "Float"
        }
      ],
      "outputs": [
        {
          "name": "",
          "type": "bytes32",
          "internalType": "Float"
        }
      ],
      "stateMutability": "pure"
    },
    {
      "type": "function",
      "name": "div",
      "inputs": [
        {
          "name": "a",
          "type": "bytes32",
          "internalType": "Float"
        },
        {
          "name": "b",
          "type": "bytes32",
          "internalType": "Float"
        }
      ],
      "outputs": [
        {
          "name": "",
          "type": "bytes32",
          "internalType": "Float"
        }
      ],
      "stateMutability": "pure"
    },
    {
      "type": "function",
      "name": "e",
      "inputs": [],
      "outputs": [
        {
          "name": "",
          "type": "bytes32",
          "internalType": "Float"
        }
      ],
      "stateMutability": "pure"
    },
    {
      "type": "function",
      "name": "eq",
      "inputs": [
        {
          "name": "a",
          "type": "bytes32",
          "internalType": "Float"
        },
        {
          "name": "b",
          "type": "bytes32",
          "internalType": "Float"
        }
      ],
      "outputs": [
        {
          "name": "",
          "type": "bool",
          "internalType": "bool"
        }
      ],
      "stateMutability": "pure"
    },
    {
      "type": "function",
      "name": "floor",
      "inputs": [
        {
          "name": "a",
          "type": "bytes32",
          "internalType": "Float"
        }
      ],
      "outputs": [
        {
          "name": "",
          "type": "bytes32",
          "internalType": "Float"
        }
      ],
      "stateMutability": "pure"
    },
    {
      "type": "function",
      "name": "format",
      "inputs": [
        {
          "name": "a",
          "type": "bytes32",
          "internalType": "Float"
        },
        {
          "name": "scientific",
          "type": "bool",
          "internalType": "bool"
        }
      ],
      "outputs": [
        {
          "name": "",
          "type": "string",
          "internalType": "string"
        }
      ],
      "stateMutability": "pure"
    },
    {
      "type": "function",
      "name": "format",
      "inputs": [
        {
          "name": "a",
          "type": "bytes32",
          "internalType": "Float"
        }
      ],
      "outputs": [
        {
          "name": "",
          "type": "string",
          "internalType": "string"
        }
      ],
      "stateMutability": "pure"
    },
    {
      "type": "function",
      "name": "format",
      "inputs": [
        {
          "name": "a",
          "type": "bytes32",
          "internalType": "Float"
        },
        {
          "name": "scientificMin",
          "type": "bytes32",
          "internalType": "Float"
        },
        {
          "name": "scientificMax",
          "type": "bytes32",
          "internalType": "Float"
        }
      ],
      "outputs": [
        {
          "name": "",
          "type": "string",
          "internalType": "string"
        }
      ],
      "stateMutability": "pure"
    },
    {
      "type": "function",
      "name": "frac",
      "inputs": [
        {
          "name": "a",
          "type": "bytes32",
          "internalType": "Float"
        }
      ],
      "outputs": [
        {
          "name": "",
          "type": "bytes32",
          "internalType": "Float"
        }
      ],
      "stateMutability": "pure"
    },
    {
      "type": "function",
      "name": "fromFixedDecimalLossless",
      "inputs": [
        {
          "name": "value",
          "type": "uint256",
          "internalType": "uint256"
        },
        {
          "name": "decimals",
          "type": "uint8",
          "internalType": "uint8"
        }
      ],
      "outputs": [
        {
          "name": "",
          "type": "bytes32",
          "internalType": "Float"
        }
      ],
      "stateMutability": "pure"
    },
    {
      "type": "function",
      "name": "fromFixedDecimalLossy",
      "inputs": [
        {
          "name": "value",
          "type": "uint256",
          "internalType": "uint256"
        },
        {
          "name": "decimals",
          "type": "uint8",
          "internalType": "uint8"
        }
      ],
      "outputs": [
        {
          "name": "",
          "type": "bytes32",
          "internalType": "Float"
        },
        {
          "name": "",
          "type": "bool",
          "internalType": "bool"
        }
      ],
      "stateMutability": "pure"
    },
    {
      "type": "function",
      "name": "gt",
      "inputs": [
        {
          "name": "a",
          "type": "bytes32",
          "internalType": "Float"
        },
        {
          "name": "b",
          "type": "bytes32",
          "internalType": "Float"
        }
      ],
      "outputs": [
        {
          "name": "",
          "type": "bool",
          "internalType": "bool"
        }
      ],
      "stateMutability": "pure"
    },
    {
      "type": "function",
      "name": "gte",
      "inputs": [
        {
          "name": "a",
          "type": "bytes32",
          "internalType": "Float"
        },
        {
          "name": "b",
          "type": "bytes32",
          "internalType": "Float"
        }
      ],
      "outputs": [
        {
          "name": "",
          "type": "bool",
          "internalType": "bool"
        }
      ],
      "stateMutability": "pure"
    },
    {
      "type": "function",
      "name": "integer",
      "inputs": [
        {
          "name": "a",
          "type": "bytes32",
          "internalType": "Float"
        }
      ],
      "outputs": [
        {
          "name": "",
          "type": "bytes32",
          "internalType": "Float"
        }
      ],
      "stateMutability": "pure"
    },
    {
      "type": "function",
      "name": "inv",
      "inputs": [
        {
          "name": "a",
          "type": "bytes32",
          "internalType": "Float"
        }
      ],
      "outputs": [
        {
          "name": "",
          "type": "bytes32",
          "internalType": "Float"
        }
      ],
      "stateMutability": "pure"
    },
    {
      "type": "function",
      "name": "isZero",
      "inputs": [
        {
          "name": "a",
          "type": "bytes32",
          "internalType": "Float"
        }
      ],
      "outputs": [
        {
          "name": "",
          "type": "bool",
          "internalType": "bool"
        }
      ],
      "stateMutability": "pure"
    },
    {
      "type": "function",
      "name": "log10",
      "inputs": [
        {
          "name": "a",
          "type": "bytes32",
          "internalType": "Float"
        }
      ],
      "outputs": [
        {
          "name": "",
          "type": "bytes32",
          "internalType": "Float"
        }
      ],
      "stateMutability": "view"
    },
    {
      "type": "function",
      "name": "lt",
      "inputs": [
        {
          "name": "a",
          "type": "bytes32",
          "internalType": "Float"
        },
        {
          "name": "b",
          "type": "bytes32",
          "internalType": "Float"
        }
      ],
      "outputs": [
        {
          "name": "",
          "type": "bool",
          "internalType": "bool"
        }
      ],
      "stateMutability": "pure"
    },
    {
      "type": "function",
      "name": "lte",
      "inputs": [
        {
          "name": "a",
          "type": "bytes32",
          "internalType": "Float"
        },
        {
          "name": "b",
          "type": "bytes32",
          "internalType": "Float"
        }
      ],
      "outputs": [
        {
          "name": "",
          "type": "bool",
          "internalType": "bool"
        }
      ],
      "stateMutability": "pure"
    },
    {
      "type": "function",
      "name": "max",
      "inputs": [
        {
          "name": "a",
          "type": "bytes32",
          "internalType": "Float"
        },
        {
          "name": "b",
          "type": "bytes32",
          "internalType": "Float"
        }
      ],
      "outputs": [
        {
          "name": "",
          "type": "bytes32",
          "internalType": "Float"
        }
      ],
      "stateMutability": "pure"
    },
    {
      "type": "function",
      "name": "maxNegativeValue",
      "inputs": [],
      "outputs": [
        {
          "name": "",
          "type": "bytes32",
          "internalType": "Float"
        }
      ],
      "stateMutability": "pure"
    },
    {
      "type": "function",
      "name": "maxPositiveValue",
      "inputs": [],
      "outputs": [
        {
          "name": "",
          "type": "bytes32",
          "internalType": "Float"
        }
      ],
      "stateMutability": "pure"
    },
    {
      "type": "function",
      "name": "min",
      "inputs": [
        {
          "name": "a",
          "type": "bytes32",
          "internalType": "Float"
        },
        {
          "name": "b",
          "type": "bytes32",
          "internalType": "Float"
        }
      ],
      "outputs": [
        {
          "name": "",
          "type": "bytes32",
          "internalType": "Float"
        }
      ],
      "stateMutability": "pure"
    },
    {
      "type": "function",
      "name": "minNegativeValue",
      "inputs": [],
      "outputs": [
        {
          "name": "",
          "type": "bytes32",
          "internalType": "Float"
        }
      ],
      "stateMutability": "pure"
    },
    {
      "type": "function",
      "name": "minPositiveValue",
      "inputs": [],
      "outputs": [
        {
          "name": "",
          "type": "bytes32",
          "internalType": "Float"
        }
      ],
      "stateMutability": "pure"
    },
    {
      "type": "function",
      "name": "minus",
      "inputs": [
        {
          "name": "a",
          "type": "bytes32",
          "internalType": "Float"
        }
      ],
      "outputs": [
        {
          "name": "",
          "type": "bytes32",
          "internalType": "Float"
        }
      ],
      "stateMutability": "pure"
    },
    {
      "type": "function",
      "name": "mul",
      "inputs": [
        {
          "name": "a",
          "type": "bytes32",
          "internalType": "Float"
        },
        {
          "name": "b",
          "type": "bytes32",
          "internalType": "Float"
        }
      ],
      "outputs": [
        {
          "name": "",
          "type": "bytes32",
          "internalType": "Float"
        }
      ],
      "stateMutability": "pure"
    },
    {
      "type": "function",
      "name": "parse",
      "inputs": [
        {
          "name": "str",
          "type": "string",
          "internalType": "string"
        }
      ],
      "outputs": [
        {
          "name": "",
          "type": "bytes4",
          "internalType": "bytes4"
        },
        {
          "name": "",
          "type": "bytes32",
          "internalType": "Float"
        }
      ],
      "stateMutability": "pure"
    },
    {
      "type": "function",
      "name": "pow",
      "inputs": [
        {
          "name": "a",
          "type": "bytes32",
          "internalType": "Float"
        },
        {
          "name": "b",
          "type": "bytes32",
          "internalType": "Float"
        }
      ],
      "outputs": [
        {
          "name": "",
          "type": "bytes32",
          "internalType": "Float"
        }
      ],
      "stateMutability": "view"
    },
    {
      "type": "function",
      "name": "pow10",
      "inputs": [
        {
          "name": "a",
          "type": "bytes32",
          "internalType": "Float"
        }
      ],
      "outputs": [
        {
          "name": "",
          "type": "bytes32",
          "internalType": "Float"
        }
      ],
      "stateMutability": "view"
    },
    {
      "type": "function",
      "name": "sqrt",
      "inputs": [
        {
          "name": "a",
          "type": "bytes32",
          "internalType": "Float"
        }
      ],
      "outputs": [
        {
          "name": "",
          "type": "bytes32",
          "internalType": "Float"
        }
      ],
      "stateMutability": "view"
    },
    {
      "type": "function",
      "name": "sub",
      "inputs": [
        {
          "name": "a",
          "type": "bytes32",
          "internalType": "Float"
        },
        {
          "name": "b",
          "type": "bytes32",
          "internalType": "Float"
        }
      ],
      "outputs": [
        {
          "name": "",
          "type": "bytes32",
          "internalType": "Float"
        }
      ],
      "stateMutability": "pure"
    },
    {
      "type": "function",
      "name": "toFixedDecimalLossless",
      "inputs": [
        {
          "name": "float",
          "type": "bytes32",
          "internalType": "Float"
        },
        {
          "name": "decimals",
          "type": "uint8",
          "internalType": "uint8"
        }
      ],
      "outputs": [
        {
          "name": "",
          "type": "uint256",
          "internalType": "uint256"
        }
      ],
      "stateMutability": "pure"
    },
    {
      "type": "function",
      "name": "toFixedDecimalLossy",
      "inputs": [
        {
          "name": "float",
          "type": "bytes32",
          "internalType": "Float"
        },
        {
          "name": "decimals",
          "type": "uint8",
          "internalType": "uint8"
        }
      ],
      "outputs": [
        {
          "name": "",
          "type": "uint256",
          "internalType": "uint256"
        },
        {
          "name": "",
          "type": "bool",
          "internalType": "bool"
        }
      ],
      "stateMutability": "pure"
    },
    {
      "type": "function",
      "name": "zero",
      "inputs": [],
      "outputs": [
        {
          "name": "",
          "type": "bytes32",
          "internalType": "Float"
        }
      ],
      "stateMutability": "pure"
    },
    {
      "type": "error",
      "name": "CoefficientOverflow",
      "inputs": [
        {
          "name": "signedCoefficient",
          "type": "int256",
          "internalType": "int256"
        },
        {
          "name": "exponent",
          "type": "int256",
          "internalType": "int256"
        }
      ]
    },
    {
      "type": "error",
      "name": "DivisionByZero",
      "inputs": [
        {
          "name": "signedCoefficient",
          "type": "int256",
          "internalType": "int256"
        },
        {
          "name": "exponent",
          "type": "int256",
          "internalType": "int256"
        }
      ]
    },
    {
      "type": "error",
      "name": "ExponentOverflow",
      "inputs": [
        {
          "name": "signedCoefficient",
          "type": "int256",
          "internalType": "int256"
        },
        {
          "name": "exponent",
          "type": "int256",
          "internalType": "int256"
        }
      ]
    },
    {
      "type": "error",
      "name": "ExponentUnderflow",
      "inputs": [
        {
          "name": "signedCoefficient",
          "type": "int256",
          "internalType": "int256"
        },
        {
          "name": "exponent",
          "type": "int256",
          "internalType": "int256"
        }
      ]
    },
    {
      "type": "error",
      "name": "FixedDecimalOverflow",
      "inputs": [
        {
          "name": "signedCoefficient",
          "type": "int256",
          "internalType": "int256"
        },
        {
          "name": "exponent",
          "type": "int256",
          "internalType": "int256"
        },
        {
          "name": "decimals",
          "type": "uint8",
          "internalType": "uint8"
        }
      ]
    },
    {
      "type": "error",
      "name": "Log10Negative",
      "inputs": [
        {
          "name": "signedCoefficient",
          "type": "int256",
          "internalType": "int256"
        },
        {
          "name": "exponent",
          "type": "int256",
          "internalType": "int256"
        }
      ]
    },
    {
      "type": "error",
      "name": "Log10Zero",
      "inputs": []
    },
    {
      "type": "error",
      "name": "LogTablesNotDeployed",
      "inputs": [
        {
          "name": "tablesAddress",
          "type": "address",
          "internalType": "address"
        },
        {
          "name": "expectedCodehash",
          "type": "bytes32",
          "internalType": "bytes32"
        },
        {
          "name": "actualCodehash",
          "type": "bytes32",
          "internalType": "bytes32"
        }
      ]
    },
    {
      "type": "error",
      "name": "LossyConversionFromFloat",
      "inputs": [
        {
          "name": "signedCoefficient",
          "type": "int256",
          "internalType": "int256"
        },
        {
          "name": "exponent",
          "type": "int256",
          "internalType": "int256"
        }
      ]
    },
    {
      "type": "error",
      "name": "LossyConversionToFloat",
      "inputs": [
        {
          "name": "signedCoefficient",
          "type": "int256",
          "internalType": "int256"
        },
        {
          "name": "exponent",
          "type": "int256",
          "internalType": "int256"
        }
      ]
    },
    {
      "type": "error",
      "name": "MaximizeOverflow",
      "inputs": [
        {
          "name": "signedCoefficient",
          "type": "int256",
          "internalType": "int256"
        },
        {
          "name": "exponent",
          "type": "int256",
          "internalType": "int256"
        }
      ]
    },
    {
      "type": "error",
      "name": "MulDivOverflow",
      "inputs": [
        {
          "name": "x",
          "type": "uint256",
          "internalType": "uint256"
        },
        {
          "name": "y",
          "type": "uint256",
          "internalType": "uint256"
        },
        {
          "name": "denominator",
          "type": "uint256",
          "internalType": "uint256"
        }
      ]
    },
    {
      "type": "error",
      "name": "NegativeFixedDecimalConversion",
      "inputs": [
        {
          "name": "signedCoefficient",
          "type": "int256",
          "internalType": "int256"
        },
        {
          "name": "exponent",
          "type": "int256",
          "internalType": "int256"
        }
      ]
    },
    {
      "type": "error",
      "name": "PowNegativeBase",
      "inputs": [
        {
          "name": "signedCoefficient",
          "type": "int256",
          "internalType": "int256"
        },
        {
          "name": "exponent",
          "type": "int256",
          "internalType": "int256"
        }
      ]
    },
    {
      "type": "error",
      "name": "ScientificMinNotLessThanMax",
      "inputs": [
        {
          "name": "scientificMin",
          "type": "bytes32",
          "internalType": "Float"
        },
        {
          "name": "scientificMax",
          "type": "bytes32",
          "internalType": "Float"
        }
      ]
    },
    {
      "type": "error",
      "name": "UnformatableExponent",
      "inputs": [
        {
          "name": "exponent",
          "type": "int256",
          "internalType": "int256"
        }
      ]
    },
    {
      "type": "error",
      "name": "WithTargetExponentOverflow",
      "inputs": [
        {
          "name": "signedCoefficient",
          "type": "int256",
          "internalType": "int256"
        },
        {
          "name": "exponent",
          "type": "int256",
          "internalType": "int256"
        },
        {
          "name": "targetExponent",
          "type": "int256",
          "internalType": "int256"
        }
      ]
    },
    {
      "type": "error",
      "name": "ZeroNegativePower",
      "inputs": [
        {
          "name": "b",
          "type": "bytes32",
          "internalType": "Float"
        }
      ]
    },
    {
      "type": "error",
      "name": "ZeroStringStartPointer",
      "inputs": []
    }
  ],
  "bytecode": {
    "object": "0x6080604052348015600e575f80fd5b5060156019565b60b8565b73c51a14251b0dcf0ae24a96b7153991378938f5f53f7f2573004ac3a9ee7fc8d73654d76386f1b6b99e34cdf86a689c4691e47143420f811460b557604051630912d0ff60e31b815273c51a14251b0dcf0ae24a96b7153991378938f5f560048201527f2573004ac3a9ee7fc8d73654d76386f1b6b99e34cdf86a689c4691e47143420f60248201526044810182905260640160405180910390fd5b50565b614d8c806100c55f395ff3fe608060405234801561000f575f80fd5b50600436106102b7575f3560e01c80638dc2980711610171578063cde72ef3116100d2578063dd64691711610088578063e5526ecd1161006e578063e5526ecd1461065b578063e75f991f1461066e578063ffae15ba14610681575f80fd5b8063dd64691714610635578063e0db588814610648575f80fd5b8063d1de592a116100b8578063d1de592a146105e8578063d35273a7146105fb578063d3d6ffa814610622575f80fd5b8063cde72ef3146105af578063d102b4d3146105d5575f80fd5b8063a90d041a11610127578063bc1b392d1161010d578063bc1b392d14610538578063bc62d8d81461053e578063cb09682b14610589575f80fd5b8063a90d041a14610512578063ac344ead14610525575f80fd5b80639b4afd99116101575780639b4afd99146104b5578063a100a3d9146104d9578063a19684b7146104ec575f80fd5b80638dc298071461048f57806396ce1ec7146104a2575f80fd5b8063371493ce1161021b578063602c35fc116101d157806373bfb283116101b757806373bfb2831461045657806381a822721461046957806381f7e2f51461047c575f80fd5b8063602c35fc1461041d578063719cd99d14610443575f80fd5b806341aa00801161020157806341aa0080146103e45780635b23771d146103f75780635ca0e7a41461040a575f80fd5b8063371493ce146103b15780633b3bd868146103d1575f80fd5b806325388350116102705780633004fa41116102565780633004fa4114610368578063302974001461037b5780633447c0301461038e575f80fd5b8063253883501461034257806328fa1f0114610355575f80fd5b80630b6429bc116102a05780630b6429bc146102f4578063146e82ad1461031c5780631ee62f111461032f575f80fd5b806304327dc5146102bb578063078b665b146102e1575b5f80fd5b6102ce6102c9366004614716565b6106a7565b6040519081526020015b60405180910390f35b6102ce6102ef36600461472d565b6106b7565b61030761030236600461475d565b6106c9565b604080519283529015156020830152016102d8565b6102ce61032a366004614716565b6106e1565b6102ce61033d366004614716565b610700565b6102ce610350366004614716565b61071f565b6102ce610363366004614716565b61073e565b6102ce61037636600461472d565b610748565b6102ce61038936600461472d565b610768565b6103a161039c36600461472d565b610773565b60405190151581526020016102d8565b6103c46103bf366004614787565b61077e565b6040516102d891906147b9565b6102ce6103df36600461475d565b61078a565b6102ce6103f236600461472d565b610795565b6102ce61040536600461475d565b6107a0565b6102ce610418366004614716565b6107ab565b7f80000000ffffffffffffffffffffffffffffffffffffffffffffffffffffffff6102ce565b6102ce610451366004614716565b6107b5565b6103a161046436600461472d565b6107bf565b6102ce610477366004614716565b6107ca565b6103a161048a36600461472d565b6107d4565b6103a161049d36600461472d565b6107df565b6102ce6104b036600461472d565b6107ea565b6102ce7c090000000000000000000000000000000000000000000000000000000181565b6103c46104e7366004614716565b6107f5565b7f80000000000000000000000000000000000000000000000000000000000000016102ce565b6102ce61052036600461472d565b61083f565b6102ce610533366004614716565b61084a565b5f6102ce565b61055161054c366004614839565b610854565b604080517fffffffff0000000000000000000000000000000000000000000000000000000090931683526020830191909152016102d8565b7f7fffffff7fffffffffffffffffffffffffffffffffffffffffffffffffffffff6102ce565b7f7fffffff800000000000000000000000000000000000000000000000000000006102ce565b6103a16105e336600461472d565b61086d565b6102ce6105f636600461472d565b610878565b6102ce7ffffffffc0000000000000000000000000000000000000000000000000000000181565b6102ce610630366004614716565b610883565b6103a1610643366004614716565b61088d565b6102ce610656366004614716565b6108b3565b6103c4610669366004614902565b6108bd565b61030761067c36600461475d565b610946565b7fffffffbe19cfc6ef4f44cf88f14500d013df534fcaad48fca1d5ca47bea26fcc6102ce565b5f6106b182610952565b92915050565b5f6106c28383610994565b9392505050565b5f806106d584846109b0565b915091505b9250929050565b5f6106b18273c51a14251b0dcf0ae24a96b7153991378938f5f56109f1565b5f6106b18273c51a14251b0dcf0ae24a96b7153991378938f5f5610a1d565b5f6106b18273c51a14251b0dcf0ae24a96b7153991378938f5f5610a6a565b5f6106b182610a9d565b5f6106c2838373c51a14251b0dcf0ae24a96b7153991378938f5f5610ade565b5f6106c28383610d38565b5f6106c28383610d9a565b60606106c28383610de8565b5f6106c28383610e7b565b5f6106c28383610e96565b5f6106c28383610edb565b5f6106b182610f0e565b5f6106b182610fc4565b5f6106c28383611070565b5f6106b1826110c0565b5f6106c28383611105565b5f6106c28383611155565b5f6106c283836111a4565b60606106b1827ffffffffc000000000000000000000000000000000000000000000000000000017c09000000000000000000000000000000000000000000000000000000016108bd565b5f6106c283836111e9565b5f6106b1826111f4565b5f805f80610861856112a4565b90969095509350505050565b5f6106c28383611392565b5f6106c283836113e1565b5f6106b182611426565b5f7bffffffffffffffffffffffffffffffffffffffffffffffffffffffff8216156106b1565b5f6106b182611458565b60606108c98383611392565b61090e576040517f3be5bf9400000000000000000000000000000000000000000000000000000000815260048101849052602481018390526044015b60405180910390fd5b5f610918856110c0565b905061093d856109288387611392565b8061093857506109388386611155565b610de8565b95945050505050565b5f806106d58484611499565b5f7bffffffffffffffffffffffffffffffffffffffffffffffffffffffff8216601b0b60e083901d61098482826114d9565b90925090505f61093d8383611527565b5f61099f8383611155565b6109a957816106c2565b5090919050565b5f807bffffffffffffffffffffffffffffffffffffffffffffffffffffffff8416601b0b60e085901d6109e482828761158d565b9350935050509250929050565b5f6106c2837fffffffff0000000000000000000000000000000000000000000000000000000584610ade565b5f7bffffffffffffffffffffffffffffffffffffffffffffffffffffffff8316601b0b60e084901d610a50848383611797565b90925090505f610a608383611527565b9695505050505050565b5f7bffffffffffffffffffffffffffffffffffffffffffffffffffffffff8316601b0b60e084901d610a50848383611908565b5f7bffffffffffffffffffffffffffffffffffffffffffffffffffffffff8216601b0b60e083901d82610ad08383611c3d565b9150505f610a608284611527565b5f7bffffffffffffffffffffffffffffffffffffffffffffffffffffffff848116601b0b9060e086901d908516610b1b5750600191506106c29050565b5f8213610bb457815f03610b7857610b33855f611392565b15610b6d576040517f8be8297200000000000000000000000000000000000000000000000000000000815260048101869052602401610905565b505f91506106c29050565b6040517fcceba0f10000000000000000000000000000000000000000000000000000000081526004810183905260248101829052604401610905565b610bbf856001610d9a565b8015610bd05750610bd0865f611155565b15610bdf5785925050506106c2565b610be9855f611392565b15610c1257610c09610bfa87610952565b610c0387611426565b86610ade565b925050506106c2565b7bffffffffffffffffffffffffffffffffffffffffffffffffffffffff8516601b0b60e086901d5f80610c458484611c3d565b915091505f610c5583855f611ca5565b905060015f8080610c8c8f7bffffffffffffffffffffffffffffffffffffffffffffffffffffffff8116601b0b9160e09190911d90565b915091505b60018510610cd35784600116600103610cb657610cb084848484611dbc565b90945092505b600185901c9450610cc982828484611dbc565b9092509050610c91565b5f80610ce08f8e8e611908565b91509150610cf082828a8d611dbc565b9092509050610d008f8383611797565b9092509050610d1182828888611dbc565b90925090505f610d218383611527565b9e5050505050505050505050505050509392505050565b5f7bffffffffffffffffffffffffffffffffffffffffffffffffffffffff838116601b90810b9160e086811d9291861690910b9085901d8480610d7d86868686611edb565b915091505f610d8c8383611527565b9a9950505050505050505050565b5f7bffffffffffffffffffffffffffffffffffffffffffffffffffffffff838116601b90810b9160e086811d9291861690910b9085901d610ddd848484846124ff565b979650505050505050565b60607bffffffffffffffffffffffffffffffffffffffffffffffffffffffff8316601b0b60e084901d5f829003610e58576040518060400160405280600181526020017f3000000000000000000000000000000000000000000000000000000000000000815250925050506106b1565b8315610e7157610e688282612516565b925050506106b1565b61093d82826127e6565b5f805f610e888585612f4d565b9150915061093d8282612faf565b5f7bffffffffffffffffffffffffffffffffffffffffffffffffffffffff838116601b90810b9160e086811d9291861690910b9085901d8480610d7d86868686613001565b5f7bffffffffffffffffffffffffffffffffffffffffffffffffffffffff8316601b0b60e084901d61093d82828661302b565b5f7bffffffffffffffffffffffffffffffffffffffffffffffffffffffff8216601b0b60e083901d828112610f4557509192915050565b5f80610f518484611c3d565b915091505f84128015610f6357508015155b15610fb957610fb482847f161bcca7119915b50764b4abe86529797775a5f17195100000000000000000007fffffffffffffffffffffffffffffffffffffffffffffffffffffffffffffffb4613001565b935091505b5f610ddd8385611527565b5f7bffffffffffffffffffffffffffffffffffffffffffffffffffffffff8216601b0b60e083901d828112610ffb57509192915050565b5f806110078484611c3d565b91509150805f0361101c575093949350505050565b5f811315610fb957610fb482847f161bcca7119915b50764b4abe86529797775a5f17195100000000000000000007fffffffffffffffffffffffffffffffffffffffffffffffffffffffffffffffb4613087565b5f7bffffffffffffffffffffffffffffffffffffffffffffffffffffffff838116601b90810b9160e086811d9291861690910b9085901d6110b3848484846131b7565b1315979650505050505050565b5f7bffffffffffffffffffffffffffffffffffffffffffffffffffffffff8216601b0b60e083901d828212156110fa57610984828261328b565b5f61093d8383611527565b5f7bffffffffffffffffffffffffffffffffffffffffffffffffffffffff838116601b90810b9160e086811d9291861690910b9085901d611148848484846131b7565b1215979650505050505050565b5f7bffffffffffffffffffffffffffffffffffffffffffffffffffffffff838116601b90810b9160e086811d9291861690910b9085901d611198848484846131b7565b12979650505050505050565b5f7bffffffffffffffffffffffffffffffffffffffffffffffffffffffff838116601b90810b9160e086811d9291861690910b9085901d8480610d7d86868686611dbc565b5f61099f8383611392565b5f7bffffffffffffffffffffffffffffffffffffffffffffffffffffffff8216601b0b60e083901d81830361122c57505f9392505050565b7fffffffffffffffffffffffffffffffffffffffffffffffffffffffff8000000081131561129257600a8202601b81900b81146112695750611292565b91507fffffffffffffffffffffffffffffffffffffffffffffffffffffffffffffffff0161122c565b61129c8282612faf565b949350505050565b80515f908190602084810191850101828080806112c1868661332e565b929650909450925090507fffffffff0000000000000000000000000000000000000000000000000000000084165f0361138357848303611353575f8061130784846137cd565b915091508061134257507f32b8b8be000000000000000000000000000000000000000000000000000000009a5f9a5098505050505050505050565b505f9a909950975050505050505050565b507fad384e8700000000000000000000000000000000000000000000000000000000985f98509650505050505050565b5091975f975095505050505050565b5f7bffffffffffffffffffffffffffffffffffffffffffffffffffffffff838116601b90810b9160e086811d9291861690910b9085901d6113d5848484846131b7565b13979650505050505050565b5f7bffffffffffffffffffffffffffffffffffffffffffffffffffffffff838116601b90810b9160e086811d9291861690910b9085901d8480610d7d86868686613087565b5f7bffffffffffffffffffffffffffffffffffffffffffffffffffffffff8216601b0b60e083901d610984828261328b565b5f7bffffffffffffffffffffffffffffffffffffffffffffffffffffffff8216601b0b60e083901d8261148b8383611c3d565b5090505f610a608284611527565b5f805f805f6114a887876138d3565b9250925092505f806114ba85856137cd565b91509150818380156114c95750815b9650965050505050509250929050565b5f806106d57f161bcca7119915b50764b4abe86529797775a5f17195100000000000000000007fffffffffffffffffffffffffffffffffffffffffffffffffffffffffffffffb48686611edb565b5f805f61153485856137cd565b9150915080158015611544575081155b15611585576040517f8eba4d070000000000000000000000000000000000000000000000000000000081526004810186905260248101859052604401610905565b509392505050565b5f805f8512156115d3576040517f4a7d166b0000000000000000000000000000000000000000000000000000000081526004810186905260248101859052604401610905565b845f036115e557505f9050600161178f565b8460ff8416850185811215611630576040517fd556b1110000000000000000000000000000000000000000000000000000000081526004810188905260248101879052604401610905565b5f805f83121561169a577fffffffffffffffffffffffffffffffffffffffffffffffffffffffffffffffb3831215611671575f80955095505050505061178f565b825f03600a0a91508184816116885761168861492b565b049550508402909114915061178f9050565b5f83131561178457604d8313156116f0576040517fc849483b000000000000000000000000000000000000000000000000000000008152600481018a90526024810189905260ff88166044820152606401610905565b82600a0a9150817fffffffffffffffffffffffffffffffffffffffffffffffffffffffffffffffff816117255761172561492b565b04841115611772576040517fc849483b000000000000000000000000000000000000000000000000000000008152600481018a90526024810189905260ff88166044820152606401610905565b509190910292506001915061178f9050565b509193506001925050505b935093915050565b5f805f8412156117d3576117ab848461328b565b90945092506117bb858585611797565b90945092506117ca84846114d9565b9150915061178f565b5f806117df8686611c3d565b9092509050845f80806117f2858561392f565b9194509250905061270d61271061180a600182614985565b85146118215761181b8d8686613a1e565b90925090505b83156118ac575f6118338660016149ab565b90505b8084858302816118485761184861492b565b051461185f57600a84059350600a88059750611836565b6118a061186c85886149d2565b8961187787856149d2565b8f87877ffffffffffffffffffffffffffffffffffffffffffffffffffffffffffffffffc613ad7565b909d509b506118d39050565b819b507ffffffffffffffffffffffffffffffffffffffffffffffffffffffffffffffffc9a505b5050505050866118e484835f611ca5565b6118ef8860016149ab565b6118f991906149ab565b94509450505050935093915050565b5f8083836119168282613b74565b90965094505f861361199757855f0361195b576040517f561fc7b500000000000000000000000000000000000000000000000000000000815260040160405180910390fd5b6040517f5d3fd4db0000000000000000000000000000000000000000000000000000000081526004810183905260248101829052604401610905565b5050837f161bcca7119915b50764b4abe86529797775a5f1719510000000000000000000036119d5576119cb83604c6149ab565b5f9150915061178f565b7f161bcca7119915b50764b4abe86529797775a5f171951000000000000000000084121580611a24577fffffffffffffffffffffffffffffffffffffffffffffffffffffffffffffffb5611a46565b7fffffffffffffffffffffffffffffffffffffffffffffffffffffffffffffffb45b5f0b8412611c01575f805f805f85611a5f57604b611a62565b604c5b611a6c908a6149ab565b90505f8087611a99577d90e40fbeea1d3a4abc8955e946fe31cdcf66f634e1000000000000000000611aba565b7e05a8e89d75252446eb5d5d5b1cc5edf20a1a059e10ca0000000000000000005b7effffffffffffffffffffffffffffffffffffffffffffffffffffffffffffff169050808c81611aec57611aec61492b565b05818102955090850193507ffffffffffffffffffffffffffffffffffffffffffffffffffffffffffffffc18019050611b258c82613bca565b7d90e40fbeea1d3a4abc8955e946fe31cdcf66f634e10000000000000000000295508594508a8414611bb1576123278114611b8c57611b678c82600101613bca565b7d90e40fbeea1d3a4abc8955e946fe31cdcf66f634e100000000000000000002611bae565b7f161bcca7119915b50764b4abe86529797775a5f17195100000000000000000005b94505b50611be1838b848c89897fffffffffffffffffffffffffffffffffffffffffffffffffffffffffffffffb4613ad7565b909a509850611bf28a8a835f613087565b9750975050505050505061178f565b611c0b85856114d9565b9095509350611c1b868686611908565b9095509350611c2a858561328b565b925092505061178f565b50935093915050565b5f805f8312611c5057508290505f6106da565b7fffffffffffffffffffffffffffffffffffffffffffffffffffffffffffffffb4831215611c8257505f9050826106da565b5f839003600a0a808581611c9857611c9861492b565b0794859003959350505050565b5f818303611cb45750826106c2565b82821315611cf757828203604c811380611cce57505f8113155b15611cdc575f9150506106c2565b80600a0a8581611cee57611cee61492b565b059150506106c2565b818303604c811380611d0957505f8113155b15611d51576040517f1d5d6d10000000000000000000000000000000000000000000000000000000008152600481018690526024810185905260448101849052606401610905565b600a81900a85810286828281611d6957611d6961492b565b0514611db2576040517f1d5d6d10000000000000000000000000000000000000000000000000000000008152600481018890526024810187905260448101869052606401610905565b92506106c2915050565b5f8085158415178015611dd4575f92505f9150611ed1565b611dde84876149ab565b91505f611dea88613c51565b90505f611df687613c51565b90505f611e038383613cb7565b5090505f6f0785ee10d5da46d900f436a000000000821115611e38576f0785ee10d5da46d900f436a000000000820491506025015b670de0b6b3a7640000821115611e5957670de0b6b3a7640000820491506012015b633b9aca00821115611e7257633b9aca00820491506009015b612710821115611e8757612710820491506004015b8115611e9b57600a82049150600101611e87565b611ea581876149ab565b9550611ec78b8a611ec18787611ebc87600a614b3b565b613cf2565b89613dd7565b9097509550505050505b5094509492505050565b5f80835f03611f20576040517f7a97930f0000000000000000000000000000000000000000000000000000000081526004810187905260248101869052604401610905565b855f03611f3157505f9050806124f6565b5f805f80611f3f8a8a613ede565b919b5099509150611f508888613ede565b919950975090505f611f618b613c51565b90505f611f6d8a613c51565b90507f161bcca7119915b50764b4abe86529797775a5f1719510000000000000000000604c8183101561238a578415611fcb57507f0235fadd81c2822bb3f07877973d50f28bf22a31be8ee80000000000000000009050604b612349565b6f4b3b4ca85a86c47a098a2240000000008310156120f757678ac7230489e8000083101561205b576402540be40083101561202957620186a08310156120195750620186a0905060056122d2565b506402540be4009050600a6122d2565b655af3107a40008310156120485750655af3107a40009050600e6122d2565b50678ac7230489e80000905060136122d2565b6b204fce5e3e250261100000008310156120ad5769152d02c7e14af6800000831015612096575069152d02c7e14af6800000905060176122d2565b506b204fce5e3e250261100000009050601c6122d2565b6d314dc6448d9338c15b0a000000008310156120dc57506d314dc6448d9338c15b0a00000000905060216122d2565b506f4b3b4ca85a86c47a098a224000000000905060266122d2565b780197d4df19d605767337e9f14d3eec8920e4000000000000008310156121ef5773af298d050e4395d69670b12b7f4100000000000083101561218a577172cb5bd86321e38cb6ce6682e8000000000083101561216b57507172cb5bd86321e38cb6ce6682e800000000009050602b6122d2565b5073af298d050e4395d69670b12b7f41000000000000905060306122d2565b76010b46c6cdd6e3e0828f4db456ff0c8ea00000000000008310156121cb575076010b46c6cdd6e3e0828f4db456ff0c8ea0000000000000905060356122d2565b50780197d4df19d605767337e9f14d3eec8920e4000000000000009050603a6122d2565b7c03b58e88c75313ec9d329eaaa18fb92f75215b17100000000000000000831015612285577a026e4d30eccc3215dd8f3157d27e23acbdcfe6800000000000000083101561225d57507a026e4d30eccc3215dd8f3157d27e23acbdcfe680000000000000009050603f6122d2565b507c03b58e88c75313ec9d329eaaa18fb92f75215b17100000000000000000905060446122d2565b7e05a8e89d75252446eb5d5d5b1cc5edf20a1a059e10ca0000000000000000008310156122d257507e05a8e89d75252446eb5d5d5b1cc5edf20a1a059e10ca000000000000000000905060495b81831161230657600a820491507fffffffffffffffffffffffffffffffffffffffffffffffffffffffffffffffff016122d2565b815f03612349576040517f05e51ecb000000000000000000000000000000000000000000000000000000008152600481018d9052602481018c9052604401610905565b8561238a576040517f05e51ecb000000000000000000000000000000000000000000000000000000008152600481018f9052602481018e9052604401610905565b807f8000000000000000000000000000000000000000000000000000000000000000018d126123bd57808d039c50612430565b7f80000000000000000000000000000000000000000000000000000000000000009c90038c015f81131561243057807f7fffffffffffffffffffffffffffffffffffffffffffffffffffffffffffffff038b1361241d57998a0199612430565b5f809950995050505050505050506124f6565b5f808e12801561243f57505f8c135b1561247c577f80000000000000000000000000000000000000000000000000000000000000008e01808d13612474575f612478565b808d035b9150505b8b818f010397506124998f8e612493888789613cf2565b8b613dd7565b90995097505f8113156124e357604c8113156124c3575f809a509a505050505050505050506124f6565b80600a0a89816124d5576124d561492b565b059850885f036124e3575f97505b509698509496506124f695505050505050565b94509492505050565b5f61250c858585856131b7565b1495945050505050565b60606125228383613b74565b90935091505f806125537f161bcca7119915b50764b4abe86529797775a5f171951000000000000000000086614b46565b1561258357507f161bcca7119915b50764b4abe86529797775a5f17195100000000000000000009050604c6125aa565b507f0235fadd81c2822bb3f07877973d50f28bf22a31be8ee80000000000000000009050604b5b5f6125b58387614b46565b90505f6125c28488614bad565b90505f808312156125dc575060016125d983614bc0565b92505b5f8212156125f3575060016125f082614bc0565b91505b60408051602081019091525f815282156126fc575f80612614600a89614bf0565b90505b6126218186614b46565b5f0361264657612632600a82614bf0565b90508161263e81614c03565b925050612617565b60408051602081019091525f8082525b838110156126a7578160405160200161266f9190614c51565b604080517fffffffffffffffffffffffffffffffffffffffffffffffffffffffffffffffe08184030181529190529150600101612656565b505b6126b4600a87614bad565b5f036126cc576126c5600a87614b46565b95506126a9565b806126d68761417f565b6040516020016126e7929190614c89565b60405160208183030381529060405293505050505b5f6127068561417f565b90505f612713878b6149ab565b90505f8115612749576127258261417f565b6040516020016127359190614cc3565b604051602081830303815290604052612759565b60405180602001604052805f8152505b90505f856127755760405180602001604052805f8152506127ac565b6040518060400160405280600181526020017f2d000000000000000000000000000000000000000000000000000000000000008152505b9050808486846040516020016127c59493929190614cf4565b6040516020818303038152906040529a505050505050505050505092915050565b60606103e882138061280157506127fe6103e8614bc0565b82125b1561283b576040517fe44c72b000000000000000000000000000000000000000000000000000000000815260048101839052602401610905565b5f8084129081156128565761284f85614bc0565b9050612859565b50835b5f6128638261420b565b80519091505f5b81811080156128e657508281612881600185614d14565b61288b9190614d14565b8151811061289b5761289b614d27565b6020910101517fff00000000000000000000000000000000000000000000000000000000000000167f3000000000000000000000000000000000000000000000000000000000000000145b156128fd57806128f581614c03565b91505061286a565b5f6129088284614d14565b90505f612915838a6149ab565b90505f876129315760405180602001604052805f815250612968565b6040518060400160405280600181526020017f2d000000000000000000000000000000000000000000000000000000000000008152505b90505f8212612ae257815f61297d8286614d54565b67ffffffffffffffff8111156129955761299561480c565b6040519080825280601f01601f1916602001820160405280156129bf576020820181803683370190505b5090505f5b85811015612a31578881815181106129de576129de614d27565b602001015160f81c60f81b8282815181106129fb576129fb614d27565b60200101907effffffffffffffffffffffffffffffffffffffffffffffffffffffffffffff191690815f1a9053506001016129c4565b505f5b82811015612aae577f300000000000000000000000000000000000000000000000000000000000000082612a688389614d54565b81518110612a7857612a78614d27565b60200101907effffffffffffffffffffffffffffffffffffffffffffffffffffffffffffff191690815f1a905350600101612a34565b508281604051602001612ac2929190614d67565b6040516020818303038152906040529a50505050505050505050506106b1565b5f612aec83614bc0565b905080841115612d03575f612b018286614d14565b90505f612b0f866001614d54565b67ffffffffffffffff811115612b2757612b2761480c565b6040519080825280601f01601f191660200182016040528015612b51576020820181803683370190505b5090505f5b82811015612bc357898181518110612b7057612b70614d27565b602001015160f81c60f81b828281518110612b8d57612b8d614d27565b60200101907effffffffffffffffffffffffffffffffffffffffffffffffffffffffffffff191690815f1a905350600101612b56565b507f2e00000000000000000000000000000000000000000000000000000000000000818381518110612bf757612bf7614d27565b60200101907effffffffffffffffffffffffffffffffffffffffffffffffffffffffffffff191690815f1a9053505f5b83811015612cce5789612c3a8285614d54565b81518110612c4a57612c4a614d27565b01602001517fff00000000000000000000000000000000000000000000000000000000000000168282612c7e866001614d54565b612c889190614d54565b81518110612c9857612c98614d27565b60200101907effffffffffffffffffffffffffffffffffffffffffffffffffffffffffffff191690815f1a905350600101612c27565b508381604051602001612ce2929190614d67565b6040516020818303038152906040529b5050505050505050505050506106b1565b5f612d0e8583614d14565b90505f85612d1d836002614d54565b612d279190614d54565b67ffffffffffffffff811115612d3f57612d3f61480c565b6040519080825280601f01601f191660200182016040528015612d69576020820181803683370190505b5090507f3000000000000000000000000000000000000000000000000000000000000000815f81518110612d9f57612d9f614d27565b60200101907effffffffffffffffffffffffffffffffffffffffffffffffffffffffffffff191690815f1a9053507f2e0000000000000000000000000000000000000000000000000000000000000081600181518110612e0157612e01614d27565b60200101907effffffffffffffffffffffffffffffffffffffffffffffffffffffffffffff191690815f1a9053505f5b82811015612eac577f300000000000000000000000000000000000000000000000000000000000000082612e66836002614d54565b81518110612e7657612e76614d27565b60200101907effffffffffffffffffffffffffffffffffffffffffffffffffffffffffffff191690815f1a905350600101612e31565b505f5b86811015612cce57898181518110612ec957612ec9614d27565b01602001517fff00000000000000000000000000000000000000000000000000000000000000168282612efd866002614d54565b612f079190614d54565b81518110612f1757612f17614d27565b60200101907effffffffffffffffffffffffffffffffffffffffffffffffffffffffffffff191690815f1a905350600101612eaf565b5f805f805f612f5c87876138d3565b92509250925080612fa3576040517fc47179660000000000000000000000000000000000000000000000000000000081526004810184905260248101839052604401610905565b50909590945092505050565b5f805f612fbc85856137cd565b9150915080611585576040517f22c9f7bb0000000000000000000000000000000000000000000000000000000081526004810186905260248101859052604401610905565b5f8061300d848461328b565b909450925061301e86868686613087565b9150915094509492505050565b5f805f61303986868661158d565b915091508061307e576040517f05e476780000000000000000000000000000000000000000000000000000000081526004810187905260248101869052604401610905565b50949350505050565b5f80851584151780156130b357865f036130a757848492509250506124f6565b868692509250506124f6565b6130bd8787613b74565b90975095506130cc8585613b74565b9095509350858413156130e0579395929492935b838603604c8111156130f95787879350935050506124f6565b80600a0a868161310b5761310b61492b565b0595505086850180881860ff90811c151589881890911c151680156131a657877f7fffffffffffffffffffffffffffffffffffffffffffffffffffffffffffffff0361318d576040517fd556b111000000000000000000000000000000000000000000000000000000008152600481018a905260248101899052604401610905565b600a9687900596909805860197600197909701966131aa565b8198505b5096979596505050505050565b5f80851584151781871282861218178584141780156131dc57868592509250506124f6565b505f858413156131f0575092949193919260015b8386035f8112604c8213178015613223578215613215575f89945094505050506124f6565b885f945094505050506124f6565b600a82900a8981028a82828161323b5761323b61492b565b0514613267578415613257575f8b9650965050505050506124f6565b8a5f9650965050505050506124f6565b841561327c5788965094506124f69350505050565b95508794506124f69350505050565b5f807f80000000000000000000000000000000000000000000000000000000000000008403613324577f7fffffffffffffffffffffffffffffffffffffffffffffffffffffffffffffff8303613317576040517fd556b1110000000000000000000000000000000000000000000000000000000081526004810185905260248101849052604401610905565b600a840593508260010192505b50505f9190910391565b5f8281806133438386652000000000006142c7565b9250858314158361335d81886703ff0000000000006142c7565b945080850361339757507f34bd20690000000000000000000000000000000000000000000000000000000094505f92508291506137c49050565b5f806133a38a886142f0565b90925090507fffffffff000000000000000000000000000000000000000000000000000000008216156133e1575095505f93508392506137c4915050565b86519095506540000000000060015f9290921a9190911b16151588871016915050801561367057506001909301925f8461342481896703ff0000000000006142c7565b955080860361345f57507f7bfa48af0000000000000000000000000000000000000000000000000000000095505f93508392506137c4915050565b855b7fffffffffffffffffffffffffffffffffffffffffffffffffffffffffffffffff81018051908a1160015f9290921a9190911b6601000000000000161515166001036134ce577fffffffffffffffffffffffffffffffffffffffffffffffffffffffffffffffff01613461565b818114613525575f806134e184846142f0565b90925090507fffffffff00000000000000000000000000000000000000000000000000000000821615613521575097505f95508594506137c49350505050565b9350505b5f83121561356057507f7bfa48af0000000000000000000000000000000000000000000000000000000096505f94508493506137c492505050565b831561356c57825f0392505b80820394505f8513156135ac57507f013b2aaa0000000000000000000000000000000000000000000000000000000096505f94508493506137c492505050565b855f036135bb5782955061366d565b5f85900360438111156135fc57507f32b8b8be0000000000000000000000000000000000000000000000000000000097505f95508594506137c49350505050565b600a0a8681025f888383816136135761361361492b565b0514159050601b82900b82141581806136295750805b1561366557507f32b8b8be000000000000000000000000000000000000000000000000000000009a505f98508897506137c49650505050505050565b505084019650505b50505b84516c2000000020000000000000000060015f9290921a9190911b1615158786101680156137b557600190950194856136b0818a652000000000006142c7565b9650866136c6818b6703ff0000000000006142c7565b975080880361370357507f013b2aaa0000000000000000000000000000000000000000000000000000000097505f95508594506137c49350505050565b505f80613710838a6142f0565b90925090507fffffffff00000000000000000000000000000000000000000000000000000000821615613750575097505f95508594506137c49350505050565b9250508482015f8313801561376457508581125b8061377857505f8312801561377857508581135b156137b157507fd556b1110000000000000000000000000000000000000000000000000000000097505f95508594506137c49350505050565b9450505b845f036137c0575f93505b5050505b92959194509250565b5f601b83900b8314838382613831577d90e40fbeea1d3a4abc8955e946fe31cdcf66f634e100000000000000000086051561381157620186a0860595506005850194505b8586601b0b1461382c57600a86059550846001019450613811565b613847565b855f0361384757505f9250600191506106da9050565b848560030b146138a3575f85121561386757505f92508291506106da9050565b6040517fd556b1110000000000000000000000000000000000000000000000000000000081526004810183905260248101829052604401610905565b50507bffffffffffffffffffffffffffffffffffffffffffffffffffffffff841660e084901b1791509250929050565b5f808060ff841681037f7fffffffffffffffffffffffffffffffffffffffffffffffffffffffffffffff86111561391e57600a860460018201600a88065f1493509350935050613928565b8593509150600190505b9250925092565b5f805f837ffffffffffffffffffffffffffffffffffffffffffffffffffffffffffffffffc0361396757508391505f90506001613928565b7ffffffffffffffffffffffffffffffffffffffffffffffffffffffffffffffffc8412156139f5577fffffffffffffffffffffffffffffffffffffffffffffffffffffffffffffffb08412156139c657505f9150508215156001613928565b5f846004015f03600a0a90505f8187816139e2576139e261492b565b0594505080840286141592509050613928565b5f8412613a0a57505f91508190506001613928565b50505060048101600a0a82025f6001613928565b5f80806064613a30600a612328614bf0565b613a3d600a612328614bf0565b613a48906002614d75565b613a53906001614d54565b613a5d9190614d54565b613a679190614d54565b9050613aab565b5f8052600280600a8504028301601e833c5f80516107d0840193505f80526001600a8606600a6064880402018501601f853c5f5101949350505050565b613ab6858288613a6e565b92508315611c3457613acc600186018288613a6e565b915050935093915050565b5f80888803613aea575083905081613b68565b5f805f80613afa8c8b8f8d613001565b915091505f80613b0c8a8a8d8c613001565b91509150613b1c84848484611dbc565b8096508197505050505050505f80613b368b8b8f8d613001565b915091505f80613b4886868686611edb565b915091505f80613b5a84848f8e613087565b909a50985050505050505050505b97509795505050505050565b5f805f805f613b838787613ede565b92509250925080612fa3576040517f05e51ecb0000000000000000000000000000000000000000000000000000000081526004810188905260248101879052604401610905565b5f80613bd9600a612328614bf0565b613be4906002614d75565b613bef906001614d54565b90505f613bff600a612328614bf0565b90506002600a8504026001015f8052600281601e883c505f51617fff81169350618000811615613c2e57918101915b505f80526001600a8506600a6064870402018301601f873c50505f510192915050565b5f80821215613cae577f80000000000000000000000000000000000000000000000000000000000000008203613ca857507f8000000000000000000000000000000000000000000000000000000000000000919050565b505f0390565b5090565b919050565b5f807fffffffffffffffffffffffffffffffffffffffffffffffffffffffffffffffff83850993909202808410938190039390930393915050565b5f805f613cff8686613cb7565b91509150815f03613d2357838181613d1957613d1961492b565b04925050506106c2565b838210613d6d576040517f6c59da12000000000000000000000000000000000000000000000000000000008152600481018790526024810186905260448101859052606401610905565b5f84868809600186198101871696879004966002600389028118808a02820302808a02820302808a02820302808a02820302808a02820302808a02909103025f82900382900490920185841190960395909502919093039390930492909217029150509392505050565b5f805f8587181215613ea1577f7fffffffffffffffffffffffffffffffffffffffffffffffffffffffffffffff841115613e8e57613e367f7fffffffffffffffffffffffffffffffffffffffffffffffffffffffffffffff6001614d54565b8403613e6657507f80000000000000000000000000000000000000000000000000000000000000009050816124f6565b613e71600a85614bf0565b613e7a90614bc0565b613e858460016149ab565b915091506124f6565b613e9784614bc0565b83915091506124f6565b7f7fffffffffffffffffffffffffffffffffffffffffffffffffffffffffffffff841115613ed457613e7a600a85614bf0565b50829050816124f6565b5f805f845f03613ef657505f91508190506001613928565b7f0235fadd81c2822bb3f07877973d50f28bf22a31be8ee800000000000000000085055f0361410a576f4b3b4ca85a86c47a098a2240000000008505158015613f5f57507f80000000000000000000000000000000000000000000000000000000000000268412155b15613f80576f4b3b4ca85a86c47a098a224000000000850294506026840393505b7728c87cb5c89a2571ebfdcb54864ada834a000000000000008505158015613fc857507f80000000000000000000000000000000000000000000000000000000000000138412155b15613fe157678ac7230489e80000850294506013840393505b7b097edd871cfda3a5697758bf0e3cbb5ac5741c640000000000000000850515801561402d57507f800000000000000000000000000000000000000000000000000000000000000a8412155b15614043576402540be40085029450600a840393505b7e3899162693736ac531a5a58f1fbb4b746504382ca7e4000000000000000000850515801561409257507f80000000000000000000000000000000000000000000000000000000000000028412155b156140a857606485029450600284039350614043565b7f0235fadd81c2822bb3f07877973d50f28bf22a31be8ee800000000000000000085051580156140f857507f80000000000000000000000000000000000000000000000000000000000000018412155b1561410a57600a850294506001840393505b600a8086029081058614801561414057507f80000000000000000000000000000000000000000000000000000000000000018512155b1561414f578095506001850394505b50939492935050507f0235fadd81c2822bb3f07877973d50f28bf22a31be8ee80000000000000000008305151590565b60605f821261419c5760405180602001604052805f8152506141d3565b6040518060400160405280600181526020017f2d000000000000000000000000000000000000000000000000000000000000008152505b6141e460ff84901d8085011861420b565b6040516020016141f5929190614d67565b6040516020818303038152906040529050919050565b60605f6142178361441a565b60010190505f8167ffffffffffffffff8111156142365761423661480c565b6040519080825280601f01601f191660200182016040528015614260576020820181803683370190505b5090508181016020015b7fffffffffffffffffffffffffffffffffffffffffffffffffffffffffffffffff017f3031323334353637383961626364656600000000000000000000000000000000600a86061a8153600a850494508461426a57509392505050565b5f5b5f82600186515f1a1b161183851016156142e8576001840193506142c9565b509192915050565b81515f90819065200000000000600191831a9190911b1615158385101680850190828061431d84886144fb565b90925090507fffffffff00000000000000000000000000000000000000000000000000000000821615614358575093505f92506106da915050565b825f036143bb577f7fffffffffffffffffffffffffffffffffffffffffffffffffffffffffffffff811161438c575f6143ae565b7f0fdc2635000000000000000000000000000000000000000000000000000000005b955093506106da92505050565b7f800000000000000000000000000000000000000000000000000000000000000081116143e8575f61440a565b7f0fdc2635000000000000000000000000000000000000000000000000000000005b95505f0393505050509250929050565b5f807a184f03e93ff9f4daa797ed6e38ed64bf6a1f0100000000000000008310614462577a184f03e93ff9f4daa797ed6e38ed64bf6a1f010000000000000000830492506040015b6d04ee2d6d415b85acef8100000000831061448e576d04ee2d6d415b85acef8100000000830492506020015b662386f26fc1000083106144ac57662386f26fc10000830492506010015b6305f5e10083106144c4576305f5e100830492506008015b61271083106144d857612710830492506004015b606483106144ea576064830492506002015b600a83106106b15760010192915050565b5f8082841061452e57507f34bd20690000000000000000000000000000000000000000000000000000000090505f6106da565b835f03614567576040517fda6966d400000000000000000000000000000000000000000000000000000000815260040160405180910390fd5b60305f7fffffffffffffffffffffffffffffffffffffffffffffffffffffffffffffffff8501815b87821015801561459f5750604d83105b156145e257815160018401937fffffffffffffffffffffffffffffffffffffffffffffffffffffffffffffffff90930192600a0a5f9190911a859003020161458f565b8782106147085781515f1a849003600181111561462a57507f0fdc26350000000000000000000000000000000000000000000000000000000095505f94506106da9350505050565b600a84900a810282810183111561466d57507f0fdc26350000000000000000000000000000000000000000000000000000000096505f95506106da945050505050565b9190910190507fffffffffffffffffffffffffffffffffffffffffffffffffffffffffffffffff909101905b8782106147085781515f1a603081146146dd57507f0fdc26350000000000000000000000000000000000000000000000000000000095505f94506106da9350505050565b507fffffffffffffffffffffffffffffffffffffffffffffffffffffffffffffffff90910190614699565b5f9890975095505050505050565b5f60208284031215614726575f80fd5b5035919050565b5f806040838503121561473e575f80fd5b50508035926020909101359150565b803560ff81168114613cb2575f80fd5b5f806040838503121561476e575f80fd5b8235915061477e6020840161474d565b90509250929050565b5f8060408385031215614798575f80fd5b82359150602083013580151581146147ae575f80fd5b809150509250929050565b602081525f82518060208401528060208501604085015e5f6040828501015260407fffffffffffffffffffffffffffffffffffffffffffffffffffffffffffffffe0601f83011684010191505092915050565b7f4e487b71000000000000000000000000000000000000000000000000000000005f52604160045260245ffd5b5f60208284031215614849575f80fd5b813567ffffffffffffffff80821115614860575f80fd5b818401915084601f830112614873575f80fd5b8135818111156148855761488561480c565b604051601f82017fffffffffffffffffffffffffffffffffffffffffffffffffffffffffffffffe0908116603f011681019083821181831017156148cb576148cb61480c565b816040528281528760208487010111156148e3575f80fd5b826020860160208301375f928101602001929092525095945050505050565b5f805f60608486031215614914575f80fd5b505081359360208301359350604090920135919050565b7f4e487b71000000000000000000000000000000000000000000000000000000005f52601260045260245ffd5b7f4e487b71000000000000000000000000000000000000000000000000000000005f52601160045260245ffd5b8181035f8312801583831316838312821617156149a4576149a4614958565b5092915050565b8082018281125f8312801582168215821617156149ca576149ca614958565b505092915050565b8082025f82127f800000000000000000000000000000000000000000000000000000000000000084141615614a0957614a09614958565b81810583148215176106b1576106b1614958565b600181815b80851115614a7657817fffffffffffffffffffffffffffffffffffffffffffffffffffffffffffffffff04821115614a5c57614a5c614958565b80851615614a6957918102915b93841c9390800290614a22565b509250929050565b5f82614a8c575060016106b1565b81614a9857505f6106b1565b8160018114614aae5760028114614ab857614ad4565b60019150506106b1565b60ff841115614ac957614ac9614958565b50506001821b6106b1565b5060208310610133831016604e8410600b8410161715614af7575081810a6106b1565b614b018383614a1d565b807fffffffffffffffffffffffffffffffffffffffffffffffffffffffffffffffff04821115614b3357614b33614958565b029392505050565b5f6106c28383614a7e565b5f82614b5457614b5461492b565b7fffffffffffffffffffffffffffffffffffffffffffffffffffffffffffffffff83147f800000000000000000000000000000000000000000000000000000000000000083141615614ba857614ba8614958565b500590565b5f82614bbb57614bbb61492b565b500790565b5f7f80000000000000000000000000000000000000000000000000000000000000008203613ca857613ca8614958565b5f82614bfe57614bfe61492b565b500490565b5f7fffffffffffffffffffffffffffffffffffffffffffffffffffffffffffffffff8203614c3357614c33614958565b5060010190565b5f81518060208401855e5f93019283525090919050565b5f614c5c8284614c3a565b7f300000000000000000000000000000000000000000000000000000000000000081526001019392505050565b7f2e0000000000000000000000000000000000000000000000000000000000000081525f61129c614cbd6001840186614c3a565b84614c3a565b7f650000000000000000000000000000000000000000000000000000000000000081525f6106c26001830184614c3a565b5f610a60614cbd614d0e614d08858a614c3a565b88614c3a565b86614c3a565b818103818111156106b1576106b1614958565b7f4e487b71000000000000000000000000000000000000000000000000000000005f52603260045260245ffd5b808201808211156106b1576106b1614958565b5f61129c614cbd8386614c3a565b80820281158282048414176106b1576106b161495856"
  }
}