{
  "abi": [
    {
      "type": "constructor",
      "inputs": [],
      "stateMutability": "nonpayable"
    },
    {
      "type": "function",
      "name": "FORMAT_DEFAULT_SCIENTIFIC_MAX",
      "inputs": [],
      "outputs": [
        {
          "name": "",
          "type": "bytes32",
          "internalType": "Float"
        }
      ],
      "stateMutability": "view"
    },
    {
      "type": "function",
      "name": "FORMAT_DEFAULT_SCIENTIFIC_MIN",
      "inputs": [],
      "outputs": [
        {
          "name": "",
          "type": "bytes32",
          "internalType": "Float"
        }
      ],
      "stateMutability": "view"
    },
    {
      "type": "function",
      "name": "abs",
      "inputs": [
        {
          "name": "a",
          "type": "bytes32",
          "internalType": "Float"
        }
      ],
      "outputs": [
        {
          "name": "",
          "type": "bytes32",
          "internalType": "Float"
        }
      ],
      "stateMutability": "pure"
    },
    {
      "type": "function",
      "name": "add",
      "inputs": [
        {
          "name": "a",
          "type": "bytes32",
          "internalType": "Float"
        },
        {
          "name": "b",
          "type": "bytes32",
          "internalType": "Float"
        }
      ],
      "outputs": [
        {
          "name": "",
          "type": "bytes32",
          "internalType": "Float"
        }
      ],
      "stateMutability": "pure"
    },
    {
      "type": "function",
      "name": "ceil",
      "inputs": [
        {
          "name": "a",
          "type": "bytes32",
          "internalType": "Float"
        }
      ],
      "outputs": [
        {
          "name": "",
          "type": "bytes32",
          "internalType": "Float"
        }
      ],
      "stateMutability": "pure"
    },
    {
      "type": "function",
      "name": "div",
      "inputs": [
        {
          "name": "a",
          "type": "bytes32",
          "internalType": "Float"
        },
        {
          "name": "b",
          "type": "bytes32",
          "internalType": "Float"
        }
      ],
      "outputs": [
        {
          "name": "",
          "type": "bytes32",
          "internalType": "Float"
        }
      ],
      "stateMutability": "pure"
    },
    {
      "type": "function",
      "name": "e",
      "inputs": [],
      "outputs": [
        {
          "name": "",
          "type": "bytes32",
          "internalType": "Float"
        }
      ],
      "stateMutability": "pure"
    },
    {
      "type": "function",
      "name": "eq",
      "inputs": [
        {
          "name": "a",
          "type": "bytes32",
          "internalType": "Float"
        },
        {
          "name": "b",
          "type": "bytes32",
          "internalType": "Float"
        }
      ],
      "outputs": [
        {
          "name": "",
          "type": "bool",
          "internalType": "bool"
        }
      ],
      "stateMutability": "pure"
    },
    {
      "type": "function",
      "name": "floor",
      "inputs": [
        {
          "name": "a",
          "type": "bytes32",
          "internalType": "Float"
        }
      ],
      "outputs": [
        {
          "name": "",
          "type": "bytes32",
          "internalType": "Float"
        }
      ],
      "stateMutability": "pure"
    },
    {
      "type": "function",
      "name": "format",
      "inputs": [
        {
          "name": "a",
          "type": "bytes32",
          "internalType": "Float"
        },
        {
          "name": "scientific",
          "type": "bool",
          "internalType": "bool"
        }
      ],
      "outputs": [
        {
          "name": "",
          "type": "string",
          "internalType": "string"
        }
      ],
      "stateMutability": "pure"
    },
    {
      "type": "function",
      "name": "format",
      "inputs": [
        {
          "name": "a",
          "type": "bytes32",
          "internalType": "Float"
        }
      ],
      "outputs": [
        {
          "name": "",
          "type": "string",
          "internalType": "string"
        }
      ],
      "stateMutability": "pure"
    },
    {
      "type": "function",
      "name": "format",
      "inputs": [
        {
          "name": "a",
          "type": "bytes32",
          "internalType": "Float"
        },
        {
          "name": "scientificMin",
          "type": "bytes32",
          "internalType": "Float"
        },
        {
          "name": "scientificMax",
          "type": "bytes32",
          "internalType": "Float"
        }
      ],
      "outputs": [
        {
          "name": "",
          "type": "string",
          "internalType": "string"
        }
      ],
      "stateMutability": "pure"
    },
    {
      "type": "function",
      "name": "frac",
      "inputs": [
        {
          "name": "a",
          "type": "bytes32",
          "internalType": "Float"
        }
      ],
      "outputs": [
        {
          "name": "",
          "type": "bytes32",
          "internalType": "Float"
        }
      ],
      "stateMutability": "pure"
    },
    {
      "type": "function",
      "name": "fromFixedDecimalLossless",
      "inputs": [
        {
          "name": "value",
          "type": "uint256",
          "internalType": "uint256"
        },
        {
          "name": "decimals",
          "type": "uint8",
          "internalType": "uint8"
        }
      ],
      "outputs": [
        {
          "name": "",
          "type": "bytes32",
          "internalType": "Float"
        }
      ],
      "stateMutability": "pure"
    },
    {
      "type": "function",
      "name": "fromFixedDecimalLossy",
      "inputs": [
        {
          "name": "value",
          "type": "uint256",
          "internalType": "uint256"
        },
        {
          "name": "decimals",
          "type": "uint8",
          "internalType": "uint8"
        }
      ],
      "outputs": [
        {
          "name": "",
          "type": "bytes32",
          "internalType": "Float"
        },
        {
          "name": "",
          "type": "bool",
          "internalType": "bool"
        }
      ],
      "stateMutability": "pure"
    },
    {
      "type": "function",
      "name": "gt",
      "inputs": [
        {
          "name": "a",
          "type": "bytes32",
          "internalType": "Float"
        },
        {
          "name": "b",
          "type": "bytes32",
          "internalType": "Float"
        }
      ],
      "outputs": [
        {
          "name": "",
          "type": "bool",
          "internalType": "bool"
        }
      ],
      "stateMutability": "pure"
    },
    {
      "type": "function",
      "name": "gte",
      "inputs": [
        {
          "name": "a",
          "type": "bytes32",
          "internalType": "Float"
        },
        {
          "name": "b",
          "type": "bytes32",
          "internalType": "Float"
        }
      ],
      "outputs": [
        {
          "name": "",
          "type": "bool",
          "internalType": "bool"
        }
      ],
      "stateMutability": "pure"
    },
    {
      "type": "function",
      "name": "integer",
      "inputs": [
        {
          "name": "a",
          "type": "bytes32",
          "internalType": "Float"
        }
      ],
      "outputs": [
        {
          "name": "",
          "type": "bytes32",
          "internalType": "Float"
        }
      ],
      "stateMutability": "pure"
    },
    {
      "type": "function",
      "name": "inv",
      "inputs": [
        {
          "name": "a",
          "type": "bytes32",
          "internalType": "Float"
        }
      ],
      "outputs": [
        {
          "name": "",
          "type": "bytes32",
          "internalType": "Float"
        }
      ],
      "stateMutability": "pure"
    },
    {
      "type": "function",
      "name": "isZero",
      "inputs": [
        {
          "name": "a",
          "type": "bytes32",
          "internalType": "Float"
        }
      ],
      "outputs": [
        {
          "name": "",
          "type": "bool",
          "internalType": "bool"
        }
      ],
      "stateMutability": "pure"
    },
    {
      "type": "function",
      "name": "log10",
      "inputs": [
        {
          "name": "a",
          "type": "bytes32",
          "internalType": "Float"
        }
      ],
      "outputs": [
        {
          "name": "",
          "type": "bytes32",
          "internalType": "Float"
        }
      ],
      "stateMutability": "view"
    },
    {
      "type": "function",
      "name": "lt",
      "inputs": [
        {
          "name": "a",
          "type": "bytes32",
          "internalType": "Float"
        },
        {
          "name": "b",
          "type": "bytes32",
          "internalType": "Float"
        }
      ],
      "outputs": [
        {
          "name": "",
          "type": "bool",
          "internalType": "bool"
        }
      ],
      "stateMutability": "pure"
    },
    {
      "type": "function",
      "name": "lte",
      "inputs": [
        {
          "name": "a",
          "type": "bytes32",
          "internalType": "Float"
        },
        {
          "name": "b",
          "type": "bytes32",
          "internalType": "Float"
        }
      ],
      "outputs": [
        {
          "name": "",
          "type": "bool",
          "internalType": "bool"
        }
      ],
      "stateMutability": "pure"
    },
    {
      "type": "function",
      "name": "max",
      "inputs": [
        {
          "name": "a",
          "type": "bytes32",
          "internalType": "Float"
        },
        {
          "name": "b",
          "type": "bytes32",
          "internalType": "Float"
        }
      ],
      "outputs": [
        {
          "name": "",
          "type": "bytes32",
          "internalType": "Float"
        }
      ],
      "stateMutability": "pure"
    },
    {
      "type": "function",
      "name": "maxNegativeValue",
      "inputs": [],
      "outputs": [
        {
          "name": "",
          "type": "bytes32",
          "internalType": "Float"
        }
      ],
      "stateMutability": "pure"
    },
    {
      "type": "function",
      "name": "maxPositiveValue",
      "inputs": [],
      "outputs": [
        {
          "name": "",
          "type": "bytes32",
          "internalType": "Float"
        }
      ],
      "stateMutability": "pure"
    },
    {
      "type": "function",
      "name": "min",
      "inputs": [
        {
          "name": "a",
          "type": "bytes32",
          "internalType": "Float"
        },
        {
          "name": "b",
          "type": "bytes32",
          "internalType": "Float"
        }
      ],
      "outputs": [
        {
          "name": "",
          "type": "bytes32",
          "internalType": "Float"
        }
      ],
      "stateMutability": "pure"
    },
    {
      "type": "function",
      "name": "minNegativeValue",
      "inputs": [],
      "outputs": [
        {
          "name": "",
          "type": "bytes32",
          "internalType": "Float"
        }
      ],
      "stateMutability": "pure"
    },
    {
      "type": "function",
      "name": "minPositiveValue",
      "inputs": [],
      "outputs": [
        {
          "name": "",
          "type": "bytes32",
          "internalType": "Float"
        }
      ],
      "stateMutability": "pure"
    },
    {
      "type": "function",
      "name": "minus",
      "inputs": [
        {
          "name": "a",
          "type": "bytes32",
          "internalType": "Float"
        }
      ],
      "outputs": [
        {
          "name": "",
          "type": "bytes32",
          "internalType": "Float"
        }
      ],
      "stateMutability": "pure"
    },
    {
      "type": "function",
      "name": "mul",
      "inputs": [
        {
          "name": "a",
          "type": "bytes32",
          "internalType": "Float"
        },
        {
          "name": "b",
          "type": "bytes32",
          "internalType": "Float"
        }
      ],
      "outputs": [
        {
          "name": "",
          "type": "bytes32",
          "internalType": "Float"
        }
      ],
      "stateMutability": "pure"
    },
    {
      "type": "function",
      "name": "parse",
      "inputs": [
        {
          "name": "str",
          "type": "string",
          "internalType": "string"
        }
      ],
      "outputs": [
        {
          "name": "",
          "type": "bytes4",
          "internalType": "bytes4"
        },
        {
          "name": "",
          "type": "bytes32",
          "internalType": "Float"
        }
      ],
      "stateMutability": "pure"
    },
    {
      "type": "function",
      "name": "pow",
      "inputs": [
        {
          "name": "a",
          "type": "bytes32",
          "internalType": "Float"
        },
        {
          "name": "b",
          "type": "bytes32",
          "internalType": "Float"
        }
      ],
      "outputs": [
        {
          "name": "",
          "type": "bytes32",
          "internalType": "Float"
        }
      ],
      "stateMutability": "view"
    },
    {
      "type": "function",
      "name": "pow10",
      "inputs": [
        {
          "name": "a",
          "type": "bytes32",
          "internalType": "Float"
        }
      ],
      "outputs": [
        {
          "name": "",
          "type": "bytes32",
          "internalType": "Float"
        }
      ],
      "stateMutability": "view"
    },
    {
      "type": "function",
      "name": "sqrt",
      "inputs": [
        {
          "name": "a",
          "type": "bytes32",
          "internalType": "Float"
        }
      ],
      "outputs": [
        {
          "name": "",
          "type": "bytes32",
          "internalType": "Float"
        }
      ],
      "stateMutability": "view"
    },
    {
      "type": "function",
      "name": "sub",
      "inputs": [
        {
          "name": "a",
          "type": "bytes32",
          "internalType": "Float"
        },
        {
          "name": "b",
          "type": "bytes32",
          "internalType": "Float"
        }
      ],
      "outputs": [
        {
          "name": "",
          "type": "bytes32",
          "internalType": "Float"
        }
      ],
      "stateMutability": "pure"
    },
    {
      "type": "function",
      "name": "toFixedDecimalLossless",
      "inputs": [
        {
          "name": "float",
          "type": "bytes32",
          "internalType": "Float"
        },
        {
          "name": "decimals",
          "type": "uint8",
          "internalType": "uint8"
        }
      ],
      "outputs": [
        {
          "name": "",
          "type": "uint256",
          "internalType": "uint256"
        }
      ],
      "stateMutability": "pure"
    },
    {
      "type": "function",
      "name": "toFixedDecimalLossy",
      "inputs": [
        {
          "name": "float",
          "type": "bytes32",
          "internalType": "Float"
        },
        {
          "name": "decimals",
          "type": "uint8",
          "internalType": "uint8"
        }
      ],
      "outputs": [
        {
          "name": "",
          "type": "uint256",
          "internalType": "uint256"
        },
        {
          "name": "",
          "type": "bool",
          "internalType": "bool"
        }
      ],
      "stateMutability": "pure"
    },
    {
      "type": "function",
      "name": "zero",
      "inputs": [],
      "outputs": [
        {
          "name": "",
          "type": "bytes32",
          "internalType": "Float"
        }
      ],
      "stateMutability": "pure"
    },
    {
      "type": "error",
      "name": "CoefficientOverflow",
      "inputs": [
        {
          "name": "signedCoefficient",
          "type": "int256",
          "internalType": "int256"
        },
        {
          "name": "exponent",
          "type": "int256",
          "internalType": "int256"
        }
      ]
    },
    {
      "type": "error",
      "name": "DivisionByZero",
      "inputs": [
        {
          "name": "signedCoefficient",
          "type": "int256",
          "internalType": "int256"
        },
        {
          "name": "exponent",
          "type": "int256",
          "internalType": "int256"
        }
      ]
    },
    {
      "type": "error",
      "name": "ExponentOverflow",
      "inputs": [
        {
          "name": "signedCoefficient",
          "type": "int256",
          "internalType": "int256"
        },
        {
          "name": "exponent",
          "type": "int256",
          "internalType": "int256"
        }
      ]
    },
    {
      "type": "error",
      "name": "ExponentUnderflow",
      "inputs": [
        {
          "name": "signedCoefficient",
          "type": "int256",
          "internalType": "int256"
        },
        {
          "name": "exponent",
          "type": "int256",
          "internalType": "int256"
        }
      ]
    },
    {
      "type": "error",
      "name": "FixedDecimalOverflow",
      "inputs": [
        {
          "name": "signedCoefficient",
          "type": "int256",
          "internalType": "int256"
        },
        {
          "name": "exponent",
          "type": "int256",
          "internalType": "int256"
        },
        {
          "name": "decimals",
          "type": "uint8",
          "internalType": "uint8"
        }
      ]
    },
    {
      "type": "error",
      "name": "Log10Negative",
      "inputs": [
        {
          "name": "signedCoefficient",
          "type": "int256",
          "internalType": "int256"
        },
        {
          "name": "exponent",
          "type": "int256",
          "internalType": "int256"
        }
      ]
    },
    {
      "type": "error",
      "name": "Log10Zero",
      "inputs": []
    },
    {
      "type": "error",
      "name": "LogTablesNotDeployed",
      "inputs": [
        {
          "name": "tablesAddress",
          "type": "address",
          "internalType": "address"
        },
        {
          "name": "expectedCodehash",
          "type": "bytes32",
          "internalType": "bytes32"
        },
        {
          "name": "actualCodehash",
          "type": "bytes32",
          "internalType": "bytes32"
        }
      ]
    },
    {
      "type": "error",
      "name": "LossyConversionFromFloat",
      "inputs": [
        {
          "name": "signedCoefficient",
          "type": "int256",
          "internalType": "int256"
        },
        {
          "name": "exponent",
          "type": "int256",
          "internalType": "int256"
        }
      ]
    },
    {
      "type": "error",
      "name": "LossyConversionToFloat",
      "inputs": [
        {
          "name": "signedCoefficient",
          "type": "int256",
          "internalType": "int256"
        },
        {
          "name": "exponent",
          "type": "int256",
          "internalType": "int256"
        }
      ]
    },
    {
      "type": "error",
      "name": "MaximizeOverflow",
      "inputs": [
        {
          "name": "signedCoefficient",
          "type": "int256",
          "internalType": "int256"
        },
        {
          "name": "exponent",
          "type": "int256",
          "internalType": "int256"
        }
      ]
    },
    {
      "type": "error",
      "name": "MulDivOverflow",
      "inputs": [
        {
          "name": "x",
          "type": "uint256",
          "internalType": "uint256"
        },
        {
          "name": "y",
          "type": "uint256",
          "internalType": "uint256"
        },
        {
          "name": "denominator",
          "type": "uint256",
          "internalType": "uint256"
        }
      ]
    },
    {
      "type": "error",
      "name": "NegativeFixedDecimalConversion",
      "inputs": [
        {
          "name": "signedCoefficient",
          "type": "int256",
          "internalType": "int256"
        },
        {
          "name": "exponent",
          "type": "int256",
          "internalType": "int256"
        }
      ]
    },
    {
      "type": "error",
      "name": "PowNegativeBase",
      "inputs": [
        {
          "name": "signedCoefficient",
          "type": "int256",
          "internalType": "int256"
        },
        {
          "name": "exponent",
          "type": "int256",
          "internalType": "int256"
        }
      ]
    },
    {
      "type": "error",
      "name": "ScientificMinNotLessThanMax",
      "inputs": [
        {
          "name": "scientificMin",
          "type": "bytes32",
          "internalType": "Float"
        },
        {
          "name": "scientificMax",
          "type": "bytes32",
          "internalType": "Float"
        }
      ]
    },
    {
      "type": "error",
      "name": "UnformatableExponent",
      "inputs": [
        {
          "name": "exponent",
          "type": "int256",
          "internalType": "int256"
        }
      ]
    },
    {
      "type": "error",
      "name": "WithTargetExponentOverflow",
      "inputs": [
        {
          "name": "signedCoefficient",
          "type": "int256",
          "internalType": "int256"
        },
        {
          "name": "exponent",
          "type": "int256",
          "internalType": "int256"
        },
        {
          "name": "targetExponent",
          "type": "int256",
          "internalType": "int256"
        }
      ]
    },
    {
      "type": "error",
      "name": "ZeroNegativePower",
      "inputs": [
        {
          "name": "b",
          "type": "bytes32",
          "internalType": "Float"
        }
      ]
    },
    {
      "type": "error",
      "name": "ZeroStringStartPointer",
      "inputs": []
    }
  ],
  "bytecode": {
    "object": "0x6080604052348015600e575f80fd5b5060156019565b60b8565b73c51a14251b0dcf0ae24a96b7153991378938f5f53f7f2573004ac3a9ee7fc8d73654d76386f1b6b99e34cdf86a689c4691e47143420f811460b557604051630912d0ff60e31b815273c51a14251b0dcf0ae24a96b7153991378938f5f560048201527f2573004ac3a9ee7fc8d73654d76386f1b6b99e34cdf86a689c4691e47143420f60248201526044810182905260640160405180910390fd5b50565b614db3806100c55f395ff3fe608060405234801561000f575f80fd5b506004361061029d575f3560e01c806381f7e2f511610171578063cde72ef3116100d2578063dd64691711610088578063e5526ecd1161006e578063e5526ecd1461062e578063e75f991f14610641578063ffae15ba14610654575f80fd5b8063dd64691714610608578063e0db58881461061b575f80fd5b8063d1de592a116100b8578063d1de592a146105bb578063d35273a7146105ce578063d3d6ffa8146105f5575f80fd5b8063cde72ef314610582578063d102b4d3146105a8575f80fd5b8063a19684b711610127578063bc1b392d1161010d578063bc1b392d1461050b578063bc62d8d814610511578063cb09682b1461055c575f80fd5b8063a19684b7146104d2578063a90d041a146104f8575f80fd5b806396ce1ec71161015757806396ce1ec7146104885780639b4afd991461049b578063a100a3d9146104bf575f80fd5b806381f7e2f5146104625780638dc2980714610475575f80fd5b80633447c0301161021b5780635ca0e7a4116101d1578063719cd99d116101b7578063719cd99d1461042957806373bfb2831461043c57806381a822721461044f575f80fd5b80635ca0e7a4146103f0578063602c35fc14610403575f80fd5b80633b3bd868116102015780633b3bd868146103b757806341aa0080146103ca5780635b23771d146103dd575f80fd5b80633447c03014610374578063371493ce14610397575f80fd5b80631ee62f111161027057806328fa1f011161025657806328fa1f011461033b5780633004fa411461034e5780633029740014610361575f80fd5b80631ee62f11146103155780632538835014610328575f80fd5b806304327dc5146102a1578063078b665b146102c75780630b6429bc146102da578063146e82ad14610302575b5f80fd5b6102b46102af366004614735565b61067a565b6040519081526020015b60405180910390f35b6102b46102d536600461474c565b61068a565b6102ed6102e836600461477c565b61069c565b604080519283529015156020830152016102be565b6102b4610310366004614735565b6106b4565b6102b4610323366004614735565b6106d3565b6102b4610336366004614735565b6106f2565b6102b4610349366004614735565b610711565b6102b461035c36600461474c565b61071b565b6102b461036f36600461474c565b61073b565b61038761038236600461474c565b610746565b60405190151581526020016102be565b6103aa6103a53660046147a6565b610751565b6040516102be91906147d8565b6102b46103c536600461477c565b61075d565b6102b46103d836600461474c565b610768565b6102b46103eb36600461477c565b610773565b6102b46103fe366004614735565b61077e565b7f80000000ffffffffffffffffffffffffffffffffffffffffffffffffffffffff6102b4565b6102b4610437366004614735565b610788565b61038761044a36600461474c565b610792565b6102b461045d366004614735565b61079d565b61038761047036600461474c565b6107a7565b61038761048336600461474c565b6107b2565b6102b461049636600461474c565b6107bd565b6102b47c090000000000000000000000000000000000000000000000000000000181565b6103aa6104cd366004614735565b6107c8565b7f80000000000000000000000000000000000000000000000000000000000000016102b4565b6102b461050636600461474c565b610812565b5f6102b4565b61052461051f366004614858565b61081d565b604080517fffffffff0000000000000000000000000000000000000000000000000000000090931683526020830191909152016102be565b7f7fffffff7fffffffffffffffffffffffffffffffffffffffffffffffffffffff6102b4565b7f7fffffff800000000000000000000000000000000000000000000000000000006102b4565b6103876105b636600461474c565b610836565b6102b46105c936600461474c565b610841565b6102b47ffffffffc0000000000000000000000000000000000000000000000000000000181565b6102b4610603366004614735565b61084c565b610387610616366004614735565b610856565b6102b4610629366004614735565b61087c565b6103aa61063c366004614921565b610886565b6102ed61064f36600461477c565b61090f565b7fffffffbe19cfc6ef4f44cf88f14500d013df534fcaad48fca1d5ca47bea26fcc6102b4565b5f6106848261091b565b92915050565b5f610695838361095d565b9392505050565b5f806106a88484610979565b915091505b9250929050565b5f6106848273c51a14251b0dcf0ae24a96b7153991378938f5f56109ba565b5f6106848273c51a14251b0dcf0ae24a96b7153991378938f5f56109e6565b5f6106848273c51a14251b0dcf0ae24a96b7153991378938f5f5610a33565b5f61068482610a66565b5f610695838373c51a14251b0dcf0ae24a96b7153991378938f5f5610aa7565b5f6106958383610d01565b5f6106958383610d63565b60606106958383610db1565b5f6106958383610e44565b5f6106958383610e5f565b5f6106958383610ea4565b5f61068482610ed7565b5f61068482610f8d565b5f6106958383611039565b5f61068482611089565b5f61069583836110ce565b5f610695838361111e565b5f610695838361116d565b6060610684827ffffffffc000000000000000000000000000000000000000000000000000000017c0900000000000000000000000000000000000000000000000000000001610886565b5f61069583836111b2565b5f805f8061082a856111bd565b90969095509350505050565b5f61069583836112ab565b5f61069583836112fa565b5f6106848261133f565b5f7bffffffffffffffffffffffffffffffffffffffffffffffffffffffff821615610684565b5f61068482611371565b606061089283836112ab565b6108d7576040517f3be5bf9400000000000000000000000000000000000000000000000000000000815260048101849052602481018390526044015b60405180910390fd5b5f6108e185611089565b9050610906856108f183876112ab565b806109015750610901838661111e565b610db1565b95945050505050565b5f806106a884846113b2565b5f7bffffffffffffffffffffffffffffffffffffffffffffffffffffffff8216601b0b60e083901d61094d82826113f2565b90925090505f6109068383611440565b5f610968838361111e565b6109725781610695565b5090919050565b5f807bffffffffffffffffffffffffffffffffffffffffffffffffffffffff8416601b0b60e085901d6109ad8282876114a6565b9350935050509250929050565b5f610695837fffffffff0000000000000000000000000000000000000000000000000000000584610aa7565b5f7bffffffffffffffffffffffffffffffffffffffffffffffffffffffff8316601b0b60e084901d610a198483836116b0565b90925090505f610a298383611440565b9695505050505050565b5f7bffffffffffffffffffffffffffffffffffffffffffffffffffffffff8316601b0b60e084901d610a19848383611821565b5f7bffffffffffffffffffffffffffffffffffffffffffffffffffffffff8216601b0b60e083901d82610a998383611b56565b9150505f610a298284611440565b5f7bffffffffffffffffffffffffffffffffffffffffffffffffffffffff848116601b0b9060e086901d908516610ae45750600191506106959050565b5f8213610b7d57815f03610b4157610afc855f6112ab565b15610b36576040517f8be82972000000000000000000000000000000000000000000000000000000008152600481018690526024016108ce565b505f91506106959050565b6040517fcceba0f100000000000000000000000000000000000000000000000000000000815260048101839052602481018290526044016108ce565b610b88856001610d63565b8015610b995750610b99865f61111e565b15610ba8578592505050610695565b610bb2855f6112ab565b15610bdb57610bd2610bc38761091b565b610bcc8761133f565b86610aa7565b92505050610695565b7bffffffffffffffffffffffffffffffffffffffffffffffffffffffff8516601b0b60e086901d5f80610c0e8484611b56565b915091505f610c1e83855f611bbe565b905060015f8080610c558f7bffffffffffffffffffffffffffffffffffffffffffffffffffffffff8116601b0b9160e09190911d90565b915091505b60018510610c9c5784600116600103610c7f57610c7984848484611cd5565b90945092505b600185901c9450610c9282828484611cd5565b9092509050610c5a565b5f80610ca98f8e8e611821565b91509150610cb982828a8d611cd5565b9092509050610cc98f83836116b0565b9092509050610cda82828888611cd5565b90925090505f610cea8383611440565b9e5050505050505050505050505050509392505050565b5f7bffffffffffffffffffffffffffffffffffffffffffffffffffffffff838116601b90810b9160e086811d9291861690910b9085901d8480610d4686868686611efa565b915091505f610d558383611440565b9a9950505050505050505050565b5f7bffffffffffffffffffffffffffffffffffffffffffffffffffffffff838116601b90810b9160e086811d9291861690910b9085901d610da68484848461251e565b979650505050505050565b60607bffffffffffffffffffffffffffffffffffffffffffffffffffffffff8316601b0b60e084901d5f829003610e21576040518060400160405280600181526020017f300000000000000000000000000000000000000000000000000000000000000081525092505050610684565b8315610e3a57610e318282612535565b92505050610684565b6109068282612805565b5f805f610e518585612f6c565b915091506109068282612fce565b5f7bffffffffffffffffffffffffffffffffffffffffffffffffffffffff838116601b90810b9160e086811d9291861690910b9085901d8480610d4686868686613020565b5f7bffffffffffffffffffffffffffffffffffffffffffffffffffffffff8316601b0b60e084901d61090682828661304a565b5f7bffffffffffffffffffffffffffffffffffffffffffffffffffffffff8216601b0b60e083901d828112610f0e57509192915050565b5f80610f1a8484611b56565b915091505f84128015610f2c57508015155b15610f8257610f7d82847f161bcca7119915b50764b4abe86529797775a5f17195100000000000000000007fffffffffffffffffffffffffffffffffffffffffffffffffffffffffffffffb4613020565b935091505b5f610da68385611440565b5f7bffffffffffffffffffffffffffffffffffffffffffffffffffffffff8216601b0b60e083901d828112610fc457509192915050565b5f80610fd08484611b56565b91509150805f03610fe5575093949350505050565b5f811315610f8257610f7d82847f161bcca7119915b50764b4abe86529797775a5f17195100000000000000000007fffffffffffffffffffffffffffffffffffffffffffffffffffffffffffffffb46130a6565b5f7bffffffffffffffffffffffffffffffffffffffffffffffffffffffff838116601b90810b9160e086811d9291861690910b9085901d61107c848484846131d6565b1315979650505050505050565b5f7bffffffffffffffffffffffffffffffffffffffffffffffffffffffff8216601b0b60e083901d828212156110c35761094d82826132aa565b5f6109068383611440565b5f7bffffffffffffffffffffffffffffffffffffffffffffffffffffffff838116601b90810b9160e086811d9291861690910b9085901d611111848484846131d6565b1215979650505050505050565b5f7bffffffffffffffffffffffffffffffffffffffffffffffffffffffff838116601b90810b9160e086811d9291861690910b9085901d611161848484846131d6565b12979650505050505050565b5f7bffffffffffffffffffffffffffffffffffffffffffffffffffffffff838116601b90810b9160e086811d9291861690910b9085901d8480610d4686868686611cd5565b5f61096883836112ab565b80515f908190602084810191850101828080806111da868661334d565b929650909450925090507fffffffff0000000000000000000000000000000000000000000000000000000084165f0361129c5784830361126c575f8061122084846137ec565b915091508061125b57507f32b8b8be000000000000000000000000000000000000000000000000000000009a5f9a5098505050505050505050565b505f9a909950975050505050505050565b507fad384e8700000000000000000000000000000000000000000000000000000000985f98509650505050505050565b5091975f975095505050505050565b5f7bffffffffffffffffffffffffffffffffffffffffffffffffffffffff838116601b90810b9160e086811d9291861690910b9085901d6112ee848484846131d6565b13979650505050505050565b5f7bffffffffffffffffffffffffffffffffffffffffffffffffffffffff838116601b90810b9160e086811d9291861690910b9085901d8480610d46868686866130a6565b5f7bffffffffffffffffffffffffffffffffffffffffffffffffffffffff8216601b0b60e083901d61094d82826132aa565b5f7bffffffffffffffffffffffffffffffffffffffffffffffffffffffff8216601b0b60e083901d826113a48383611b56565b5090505f610a298284611440565b5f805f805f6113c187876138f2565b9250925092505f806113d385856137ec565b91509150818380156113e25750815b9650965050505050509250929050565b5f806106a87f161bcca7119915b50764b4abe86529797775a5f17195100000000000000000007fffffffffffffffffffffffffffffffffffffffffffffffffffffffffffffffb48686611efa565b5f805f61144d85856137ec565b915091508015801561145d575081155b1561149e576040517f8eba4d0700000000000000000000000000000000000000000000000000000000815260048101869052602481018590526044016108ce565b509392505050565b5f805f8512156114ec576040517f4a7d166b00000000000000000000000000000000000000000000000000000000815260048101869052602481018590526044016108ce565b845f036114fe57505f905060016116a8565b8460ff8416850185811215611549576040517fd556b11100000000000000000000000000000000000000000000000000000000815260048101889052602481018790526044016108ce565b5f805f8312156115b3577fffffffffffffffffffffffffffffffffffffffffffffffffffffffffffffffb383121561158a575f8095509550505050506116a8565b825f03600a0a91508184816115a1576115a161494a565b04955050840290911491506116a89050565b5f83131561169d57604d831315611609576040517fc849483b000000000000000000000000000000000000000000000000000000008152600481018a90526024810189905260ff881660448201526064016108ce565b82600a0a9150817fffffffffffffffffffffffffffffffffffffffffffffffffffffffffffffffff8161163e5761163e61494a565b0484111561168b576040517fc849483b000000000000000000000000000000000000000000000000000000008152600481018a90526024810189905260ff881660448201526064016108ce565b50919091029250600191506116a89050565b509193506001925050505b935093915050565b5f805f8412156116ec576116c484846132aa565b90945092506116d48585856116b0565b90945092506116e384846113f2565b915091506116a8565b5f806116f88686611b56565b9092509050845f808061170b858561394e565b9194509250905061270d6127106117236001826149a4565b851461173a576117348d8686613a3d565b90925090505b83156117c5575f61174c8660016149ca565b90505b8084858302816117615761176161494a565b051461177857600a84059350600a8805975061174f565b6117b961178585886149f1565b8961179087856149f1565b8f87877ffffffffffffffffffffffffffffffffffffffffffffffffffffffffffffffffc613af6565b909d509b506117ec9050565b819b507ffffffffffffffffffffffffffffffffffffffffffffffffffffffffffffffffc9a505b5050505050866117fd84835f611bbe565b6118088860016149ca565b61181291906149ca565b94509450505050935093915050565b5f80838361182f8282613b93565b90965094505f86136118b057855f03611874576040517f561fc7b500000000000000000000000000000000000000000000000000000000815260040160405180910390fd5b6040517f5d3fd4db00000000000000000000000000000000000000000000000000000000815260048101839052602481018290526044016108ce565b5050837f161bcca7119915b50764b4abe86529797775a5f1719510000000000000000000036118ee576118e483604c6149ca565b5f915091506116a8565b7f161bcca7119915b50764b4abe86529797775a5f17195100000000000000000008412158061193d577fffffffffffffffffffffffffffffffffffffffffffffffffffffffffffffffb561195f565b7fffffffffffffffffffffffffffffffffffffffffffffffffffffffffffffffb45b5f0b8412611b1a575f805f805f8561197857604b61197b565b604c5b611985908a6149ca565b90505f80876119b2577d90e40fbeea1d3a4abc8955e946fe31cdcf66f634e10000000000000000006119d3565b7e05a8e89d75252446eb5d5d5b1cc5edf20a1a059e10ca0000000000000000005b7effffffffffffffffffffffffffffffffffffffffffffffffffffffffffffff169050808c81611a0557611a0561494a565b05818102955090850193507ffffffffffffffffffffffffffffffffffffffffffffffffffffffffffffffc18019050611a3e8c82613be9565b7d90e40fbeea1d3a4abc8955e946fe31cdcf66f634e10000000000000000000295508594508a8414611aca576123278114611aa557611a808c82600101613be9565b7d90e40fbeea1d3a4abc8955e946fe31cdcf66f634e100000000000000000002611ac7565b7f161bcca7119915b50764b4abe86529797775a5f17195100000000000000000005b94505b50611afa838b848c89897fffffffffffffffffffffffffffffffffffffffffffffffffffffffffffffffb4613af6565b909a509850611b0b8a8a835f6130a6565b975097505050505050506116a8565b611b2485856113f2565b9095509350611b34868686611821565b9095509350611b4385856132aa565b92509250506116a8565b50935093915050565b5f805f8312611b6957508290505f6106ad565b7fffffffffffffffffffffffffffffffffffffffffffffffffffffffffffffffb4831215611b9b57505f9050826106ad565b5f839003600a0a808581611bb157611bb161494a565b0794859003959350505050565b5f818303611bcd575082610695565b82821315611c1057828203604c811380611be757505f8113155b15611bf5575f915050610695565b80600a0a8581611c0757611c0761494a565b05915050610695565b818303604c811380611c2257505f8113155b15611c6a576040517f1d5d6d100000000000000000000000000000000000000000000000000000000081526004810186905260248101859052604481018490526064016108ce565b600a81900a85810286828281611c8257611c8261494a565b0514611ccb576040517f1d5d6d100000000000000000000000000000000000000000000000000000000081526004810188905260248101879052604481018690526064016108ce565b9250610695915050565b5f8085158415178015611ced575f92505f9150611ef0565b5f86138015611cfb57505f84135b8015611d2f5750611d2c847f7fffffffffffffffffffffffffffffffffffffffffffffffffffffffffffffff6149a4565b86135b15611d70576040517fd556b11100000000000000000000000000000000000000000000000000000000815260048101889052602481018790526044016108ce565b5f86128015611d7e57505f84125b8015611db25750611daf847f80000000000000000000000000000000000000000000000000000000000000006149a4565b86125b15611df3576040517fd556b11100000000000000000000000000000000000000000000000000000000815260048101889052602481018790526044016108ce565b611dfd84876149ca565b91505f611e0988613c70565b90505f611e1587613c70565b90505f611e228383613cd6565b5090505f6f0785ee10d5da46d900f436a000000000821115611e57576f0785ee10d5da46d900f436a000000000820491506025015b670de0b6b3a7640000821115611e7857670de0b6b3a7640000820491506012015b633b9aca00821115611e9157633b9aca00820491506009015b612710821115611ea657612710820491506004015b8115611eba57600a82049150600101611ea6565b611ec481876149ca565b9550611ee68b8a611ee08787611edb87600a614b5a565b613d11565b89613df6565b9097509550505050505b5094509492505050565b5f80835f03611f3f576040517f7a97930f00000000000000000000000000000000000000000000000000000000815260048101879052602481018690526044016108ce565b855f03611f5057505f905080612515565b5f805f80611f5e8a8a613efd565b919b5099509150611f6f8888613efd565b919950975090505f611f808b613c70565b90505f611f8c8a613c70565b90507f161bcca7119915b50764b4abe86529797775a5f1719510000000000000000000604c818310156123a9578415611fea57507f0235fadd81c2822bb3f07877973d50f28bf22a31be8ee80000000000000000009050604b612368565b6f4b3b4ca85a86c47a098a22400000000083101561211657678ac7230489e8000083101561207a576402540be40083101561204857620186a08310156120385750620186a0905060056122f1565b506402540be4009050600a6122f1565b655af3107a40008310156120675750655af3107a40009050600e6122f1565b50678ac7230489e80000905060136122f1565b6b204fce5e3e250261100000008310156120cc5769152d02c7e14af68000008310156120b5575069152d02c7e14af6800000905060176122f1565b506b204fce5e3e250261100000009050601c6122f1565b6d314dc6448d9338c15b0a000000008310156120fb57506d314dc6448d9338c15b0a00000000905060216122f1565b506f4b3b4ca85a86c47a098a224000000000905060266122f1565b780197d4df19d605767337e9f14d3eec8920e40000000000000083101561220e5773af298d050e4395d69670b12b7f410000000000008310156121a9577172cb5bd86321e38cb6ce6682e8000000000083101561218a57507172cb5bd86321e38cb6ce6682e800000000009050602b6122f1565b5073af298d050e4395d69670b12b7f41000000000000905060306122f1565b76010b46c6cdd6e3e0828f4db456ff0c8ea00000000000008310156121ea575076010b46c6cdd6e3e0828f4db456ff0c8ea0000000000000905060356122f1565b50780197d4df19d605767337e9f14d3eec8920e4000000000000009050603a6122f1565b7c03b58e88c75313ec9d329eaaa18fb92f75215b171000000000000000008310156122a4577a026e4d30eccc3215dd8f3157d27e23acbdcfe6800000000000000083101561227c57507a026e4d30eccc3215dd8f3157d27e23acbdcfe680000000000000009050603f6122f1565b507c03b58e88c75313ec9d329eaaa18fb92f75215b17100000000000000000905060446122f1565b7e05a8e89d75252446eb5d5d5b1cc5edf20a1a059e10ca0000000000000000008310156122f157507e05a8e89d75252446eb5d5d5b1cc5edf20a1a059e10ca000000000000000000905060495b81831161232557600a820491507fffffffffffffffffffffffffffffffffffffffffffffffffffffffffffffffff016122f1565b815f03612368576040517f05e51ecb000000000000000000000000000000000000000000000000000000008152600481018d9052602481018c90526044016108ce565b856123a9576040517f05e51ecb000000000000000000000000000000000000000000000000000000008152600481018f9052602481018e90526044016108ce565b807f8000000000000000000000000000000000000000000000000000000000000000018d126123dc57808d039c5061244f565b7f80000000000000000000000000000000000000000000000000000000000000009c90038c015f81131561244f57807f7fffffffffffffffffffffffffffffffffffffffffffffffffffffffffffffff038b1361243c57998a019961244f565b5f80995099505050505050505050612515565b5f808e12801561245e57505f8c135b1561249b577f80000000000000000000000000000000000000000000000000000000000000008e01808d13612493575f612497565b808d035b9150505b8b818f010397506124b88f8e6124b2888789613d11565b8b613df6565b90995097505f81131561250257604c8113156124e2575f809a509a50505050505050505050612515565b80600a0a89816124f4576124f461494a565b059850885f03612502575f97505b5096985094965061251595505050505050565b94509492505050565b5f61252b858585856131d6565b1495945050505050565b60606125418383613b93565b90935091505f806125727f161bcca7119915b50764b4abe86529797775a5f171951000000000000000000086614b65565b156125a257507f161bcca7119915b50764b4abe86529797775a5f17195100000000000000000009050604c6125c9565b507f0235fadd81c2822bb3f07877973d50f28bf22a31be8ee80000000000000000009050604b5b5f6125d48387614b65565b90505f6125e18488614bcc565b90505f808312156125fb575060016125f883614bdf565b92505b5f8212156126125750600161260f82614bdf565b91505b60408051602081019091525f8152821561271b575f80612633600a89614c0f565b90505b6126408186614b65565b5f0361266557612651600a82614c0f565b90508161265d81614c22565b925050612636565b60408051602081019091525f8082525b838110156126c6578160405160200161268e9190614c70565b604080517fffffffffffffffffffffffffffffffffffffffffffffffffffffffffffffffe08184030181529190529150600101612675565b505b6126d3600a87614bcc565b5f036126eb576126e4600a87614b65565b95506126c8565b806126f58761419e565b604051602001612706929190614ca8565b60405160208183030381529060405293505050505b5f6127258561419e565b90505f612732878b6149ca565b90505f8115612768576127448261419e565b6040516020016127549190614cea565b604051602081830303815290604052612778565b60405180602001604052805f8152505b90505f856127945760405180602001604052805f8152506127cb565b6040518060400160405280600181526020017f2d000000000000000000000000000000000000000000000000000000000000008152505b9050808486846040516020016127e49493929190614d1b565b6040516020818303038152906040529a505050505050505050505092915050565b60606103e8821380612820575061281d6103e8614bdf565b82125b1561285a576040517fe44c72b0000000000000000000000000000000000000000000000000000000008152600481018390526024016108ce565b5f8084129081156128755761286e85614bdf565b9050612878565b50835b5f6128828261422a565b80519091505f5b8181108015612905575082816128a0600185614d3b565b6128aa9190614d3b565b815181106128ba576128ba614d4e565b6020910101517fff00000000000000000000000000000000000000000000000000000000000000167f3000000000000000000000000000000000000000000000000000000000000000145b1561291c578061291481614c22565b915050612889565b5f6129278284614d3b565b90505f612934838a6149ca565b90505f876129505760405180602001604052805f815250612987565b6040518060400160405280600181526020017f2d000000000000000000000000000000000000000000000000000000000000008152505b90505f8212612b0157815f61299c8286614d7b565b67ffffffffffffffff8111156129b4576129b461482b565b6040519080825280601f01601f1916602001820160405280156129de576020820181803683370190505b5090505f5b85811015612a50578881815181106129fd576129fd614d4e565b602001015160f81c60f81b828281518110612a1a57612a1a614d4e565b60200101907effffffffffffffffffffffffffffffffffffffffffffffffffffffffffffff191690815f1a9053506001016129e3565b505f5b82811015612acd577f300000000000000000000000000000000000000000000000000000000000000082612a878389614d7b565b81518110612a9757612a97614d4e565b60200101907effffffffffffffffffffffffffffffffffffffffffffffffffffffffffffff191690815f1a905350600101612a53565b508281604051602001612ae1929190614d8e565b6040516020818303038152906040529a5050505050505050505050610684565b5f612b0b83614bdf565b905080841115612d22575f612b208286614d3b565b90505f612b2e866001614d7b565b67ffffffffffffffff811115612b4657612b4661482b565b6040519080825280601f01601f191660200182016040528015612b70576020820181803683370190505b5090505f5b82811015612be257898181518110612b8f57612b8f614d4e565b602001015160f81c60f81b828281518110612bac57612bac614d4e565b60200101907effffffffffffffffffffffffffffffffffffffffffffffffffffffffffffff191690815f1a905350600101612b75565b507f2e00000000000000000000000000000000000000000000000000000000000000818381518110612c1657612c16614d4e565b60200101907effffffffffffffffffffffffffffffffffffffffffffffffffffffffffffff191690815f1a9053505f5b83811015612ced5789612c598285614d7b565b81518110612c6957612c69614d4e565b01602001517fff00000000000000000000000000000000000000000000000000000000000000168282612c9d866001614d7b565b612ca79190614d7b565b81518110612cb757612cb7614d4e565b60200101907effffffffffffffffffffffffffffffffffffffffffffffffffffffffffffff191690815f1a905350600101612c46565b508381604051602001612d01929190614d8e565b6040516020818303038152906040529b505050505050505050505050610684565b5f612d2d8583614d3b565b90505f85612d3c836002614d7b565b612d469190614d7b565b67ffffffffffffffff811115612d5e57612d5e61482b565b6040519080825280601f01601f191660200182016040528015612d88576020820181803683370190505b5090507f3000000000000000000000000000000000000000000000000000000000000000815f81518110612dbe57612dbe614d4e565b60200101907effffffffffffffffffffffffffffffffffffffffffffffffffffffffffffff191690815f1a9053507f2e0000000000000000000000000000000000000000000000000000000000000081600181518110612e2057612e20614d4e565b60200101907effffffffffffffffffffffffffffffffffffffffffffffffffffffffffffff191690815f1a9053505f5b82811015612ecb577f300000000000000000000000000000000000000000000000000000000000000082612e85836002614d7b565b81518110612e9557612e95614d4e565b60200101907effffffffffffffffffffffffffffffffffffffffffffffffffffffffffffff191690815f1a905350600101612e50565b505f5b86811015612ced57898181518110612ee857612ee8614d4e565b01602001517fff00000000000000000000000000000000000000000000000000000000000000168282612f1c866002614d7b565b612f269190614d7b565b81518110612f3657612f36614d4e565b60200101907effffffffffffffffffffffffffffffffffffffffffffffffffffffffffffff191690815f1a905350600101612ece565b5f805f805f612f7b87876138f2565b92509250925080612fc2576040517fc471796600000000000000000000000000000000000000000000000000000000815260048101849052602481018390526044016108ce565b50909590945092505050565b5f805f612fdb85856137ec565b915091508061149e576040517f22c9f7bb00000000000000000000000000000000000000000000000000000000815260048101869052602481018590526044016108ce565b5f8061302c84846132aa565b909450925061303d868686866130a6565b9150915094509492505050565b5f805f6130588686866114a6565b915091508061309d576040517f05e4767800000000000000000000000000000000000000000000000000000000815260048101879052602481018690526044016108ce565b50949350505050565b5f80851584151780156130d257865f036130c65784849250925050612515565b86869250925050612515565b6130dc8787613b93565b90975095506130eb8585613b93565b9095509350858413156130ff579395929492935b838603604c811115613118578787935093505050612515565b80600a0a868161312a5761312a61494a565b0595505086850180881860ff90811c151589881890911c151680156131c557877f7fffffffffffffffffffffffffffffffffffffffffffffffffffffffffffffff036131ac576040517fd556b111000000000000000000000000000000000000000000000000000000008152600481018a9052602481018990526044016108ce565b600a9687900596909805860197600197909701966131c9565b8198505b5096979596505050505050565b5f80851584151781871282861218178584141780156131fb5786859250925050612515565b505f8584131561320f575092949193919260015b8386035f8112604c8213178015613242578215613234575f8994509450505050612515565b885f94509450505050612515565b600a82900a8981028a82828161325a5761325a61494a565b0514613286578415613276575f8b965096505050505050612515565b8a5f965096505050505050612515565b841561329b5788965094506125159350505050565b95508794506125159350505050565b5f807f80000000000000000000000000000000000000000000000000000000000000008403613343577f7fffffffffffffffffffffffffffffffffffffffffffffffffffffffffffffff8303613336576040517fd556b11100000000000000000000000000000000000000000000000000000000815260048101859052602481018490526044016108ce565b600a840593508260010192505b50505f9190910391565b5f8281806133628386652000000000006142e6565b9250858314158361337c81886703ff0000000000006142e6565b94508085036133b657507f34bd20690000000000000000000000000000000000000000000000000000000094505f92508291506137e39050565b5f806133c28a8861430f565b90925090507fffffffff00000000000000000000000000000000000000000000000000000000821615613400575095505f93508392506137e3915050565b86519095506540000000000060015f9290921a9190911b16151588871016915050801561368f57506001909301925f8461344381896703ff0000000000006142e6565b955080860361347e57507f7bfa48af0000000000000000000000000000000000000000000000000000000095505f93508392506137e3915050565b855b7fffffffffffffffffffffffffffffffffffffffffffffffffffffffffffffffff81018051908a1160015f9290921a9190911b6601000000000000161515166001036134ed577fffffffffffffffffffffffffffffffffffffffffffffffffffffffffffffffff01613480565b818114613544575f80613500848461430f565b90925090507fffffffff00000000000000000000000000000000000000000000000000000000821615613540575097505f95508594506137e39350505050565b9350505b5f83121561357f57507f7bfa48af0000000000000000000000000000000000000000000000000000000096505f94508493506137e392505050565b831561358b57825f0392505b80820394505f8513156135cb57507f013b2aaa0000000000000000000000000000000000000000000000000000000096505f94508493506137e392505050565b855f036135da5782955061368c565b5f859003604381111561361b57507f32b8b8be0000000000000000000000000000000000000000000000000000000097505f95508594506137e39350505050565b600a0a8681025f888383816136325761363261494a565b0514159050601b82900b82141581806136485750805b1561368457507f32b8b8be000000000000000000000000000000000000000000000000000000009a505f98508897506137e39650505050505050565b505084019650505b50505b84516c2000000020000000000000000060015f9290921a9190911b1615158786101680156137d457600190950194856136cf818a652000000000006142e6565b9650866136e5818b6703ff0000000000006142e6565b975080880361372257507f013b2aaa0000000000000000000000000000000000000000000000000000000097505f95508594506137e39350505050565b505f8061372f838a61430f565b90925090507fffffffff0000000000000000000000000000000000000000000000000000000082161561376f575097505f95508594506137e39350505050565b9250508482015f8313801561378357508581125b8061379757505f8312801561379757508581135b156137d057507fd556b1110000000000000000000000000000000000000000000000000000000097505f95508594506137e39350505050565b9450505b845f036137df575f93505b5050505b92959194509250565b5f601b83900b8314838382613850577d90e40fbeea1d3a4abc8955e946fe31cdcf66f634e100000000000000000086051561383057620186a0860595506005850194505b8586601b0b1461384b57600a86059550846001019450613830565b613866565b855f0361386657505f9250600191506106ad9050565b848560030b146138c2575f85121561388657505f92508291506106ad9050565b6040517fd556b11100000000000000000000000000000000000000000000000000000000815260048101839052602481018290526044016108ce565b50507bffffffffffffffffffffffffffffffffffffffffffffffffffffffff841660e084901b1791509250929050565b5f808060ff841681037f7fffffffffffffffffffffffffffffffffffffffffffffffffffffffffffffff86111561393d57600a860460018201600a88065f1493509350935050613947565b8593509150600190505b9250925092565b5f805f837ffffffffffffffffffffffffffffffffffffffffffffffffffffffffffffffffc0361398657508391505f90506001613947565b7ffffffffffffffffffffffffffffffffffffffffffffffffffffffffffffffffc841215613a14577fffffffffffffffffffffffffffffffffffffffffffffffffffffffffffffffb08412156139e557505f9150508215156001613947565b5f846004015f03600a0a90505f818781613a0157613a0161494a565b0594505080840286141592509050613947565b5f8412613a2957505f91508190506001613947565b50505060048101600a0a82025f6001613947565b5f80806064613a4f600a612328614c0f565b613a5c600a612328614c0f565b613a67906002614d9c565b613a72906001614d7b565b613a7c9190614d7b565b613a869190614d7b565b9050613aca565b5f8052600280600a8504028301601e833c5f80516107d0840193505f80526001600a8606600a6064880402018501601f853c5f5101949350505050565b613ad5858288613a8d565b92508315611b4d57613aeb600186018288613a8d565b915050935093915050565b5f80888803613b09575083905081613b87565b5f805f80613b198c8b8f8d613020565b915091505f80613b2b8a8a8d8c613020565b91509150613b3b84848484611cd5565b8096508197505050505050505f80613b558b8b8f8d613020565b915091505f80613b6786868686611efa565b915091505f80613b7984848f8e6130a6565b909a50985050505050505050505b97509795505050505050565b5f805f805f613ba28787613efd565b92509250925080612fc2576040517f05e51ecb00000000000000000000000000000000000000000000000000000000815260048101889052602481018790526044016108ce565b5f80613bf8600a612328614c0f565b613c03906002614d9c565b613c0e906001614d7b565b90505f613c1e600a612328614c0f565b90506002600a8504026001015f8052600281601e883c505f51617fff81169350618000811615613c4d57918101915b505f80526001600a8506600a6064870402018301601f873c50505f510192915050565b5f80821215613ccd577f80000000000000000000000000000000000000000000000000000000000000008203613cc757507f8000000000000000000000000000000000000000000000000000000000000000919050565b505f0390565b5090565b919050565b5f807fffffffffffffffffffffffffffffffffffffffffffffffffffffffffffffffff83850993909202808410938190039390930393915050565b5f805f613d1e8686613cd6565b91509150815f03613d4257838181613d3857613d3861494a565b0492505050610695565b838210613d8c576040517f6c59da120000000000000000000000000000000000000000000000000000000081526004810187905260248101869052604481018590526064016108ce565b5f84868809600186198101871696879004966002600389028118808a02820302808a02820302808a02820302808a02820302808a02820302808a02909103025f82900382900490920185841190960395909502919093039390930492909217029150509392505050565b5f805f8587181215613ec0577f7fffffffffffffffffffffffffffffffffffffffffffffffffffffffffffffff841115613ead57613e557f7fffffffffffffffffffffffffffffffffffffffffffffffffffffffffffffff6001614d7b565b8403613e8557507f8000000000000000000000000000000000000000000000000000000000000000905081612515565b613e90600a85614c0f565b613e9990614bdf565b613ea48460016149ca565b91509150612515565b613eb684614bdf565b8391509150612515565b7f7fffffffffffffffffffffffffffffffffffffffffffffffffffffffffffffff841115613ef357613e99600a85614c0f565b5082905081612515565b5f805f845f03613f1557505f91508190506001613947565b7f0235fadd81c2822bb3f07877973d50f28bf22a31be8ee800000000000000000085055f03614129576f4b3b4ca85a86c47a098a2240000000008505158015613f7e57507f80000000000000000000000000000000000000000000000000000000000000268412155b15613f9f576f4b3b4ca85a86c47a098a224000000000850294506026840393505b7728c87cb5c89a2571ebfdcb54864ada834a000000000000008505158015613fe757507f80000000000000000000000000000000000000000000000000000000000000138412155b1561400057678ac7230489e80000850294506013840393505b7b097edd871cfda3a5697758bf0e3cbb5ac5741c640000000000000000850515801561404c57507f800000000000000000000000000000000000000000000000000000000000000a8412155b15614062576402540be40085029450600a840393505b7e3899162693736ac531a5a58f1fbb4b746504382ca7e400000000000000000085051580156140b157507f80000000000000000000000000000000000000000000000000000000000000028412155b156140c757606485029450600284039350614062565b7f0235fadd81c2822bb3f07877973d50f28bf22a31be8ee8000000000000000000850515801561411757507f80000000000000000000000000000000000000000000000000000000000000018412155b1561412957600a850294506001840393505b600a8086029081058614801561415f57507f80000000000000000000000000000000000000000000000000000000000000018512155b1561416e578095506001850394505b50939492935050507f0235fadd81c2822bb3f07877973d50f28bf22a31be8ee80000000000000000008305151590565b60605f82126141bb5760405180602001604052805f8152506141f2565b6040518060400160405280600181526020017f2d000000000000000000000000000000000000000000000000000000000000008152505b61420360ff84901d8085011861422a565b604051602001614214929190614d8e565b6040516020818303038152906040529050919050565b60605f61423683614439565b60010190505f8167ffffffffffffffff8111156142555761425561482b565b6040519080825280601f01601f19166020018201604052801561427f576020820181803683370190505b5090508181016020015b7fffffffffffffffffffffffffffffffffffffffffffffffffffffffffffffffff017f3031323334353637383961626364656600000000000000000000000000000000600a86061a8153600a850494508461428957509392505050565b5f5b5f82600186515f1a1b16118385101615614307576001840193506142e8565b509192915050565b81515f90819065200000000000600191831a9190911b1615158385101680850190828061433c848861451a565b90925090507fffffffff00000000000000000000000000000000000000000000000000000000821615614377575093505f92506106ad915050565b825f036143da577f7fffffffffffffffffffffffffffffffffffffffffffffffffffffffffffffff81116143ab575f6143cd565b7f0fdc2635000000000000000000000000000000000000000000000000000000005b955093506106ad92505050565b7f80000000000000000000000000000000000000000000000000000000000000008111614407575f614429565b7f0fdc2635000000000000000000000000000000000000000000000000000000005b95505f0393505050509250929050565b5f807a184f03e93ff9f4daa797ed6e38ed64bf6a1f0100000000000000008310614481577a184f03e93ff9f4daa797ed6e38ed64bf6a1f010000000000000000830492506040015b6d04ee2d6d415b85acef810000000083106144ad576d04ee2d6d415b85acef8100000000830492506020015b662386f26fc1000083106144cb57662386f26fc10000830492506010015b6305f5e10083106144e3576305f5e100830492506008015b61271083106144f757612710830492506004015b60648310614509576064830492506002015b600a83106106845760010192915050565b5f8082841061454d57507f34bd20690000000000000000000000000000000000000000000000000000000090505f6106ad565b835f03614586576040517fda6966d400000000000000000000000000000000000000000000000000000000815260040160405180910390fd5b60305f7fffffffffffffffffffffffffffffffffffffffffffffffffffffffffffffffff8501815b8782101580156145be5750604d83105b1561460157815160018401937fffffffffffffffffffffffffffffffffffffffffffffffffffffffffffffffff90930192600a0a5f9190911a85900302016145ae565b8782106147275781515f1a849003600181111561464957507f0fdc26350000000000000000000000000000000000000000000000000000000095505f94506106ad9350505050565b600a84900a810282810183111561468c57507f0fdc26350000000000000000000000000000000000000000000000000000000096505f95506106ad945050505050565b9190910190507fffffffffffffffffffffffffffffffffffffffffffffffffffffffffffffffff909101905b8782106147275781515f1a603081146146fc57507f0fdc26350000000000000000000000000000000000000000000000000000000095505f94506106ad9350505050565b507fffffffffffffffffffffffffffffffffffffffffffffffffffffffffffffffff909101906146b8565b5f9890975095505050505050565b5f60208284031215614745575f80fd5b5035919050565b5f806040838503121561475d575f80fd5b50508035926020909101359150565b803560ff81168114613cd1575f80fd5b5f806040838503121561478d575f80fd5b8235915061479d6020840161476c565b90509250929050565b5f80604083850312156147b7575f80fd5b82359150602083013580151581146147cd575f80fd5b809150509250929050565b602081525f82518060208401528060208501604085015e5f6040828501015260407fffffffffffffffffffffffffffffffffffffffffffffffffffffffffffffffe0601f83011684010191505092915050565b7f4e487b71000000000000000000000000000000000000000000000000000000005f52604160045260245ffd5b5f60208284031215614868575f80fd5b813567ffffffffffffffff8082111561487f575f80fd5b818401915084601f830112614892575f80fd5b8135818111156148a4576148a461482b565b604051601f82017fffffffffffffffffffffffffffffffffffffffffffffffffffffffffffffffe0908116603f011681019083821181831017156148ea576148ea61482b565b81604052828152876020848701011115614902575f80fd5b826020860160208301375f928101602001929092525095945050505050565b5f805f60608486031215614933575f80fd5b505081359360208301359350604090920135919050565b7f4e487b71000000000000000000000000000000000000000000000000000000005f52601260045260245ffd5b7f4e487b71000000000000000000000000000000000000000000000000000000005f52601160045260245ffd5b8181035f8312801583831316838312821617156149c3576149c3614977565b5092915050565b8082018281125f8312801582168215821617156149e9576149e9614977565b505092915050565b8082025f82127f800000000000000000000000000000000000000000000000000000000000000084141615614a2857614a28614977565b818105831482151761068457610684614977565b600181815b80851115614a9557817fffffffffffffffffffffffffffffffffffffffffffffffffffffffffffffffff04821115614a7b57614a7b614977565b80851615614a8857918102915b93841c9390800290614a41565b509250929050565b5f82614aab57506001610684565b81614ab757505f610684565b8160018114614acd5760028114614ad757614af3565b6001915050610684565b60ff841115614ae857614ae8614977565b50506001821b610684565b5060208310610133831016604e8410600b8410161715614b16575081810a610684565b614b208383614a3c565b807fffffffffffffffffffffffffffffffffffffffffffffffffffffffffffffffff04821115614b5257614b52614977565b029392505050565b5f6106958383614a9d565b5f82614b7357614b7361494a565b7fffffffffffffffffffffffffffffffffffffffffffffffffffffffffffffffff83147f800000000000000000000000000000000000000000000000000000000000000083141615614bc757614bc7614977565b500590565b5f82614bda57614bda61494a565b500790565b5f7f80000000000000000000000000000000000000000000000000000000000000008203613cc757613cc7614977565b5f82614c1d57614c1d61494a565b500490565b5f7fffffffffffffffffffffffffffffffffffffffffffffffffffffffffffffffff8203614c5257614c52614977565b5060010190565b5f81518060208401855e5f93019283525090919050565b5f614c7b8284614c59565b7f300000000000000000000000000000000000000000000000000000000000000081526001019392505050565b7f2e0000000000000000000000000000000000000000000000000000000000000081525f614ce2614cdc6001840186614c59565b84614c59565b949350505050565b7f650000000000000000000000000000000000000000000000000000000000000081525f6106956001830184614c59565b5f610a29614cdc614d35614d2f858a614c59565b88614c59565b86614c59565b8181038181111561068457610684614977565b7f4e487b71000000000000000000000000000000000000000000000000000000005f52603260045260245ffd5b8082018082111561068457610684614977565b5f614ce2614cdc8386614c59565b80820281158282048414176106845761068461497756"
  }
}