{
  "abi": [
    {
      "type": "constructor",
      "inputs": [],
      "stateMutability": "nonpayable"
    },
    {
      "type": "function",
      "name": "FORMAT_DEFAULT_SCIENTIFIC_MAX",
      "inputs": [],
      "outputs": [
        {
          "name": "",
          "type": "bytes32",
          "internalType": "Float"
        }
      ],
      "stateMutability": "view"
    },
    {
      "type": "function",
      "name": "FORMAT_DEFAULT_SCIENTIFIC_MIN",
      "inputs": [],
      "outputs": [
        {
          "name": "",
          "type": "bytes32",
          "internalType": "Float"
        }
      ],
      "stateMutability": "view"
    },
    {
      "type": "function",
      "name": "abs",
      "inputs": [
        {
          "name": "a",
          "type": "bytes32",
          "internalType": "Float"
        }
      ],
      "outputs": [
        {
          "name": "",
          "type": "bytes32",
          "internalType": "Float"
        }
      ],
      "stateMutability": "pure"
    },
    {
      "type": "function",
      "name": "add",
      "inputs": [
        {
          "name": "a",
          "type": "bytes32",
          "internalType": "Float"
        },
        {
          "name": "b",
          "type": "bytes32",
          "internalType": "Float"
        }
      ],
      "outputs": [
        {
          "name": "",
          "type": "bytes32",
          "internalType": "Float"
        }
      ],
      "stateMutability": "pure"
    },
    {
      "type": "function",
      "name": "canonicalize",
      "inputs": [
        {
          "name": "a",
          "type": "bytes32",
          "internalType": "Float"
        }
      ],
      "outputs": [
        {
          "name": "",
          "type": "bytes32",
          "internalType": "Float"
        }
      ],
      "stateMutability": "pure"
    },
    {
      "type": "function",
      "name": "ceil",
      "inputs": [
        {
          "name": "a",
          "type": "bytes32",
          "internalType": "Float"
        }
      ],
      "outputs": [
        {
          "name": "",
          "type": "bytes32",
          "internalType": "Float"
        }
      ],
      "stateMutability": "pure"
    },
    {
      "type": "function",
      "name": "div",
      "inputs": [
        {
          "name": "a",
          "type": "bytes32",
          "internalType": "Float"
        },
        {
          "name": "b",
          "type": "bytes32",
          "internalType": "Float"
        }
      ],
      "outputs": [
        {
          "name": "",
          "type": "bytes32",
          "internalType": "Float"
        }
      ],
      "stateMutability": "pure"
    },
    {
      "type": "function",
      "name": "e",
      "inputs": [],
      "outputs": [
        {
          "name": "",
          "type": "bytes32",
          "internalType": "Float"
        }
      ],
      "stateMutability": "pure"
    },
    {
      "type": "function",
      "name": "eq",
      "inputs": [
        {
          "name": "a",
          "type": "bytes32",
          "internalType": "Float"
        },
        {
          "name": "b",
          "type": "bytes32",
          "internalType": "Float"
        }
      ],
      "outputs": [
        {
          "name": "",
          "type": "bool",
          "internalType": "bool"
        }
      ],
      "stateMutability": "pure"
    },
    {
      "type": "function",
      "name": "floor",
      "inputs": [
        {
          "name": "a",
          "type": "bytes32",
          "internalType": "Float"
        }
      ],
      "outputs": [
        {
          "name": "",
          "type": "bytes32",
          "internalType": "Float"
        }
      ],
      "stateMutability": "pure"
    },
    {
      "type": "function",
      "name": "format",
      "inputs": [
        {
          "name": "a",
          "type": "bytes32",
          "internalType": "Float"
        },
        {
          "name": "scientific",
          "type": "bool",
          "internalType": "bool"
        }
      ],
      "outputs": [
        {
          "name": "",
          "type": "string",
          "internalType": "string"
        }
      ],
      "stateMutability": "pure"
    },
    {
      "type": "function",
      "name": "format",
      "inputs": [
        {
          "name": "a",
          "type": "bytes32",
          "internalType": "Float"
        }
      ],
      "outputs": [
        {
          "name": "",
          "type": "string",
          "internalType": "string"
        }
      ],
      "stateMutability": "pure"
    },
    {
      "type": "function",
      "name": "format",
      "inputs": [
        {
          "name": "a",
          "type": "bytes32",
          "internalType": "Float"
        },
        {
          "name": "scientificMin",
          "type": "bytes32",
          "internalType": "Float"
        },
        {
          "name": "scientificMax",
          "type": "bytes32",
          "internalType": "Float"
        }
      ],
      "outputs": [
        {
          "name": "",
          "type": "string",
          "internalType": "string"
        }
      ],
      "stateMutability": "pure"
    },
    {
      "type": "function",
      "name": "frac",
      "inputs": [
        {
          "name": "a",
          "type": "bytes32",
          "internalType": "Float"
        }
      ],
      "outputs": [
        {
          "name": "",
          "type": "bytes32",
          "internalType": "Float"
        }
      ],
      "stateMutability": "pure"
    },
    {
      "type": "function",
      "name": "fromFixedDecimalLossless",
      "inputs": [
        {
          "name": "value",
          "type": "uint256",
          "internalType": "uint256"
        },
        {
          "name": "decimals",
          "type": "uint8",
          "internalType": "uint8"
        }
      ],
      "outputs": [
        {
          "name": "",
          "type": "bytes32",
          "internalType": "Float"
        }
      ],
      "stateMutability": "pure"
    },
    {
      "type": "function",
      "name": "fromFixedDecimalLossy",
      "inputs": [
        {
          "name": "value",
          "type": "uint256",
          "internalType": "uint256"
        },
        {
          "name": "decimals",
          "type": "uint8",
          "internalType": "uint8"
        }
      ],
      "outputs": [
        {
          "name": "",
          "type": "bytes32",
          "internalType": "Float"
        },
        {
          "name": "",
          "type": "bool",
          "internalType": "bool"
        }
      ],
      "stateMutability": "pure"
    },
    {
      "type": "function",
      "name": "gt",
      "inputs": [
        {
          "name": "a",
          "type": "bytes32",
          "internalType": "Float"
        },
        {
          "name": "b",
          "type": "bytes32",
          "internalType": "Float"
        }
      ],
      "outputs": [
        {
          "name": "",
          "type": "bool",
          "internalType": "bool"
        }
      ],
      "stateMutability": "pure"
    },
    {
      "type": "function",
      "name": "gte",
      "inputs": [
        {
          "name": "a",
          "type": "bytes32",
          "internalType": "Float"
        },
        {
          "name": "b",
          "type": "bytes32",
          "internalType": "Float"
        }
      ],
      "outputs": [
        {
          "name": "",
          "type": "bool",
          "internalType": "bool"
        }
      ],
      "stateMutability": "pure"
    },
    {
      "type": "function",
      "name": "integer",
      "inputs": [
        {
          "name": "a",
          "type": "bytes32",
          "internalType": "Float"
        }
      ],
      "outputs": [
        {
          "name": "",
          "type": "bytes32",
          "internalType": "Float"
        }
      ],
      "stateMutability": "pure"
    },
    {
      "type": "function",
      "name": "inv",
      "inputs": [
        {
          "name": "a",
          "type": "bytes32",
          "internalType": "Float"
        }
      ],
      "outputs": [
        {
          "name": "",
          "type": "bytes32",
          "internalType": "Float"
        }
      ],
      "stateMutability": "pure"
    },
    {
      "type": "function",
      "name": "isZero",
      "inputs": [
        {
          "name": "a",
          "type": "bytes32",
          "internalType": "Float"
        }
      ],
      "outputs": [
        {
          "name": "",
          "type": "bool",
          "internalType": "bool"
        }
      ],
      "stateMutability": "pure"
    },
    {
      "type": "function",
      "name": "log10",
      "inputs": [
        {
          "name": "a",
          "type": "bytes32",
          "internalType": "Float"
        }
      ],
      "outputs": [
        {
          "name": "",
          "type": "bytes32",
          "internalType": "Float"
        }
      ],
      "stateMutability": "view"
    },
    {
      "type": "function",
      "name": "lt",
      "inputs": [
        {
          "name": "a",
          "type": "bytes32",
          "internalType": "Float"
        },
        {
          "name": "b",
          "type": "bytes32",
          "internalType": "Float"
        }
      ],
      "outputs": [
        {
          "name": "",
          "type": "bool",
          "internalType": "bool"
        }
      ],
      "stateMutability": "pure"
    },
    {
      "type": "function",
      "name": "lte",
      "inputs": [
        {
          "name": "a",
          "type": "bytes32",
          "internalType": "Float"
        },
        {
          "name": "b",
          "type": "bytes32",
          "internalType": "Float"
        }
      ],
      "outputs": [
        {
          "name": "",
          "type": "bool",
          "internalType": "bool"
        }
      ],
      "stateMutability": "pure"
    },
    {
      "type": "function",
      "name": "max",
      "inputs": [
        {
          "name": "a",
          "type": "bytes32",
          "internalType": "Float"
        },
        {
          "name": "b",
          "type": "bytes32",
          "internalType": "Float"
        }
      ],
      "outputs": [
        {
          "name": "",
          "type": "bytes32",
          "internalType": "Float"
        }
      ],
      "stateMutability": "pure"
    },
    {
      "type": "function",
      "name": "maxNegativeValue",
      "inputs": [],
      "outputs": [
        {
          "name": "",
          "type": "bytes32",
          "internalType": "Float"
        }
      ],
      "stateMutability": "pure"
    },
    {
      "type": "function",
      "name": "maxPositiveValue",
      "inputs": [],
      "outputs": [
        {
          "name": "",
          "type": "bytes32",
          "internalType": "Float"
        }
      ],
      "stateMutability": "pure"
    },
    {
      "type": "function",
      "name": "min",
      "inputs": [
        {
          "name": "a",
          "type": "bytes32",
          "internalType": "Float"
        },
        {
          "name": "b",
          "type": "bytes32",
          "internalType": "Float"
        }
      ],
      "outputs": [
        {
          "name": "",
          "type": "bytes32",
          "internalType": "Float"
        }
      ],
      "stateMutability": "pure"
    },
    {
      "type": "function",
      "name": "minNegativeValue",
      "inputs": [],
      "outputs": [
        {
          "name": "",
          "type": "bytes32",
          "internalType": "Float"
        }
      ],
      "stateMutability": "pure"
    },
    {
      "type": "function",
      "name": "minPositiveValue",
      "inputs": [],
      "outputs": [
        {
          "name": "",
          "type": "bytes32",
          "internalType": "Float"
        }
      ],
      "stateMutability": "pure"
    },
    {
      "type": "function",
      "name": "minus",
      "inputs": [
        {
          "name": "a",
          "type": "bytes32",
          "internalType": "Float"
        }
      ],
      "outputs": [
        {
          "name": "",
          "type": "bytes32",
          "internalType": "Float"
        }
      ],
      "stateMutability": "pure"
    },
    {
      "type": "function",
      "name": "mul",
      "inputs": [
        {
          "name": "a",
          "type": "bytes32",
          "internalType": "Float"
        },
        {
          "name": "b",
          "type": "bytes32",
          "internalType": "Float"
        }
      ],
      "outputs": [
        {
          "name": "",
          "type": "bytes32",
          "internalType": "Float"
        }
      ],
      "stateMutability": "pure"
    },
    {
      "type": "function",
      "name": "parse",
      "inputs": [
        {
          "name": "str",
          "type": "string",
          "internalType": "string"
        }
      ],
      "outputs": [
        {
          "name": "",
          "type": "bytes4",
          "internalType": "bytes4"
        },
        {
          "name": "",
          "type": "bytes32",
          "internalType": "Float"
        }
      ],
      "stateMutability": "pure"
    },
    {
      "type": "function",
      "name": "pow",
      "inputs": [
        {
          "name": "a",
          "type": "bytes32",
          "internalType": "Float"
        },
        {
          "name": "b",
          "type": "bytes32",
          "internalType": "Float"
        }
      ],
      "outputs": [
        {
          "name": "",
          "type": "bytes32",
          "internalType": "Float"
        }
      ],
      "stateMutability": "view"
    },
    {
      "type": "function",
      "name": "pow10",
      "inputs": [
        {
          "name": "a",
          "type": "bytes32",
          "internalType": "Float"
        }
      ],
      "outputs": [
        {
          "name": "",
          "type": "bytes32",
          "internalType": "Float"
        }
      ],
      "stateMutability": "view"
    },
    {
      "type": "function",
      "name": "sqrt",
      "inputs": [
        {
          "name": "a",
          "type": "bytes32",
          "internalType": "Float"
        }
      ],
      "outputs": [
        {
          "name": "",
          "type": "bytes32",
          "internalType": "Float"
        }
      ],
      "stateMutability": "view"
    },
    {
      "type": "function",
      "name": "sub",
      "inputs": [
        {
          "name": "a",
          "type": "bytes32",
          "internalType": "Float"
        },
        {
          "name": "b",
          "type": "bytes32",
          "internalType": "Float"
        }
      ],
      "outputs": [
        {
          "name": "",
          "type": "bytes32",
          "internalType": "Float"
        }
      ],
      "stateMutability": "pure"
    },
    {
      "type": "function",
      "name": "toFixedDecimalLossless",
      "inputs": [
        {
          "name": "float",
          "type": "bytes32",
          "internalType": "Float"
        },
        {
          "name": "decimals",
          "type": "uint8",
          "internalType": "uint8"
        }
      ],
      "outputs": [
        {
          "name": "",
          "type": "uint256",
          "internalType": "uint256"
        }
      ],
      "stateMutability": "pure"
    },
    {
      "type": "function",
      "name": "toFixedDecimalLossy",
      "inputs": [
        {
          "name": "float",
          "type": "bytes32",
          "internalType": "Float"
        },
        {
          "name": "decimals",
          "type": "uint8",
          "internalType": "uint8"
        }
      ],
      "outputs": [
        {
          "name": "",
          "type": "uint256",
          "internalType": "uint256"
        },
        {
          "name": "",
          "type": "bool",
          "internalType": "bool"
        }
      ],
      "stateMutability": "pure"
    },
    {
      "type": "function",
      "name": "zero",
      "inputs": [],
      "outputs": [
        {
          "name": "",
          "type": "bytes32",
          "internalType": "Float"
        }
      ],
      "stateMutability": "pure"
    },
    {
      "type": "error",
      "name": "CoefficientOverflow",
      "inputs": [
        {
          "name": "signedCoefficient",
          "type": "int256",
          "internalType": "int256"
        },
        {
          "name": "exponent",
          "type": "int256",
          "internalType": "int256"
        }
      ]
    },
    {
      "type": "error",
      "name": "DivisionByZero",
      "inputs": [
        {
          "name": "signedCoefficient",
          "type": "int256",
          "internalType": "int256"
        },
        {
          "name": "exponent",
          "type": "int256",
          "internalType": "int256"
        }
      ]
    },
    {
      "type": "error",
      "name": "ExponentOverflow",
      "inputs": [
        {
          "name": "signedCoefficient",
          "type": "int256",
          "internalType": "int256"
        },
        {
          "name": "exponent",
          "type": "int256",
          "internalType": "int256"
        }
      ]
    },
    {
      "type": "error",
      "name": "ExponentUnderflow",
      "inputs": [
        {
          "name": "signedCoefficient",
          "type": "int256",
          "internalType": "int256"
        },
        {
          "name": "exponent",
          "type": "int256",
          "internalType": "int256"
        }
      ]
    },
    {
      "type": "error",
      "name": "FixedDecimalOverflow",
      "inputs": [
        {
          "name": "signedCoefficient",
          "type": "int256",
          "internalType": "int256"
        },
        {
          "name": "exponent",
          "type": "int256",
          "internalType": "int256"
        },
        {
          "name": "decimals",
          "type": "uint8",
          "internalType": "uint8"
        }
      ]
    },
    {
      "type": "error",
      "name": "Log10Negative",
      "inputs": [
        {
          "name": "signedCoefficient",
          "type": "int256",
          "internalType": "int256"
        },
        {
          "name": "exponent",
          "type": "int256",
          "internalType": "int256"
        }
      ]
    },
    {
      "type": "error",
      "name": "Log10Zero",
      "inputs": []
    },
    {
      "type": "error",
      "name": "LogTablesNotDeployed",
      "inputs": [
        {
          "name": "tablesAddress",
          "type": "address",
          "internalType": "address"
        },
        {
          "name": "expectedCodehash",
          "type": "bytes32",
          "internalType": "bytes32"
        },
        {
          "name": "actualCodehash",
          "type": "bytes32",
          "internalType": "bytes32"
        }
      ]
    },
    {
      "type": "error",
      "name": "LossyConversionFromFloat",
      "inputs": [
        {
          "name": "signedCoefficient",
          "type": "int256",
          "internalType": "int256"
        },
        {
          "name": "exponent",
          "type": "int256",
          "internalType": "int256"
        }
      ]
    },
    {
      "type": "error",
      "name": "LossyConversionToFloat",
      "inputs": [
        {
          "name": "signedCoefficient",
          "type": "int256",
          "internalType": "int256"
        },
        {
          "name": "exponent",
          "type": "int256",
          "internalType": "int256"
        }
      ]
    },
    {
      "type": "error",
      "name": "MaximizeOverflow",
      "inputs": [
        {
          "name": "signedCoefficient",
          "type": "int256",
          "internalType": "int256"
        },
        {
          "name": "exponent",
          "type": "int256",
          "internalType": "int256"
        }
      ]
    },
    {
      "type": "error",
      "name": "MulDivOverflow",
      "inputs": [
        {
          "name": "x",
          "type": "uint256",
          "internalType": "uint256"
        },
        {
          "name": "y",
          "type": "uint256",
          "internalType": "uint256"
        },
        {
          "name": "denominator",
          "type": "uint256",
          "internalType": "uint256"
        }
      ]
    },
    {
      "type": "error",
      "name": "NegativeFixedDecimalConversion",
      "inputs": [
        {
          "name": "signedCoefficient",
          "type": "int256",
          "internalType": "int256"
        },
        {
          "name": "exponent",
          "type": "int256",
          "internalType": "int256"
        }
      ]
    },
    {
      "type": "error",
      "name": "PowNegativeBase",
      "inputs": [
        {
          "name": "signedCoefficient",
          "type": "int256",
          "internalType": "int256"
        },
        {
          "name": "exponent",
          "type": "int256",
          "internalType": "int256"
        }
      ]
    },
    {
      "type": "error",
      "name": "ScientificMinNotLessThanMax",
      "inputs": [
        {
          "name": "scientificMin",
          "type": "bytes32",
          "internalType": "Float"
        },
        {
          "name": "scientificMax",
          "type": "bytes32",
          "internalType": "Float"
        }
      ]
    },
    {
      "type": "error",
      "name": "UnformatableExponent",
      "inputs": [
        {
          "name": "exponent",
          "type": "int256",
          "internalType": "int256"
        }
      ]
    },
    {
      "type": "error",
      "name": "WithTargetExponentOverflow",
      "inputs": [
        {
          "name": "signedCoefficient",
          "type": "int256",
          "internalType": "int256"
        },
        {
          "name": "exponent",
          "type": "int256",
          "internalType": "int256"
        },
        {
          "name": "targetExponent",
          "type": "int256",
          "internalType": "int256"
        }
      ]
    },
    {
      "type": "error",
      "name": "ZeroNegativePower",
      "inputs": [
        {
          "name": "b",
          "type": "bytes32",
          "internalType": "Float"
        }
      ]
    },
    {
      "type": "error",
      "name": "ZeroStringStartPointer",
      "inputs": []
    }
  ],
  "bytecode": {
    "object": "0x6080604052348015600e575f80fd5b5060156019565b60b8565b73c51a14251b0dcf0ae24a96b7153991378938f5f53f7f2573004ac3a9ee7fc8d73654d76386f1b6b99e34cdf86a689c4691e47143420f811460b557604051630912d0ff60e31b815273c51a14251b0dcf0ae24a96b7153991378938f5f560048201527f2573004ac3a9ee7fc8d73654d76386f1b6b99e34cdf86a689c4691e47143420f60248201526044810182905260640160405180910390fd5b50565b614ebc806100c55f395ff3fe608060405234801561000f575f80fd5b50600436106102b7575f3560e01c80638dc2980711610171578063cde72ef3116100d2578063dd64691711610088578063e5526ecd1161006e578063e5526ecd1461065b578063e75f991f1461066e578063ffae15ba14610681575f80fd5b8063dd64691714610635578063e0db588814610648575f80fd5b8063d1de592a116100b8578063d1de592a146105e8578063d35273a7146105fb578063d3d6ffa814610622575f80fd5b8063cde72ef3146105af578063d102b4d3146105d5575f80fd5b8063a90d041a11610127578063bc1b392d1161010d578063bc1b392d14610538578063bc62d8d81461053e578063cb09682b14610589575f80fd5b8063a90d041a14610512578063ac344ead14610525575f80fd5b80639b4afd99116101575780639b4afd99146104b5578063a100a3d9146104d9578063a19684b7146104ec575f80fd5b80638dc298071461048f57806396ce1ec7146104a2575f80fd5b8063371493ce1161021b578063602c35fc116101d157806373bfb283116101b757806373bfb2831461045657806381a822721461046957806381f7e2f51461047c575f80fd5b8063602c35fc1461041d578063719cd99d14610443575f80fd5b806341aa00801161020157806341aa0080146103e45780635b23771d146103f75780635ca0e7a41461040a575f80fd5b8063371493ce146103b15780633b3bd868146103d1575f80fd5b806325388350116102705780633004fa41116102565780633004fa4114610368578063302974001461037b5780633447c0301461038e575f80fd5b8063253883501461034257806328fa1f0114610355575f80fd5b80630b6429bc116102a05780630b6429bc146102f4578063146e82ad1461031c5780631ee62f111461032f575f80fd5b806304327dc5146102bb578063078b665b146102e1575b5f80fd5b6102ce6102c9366004614846565b6106a7565b6040519081526020015b60405180910390f35b6102ce6102ef36600461485d565b6106b7565b61030761030236600461488d565b6106c9565b604080519283529015156020830152016102d8565b6102ce61032a366004614846565b6106e1565b6102ce61033d366004614846565b610700565b6102ce610350366004614846565b61071f565b6102ce610363366004614846565b61073e565b6102ce61037636600461485d565b610748565b6102ce61038936600461485d565b610768565b6103a161039c36600461485d565b610773565b60405190151581526020016102d8565b6103c46103bf3660046148b7565b61077e565b6040516102d891906148e9565b6102ce6103df36600461488d565b61078a565b6102ce6103f236600461485d565b610795565b6102ce61040536600461488d565b6107a0565b6102ce610418366004614846565b6107ab565b7f80000000ffffffffffffffffffffffffffffffffffffffffffffffffffffffff6102ce565b6102ce610451366004614846565b6107b5565b6103a161046436600461485d565b6107bf565b6102ce610477366004614846565b6107ca565b6103a161048a36600461485d565b6107d4565b6103a161049d36600461485d565b6107df565b6102ce6104b036600461485d565b6107ea565b6102ce7c090000000000000000000000000000000000000000000000000000000181565b6103c46104e7366004614846565b6107f5565b7f80000000000000000000000000000000000000000000000000000000000000016102ce565b6102ce61052036600461485d565b61083f565b6102ce610533366004614846565b61084a565b5f6102ce565b61055161054c366004614969565b610854565b604080517fffffffff0000000000000000000000000000000000000000000000000000000090931683526020830191909152016102d8565b7f7fffffff7fffffffffffffffffffffffffffffffffffffffffffffffffffffff6102ce565b7f7fffffff800000000000000000000000000000000000000000000000000000006102ce565b6103a16105e336600461485d565b61086d565b6102ce6105f636600461485d565b610878565b6102ce7ffffffffc0000000000000000000000000000000000000000000000000000000181565b6102ce610630366004614846565b610883565b6103a1610643366004614846565b61088d565b6102ce610656366004614846565b6108b3565b6103c4610669366004614a32565b6108bd565b61030761067c36600461488d565b610946565b7fffffffbe19cfc6ef4f44cf88f14500d013df534fcaad48fca1d5ca47bea26fcc6102ce565b5f6106b182610952565b92915050565b5f6106c28383610994565b9392505050565b5f806106d584846109b0565b915091505b9250929050565b5f6106b18273c51a14251b0dcf0ae24a96b7153991378938f5f56109f1565b5f6106b18273c51a14251b0dcf0ae24a96b7153991378938f5f5610a1d565b5f6106b18273c51a14251b0dcf0ae24a96b7153991378938f5f5610a6a565b5f6106b182610a9d565b5f6106c2838373c51a14251b0dcf0ae24a96b7153991378938f5f5610ade565b5f6106c28383610d38565b5f6106c28383610d9a565b60606106c28383610de8565b5f6106c28383610e7b565b5f6106c28383610e96565b5f6106c28383610edb565b5f6106b182610f0e565b5f6106b182610fc4565b5f6106c28383611070565b5f6106b1826110c0565b5f6106c28383611105565b5f6106c28383611155565b5f6106c283836111a4565b60606106b1827ffffffffc000000000000000000000000000000000000000000000000000000017c09000000000000000000000000000000000000000000000000000000016108bd565b5f6106c283836111e9565b5f6106b1826111f4565b5f805f80610861856112a4565b90969095509350505050565b5f6106c28383611392565b5f6106c283836113e1565b5f6106b182611426565b5f7bffffffffffffffffffffffffffffffffffffffffffffffffffffffff8216156106b1565b5f6106b182611458565b60606108c98383611392565b61090e576040517f3be5bf9400000000000000000000000000000000000000000000000000000000815260048101849052602481018390526044015b60405180910390fd5b5f610918856110c0565b905061093d856109288387611392565b8061093857506109388386611155565b610de8565b95945050505050565b5f806106d58484611499565b5f7bffffffffffffffffffffffffffffffffffffffffffffffffffffffff8216601b0b60e083901d61098482826114d9565b90925090505f61093d8383611527565b5f61099f8383611155565b6109a957816106c2565b5090919050565b5f807bffffffffffffffffffffffffffffffffffffffffffffffffffffffff8416601b0b60e085901d6109e482828761158d565b9350935050509250929050565b5f6106c2837fffffffff0000000000000000000000000000000000000000000000000000000584610ade565b5f7bffffffffffffffffffffffffffffffffffffffffffffffffffffffff8316601b0b60e084901d610a50848383611797565b90925090505f610a608383611527565b9695505050505050565b5f7bffffffffffffffffffffffffffffffffffffffffffffffffffffffff8316601b0b60e084901d610a50848383611908565b5f7bffffffffffffffffffffffffffffffffffffffffffffffffffffffff8216601b0b60e083901d82610ad08383611c3d565b9150505f610a608284611527565b5f7bffffffffffffffffffffffffffffffffffffffffffffffffffffffff848116601b0b9060e086901d908516610b1b5750600191506106c29050565b5f8213610bb457815f03610b7857610b33855f611392565b15610b6d576040517f8be8297200000000000000000000000000000000000000000000000000000000815260048101869052602401610905565b505f91506106c29050565b6040517fcceba0f10000000000000000000000000000000000000000000000000000000081526004810183905260248101829052604401610905565b610bbf856001610d9a565b8015610bd05750610bd0865f611155565b15610bdf5785925050506106c2565b610be9855f611392565b15610c1257610c09610bfa87610952565b610c0387611426565b86610ade565b925050506106c2565b7bffffffffffffffffffffffffffffffffffffffffffffffffffffffff8516601b0b60e086901d5f80610c458484611c3d565b915091505f610c5583855f611ca5565b905060015f8080610c8c8f7bffffffffffffffffffffffffffffffffffffffffffffffffffffffff8116601b0b9160e09190911d90565b915091505b60018510610cd35784600116600103610cb657610cb084848484611dbc565b90945092505b600185901c9450610cc982828484611dbc565b9092509050610c91565b5f80610ce08f8e8e611908565b91509150610cf082828a8d611dbc565b9092509050610d008f8383611797565b9092509050610d1182828888611dbc565b90925090505f610d218383611527565b9e5050505050505050505050505050509392505050565b5f7bffffffffffffffffffffffffffffffffffffffffffffffffffffffff838116601b90810b9160e086811d9291861690910b9085901d8480610d7d86868686611edb565b915091505f610d8c8383611527565b9a9950505050505050505050565b5f7bffffffffffffffffffffffffffffffffffffffffffffffffffffffff838116601b90810b9160e086811d9291861690910b9085901d610ddd848484846124ff565b979650505050505050565b60607bffffffffffffffffffffffffffffffffffffffffffffffffffffffff8316601b0b60e084901d5f829003610e58576040518060400160405280600181526020017f3000000000000000000000000000000000000000000000000000000000000000815250925050506106b1565b8315610e7157610e688282612516565b925050506106b1565b61093d8282612853565b5f805f610e88858561307d565b9150915061093d82826130df565b5f7bffffffffffffffffffffffffffffffffffffffffffffffffffffffff838116601b90810b9160e086811d9291861690910b9085901d8480610d7d86868686613131565b5f7bffffffffffffffffffffffffffffffffffffffffffffffffffffffff8316601b0b60e084901d61093d82828661315b565b5f7bffffffffffffffffffffffffffffffffffffffffffffffffffffffff8216601b0b60e083901d828112610f4557509192915050565b5f80610f518484611c3d565b915091505f84128015610f6357508015155b15610fb957610fb482847f161bcca7119915b50764b4abe86529797775a5f17195100000000000000000007fffffffffffffffffffffffffffffffffffffffffffffffffffffffffffffffb4613131565b935091505b5f610ddd8385611527565b5f7bffffffffffffffffffffffffffffffffffffffffffffffffffffffff8216601b0b60e083901d828112610ffb57509192915050565b5f806110078484611c3d565b91509150805f0361101c575093949350505050565b5f811315610fb957610fb482847f161bcca7119915b50764b4abe86529797775a5f17195100000000000000000007fffffffffffffffffffffffffffffffffffffffffffffffffffffffffffffffb46131b7565b5f7bffffffffffffffffffffffffffffffffffffffffffffffffffffffff838116601b90810b9160e086811d9291861690910b9085901d6110b3848484846132e7565b1315979650505050505050565b5f7bffffffffffffffffffffffffffffffffffffffffffffffffffffffff8216601b0b60e083901d828212156110fa5761098482826133bb565b5f61093d8383611527565b5f7bffffffffffffffffffffffffffffffffffffffffffffffffffffffff838116601b90810b9160e086811d9291861690910b9085901d611148848484846132e7565b1215979650505050505050565b5f7bffffffffffffffffffffffffffffffffffffffffffffffffffffffff838116601b90810b9160e086811d9291861690910b9085901d611198848484846132e7565b12979650505050505050565b5f7bffffffffffffffffffffffffffffffffffffffffffffffffffffffff838116601b90810b9160e086811d9291861690910b9085901d8480610d7d86868686611dbc565b5f61099f8383611392565b5f7bffffffffffffffffffffffffffffffffffffffffffffffffffffffff8216601b0b60e083901d81830361122c57505f9392505050565b7fffffffffffffffffffffffffffffffffffffffffffffffffffffffff8000000081131561129257600a8202601b81900b81146112695750611292565b91507fffffffffffffffffffffffffffffffffffffffffffffffffffffffffffffffff0161122c565b61129c82826130df565b949350505050565b80515f908190602084810191850101828080806112c1868661345e565b929650909450925090507fffffffff0000000000000000000000000000000000000000000000000000000084165f0361138357848303611353575f8061130784846138fd565b915091508061134257507f32b8b8be000000000000000000000000000000000000000000000000000000009a5f9a5098505050505050505050565b505f9a909950975050505050505050565b507fad384e8700000000000000000000000000000000000000000000000000000000985f98509650505050505050565b5091975f975095505050505050565b5f7bffffffffffffffffffffffffffffffffffffffffffffffffffffffff838116601b90810b9160e086811d9291861690910b9085901d6113d5848484846132e7565b13979650505050505050565b5f7bffffffffffffffffffffffffffffffffffffffffffffffffffffffff838116601b90810b9160e086811d9291861690910b9085901d8480610d7d868686866131b7565b5f7bffffffffffffffffffffffffffffffffffffffffffffffffffffffff8216601b0b60e083901d61098482826133bb565b5f7bffffffffffffffffffffffffffffffffffffffffffffffffffffffff8216601b0b60e083901d8261148b8383611c3d565b5090505f610a608284611527565b5f805f805f6114a88787613a03565b9250925092505f806114ba85856138fd565b91509150818380156114c95750815b9650965050505050509250929050565b5f806106d57f161bcca7119915b50764b4abe86529797775a5f17195100000000000000000007fffffffffffffffffffffffffffffffffffffffffffffffffffffffffffffffb48686611edb565b5f805f61153485856138fd565b9150915080158015611544575081155b15611585576040517f8eba4d070000000000000000000000000000000000000000000000000000000081526004810186905260248101859052604401610905565b509392505050565b5f805f8512156115d3576040517f4a7d166b0000000000000000000000000000000000000000000000000000000081526004810186905260248101859052604401610905565b845f036115e557505f9050600161178f565b8460ff8416850185811215611630576040517fd556b1110000000000000000000000000000000000000000000000000000000081526004810188905260248101879052604401610905565b5f805f83121561169a577fffffffffffffffffffffffffffffffffffffffffffffffffffffffffffffffb3831215611671575f80955095505050505061178f565b825f03600a0a915081848161168857611688614a5b565b049550508402909114915061178f9050565b5f83131561178457604d8313156116f0576040517fc849483b000000000000000000000000000000000000000000000000000000008152600481018a90526024810189905260ff88166044820152606401610905565b82600a0a9150817fffffffffffffffffffffffffffffffffffffffffffffffffffffffffffffffff8161172557611725614a5b565b04841115611772576040517fc849483b000000000000000000000000000000000000000000000000000000008152600481018a90526024810189905260ff88166044820152606401610905565b509190910292506001915061178f9050565b509193506001925050505b935093915050565b5f805f8412156117d3576117ab84846133bb565b90945092506117bb858585611797565b90945092506117ca84846114d9565b9150915061178f565b5f806117df8686611c3d565b9092509050845f80806117f28585613a5f565b9194509250905061270d61271061180a600182614ab5565b85146118215761181b8d8686613b4e565b90925090505b83156118ac575f611833866001614adb565b90505b80848583028161184857611848614a5b565b051461185f57600a84059350600a88059750611836565b6118a061186c8588614b02565b896118778785614b02565b8f87877ffffffffffffffffffffffffffffffffffffffffffffffffffffffffffffffffc613c07565b909d509b506118d39050565b819b507ffffffffffffffffffffffffffffffffffffffffffffffffffffffffffffffffc9a505b5050505050866118e484835f611ca5565b6118ef886001614adb565b6118f99190614adb565b94509450505050935093915050565b5f8083836119168282613ca4565b90965094505f861361199757855f0361195b576040517f561fc7b500000000000000000000000000000000000000000000000000000000815260040160405180910390fd5b6040517f5d3fd4db0000000000000000000000000000000000000000000000000000000081526004810183905260248101829052604401610905565b5050837f161bcca7119915b50764b4abe86529797775a5f1719510000000000000000000036119d5576119cb83604c614adb565b5f9150915061178f565b7f161bcca7119915b50764b4abe86529797775a5f171951000000000000000000084121580611a24577fffffffffffffffffffffffffffffffffffffffffffffffffffffffffffffffb5611a46565b7fffffffffffffffffffffffffffffffffffffffffffffffffffffffffffffffb45b5f0b8412611c01575f805f805f85611a5f57604b611a62565b604c5b611a6c908a614adb565b90505f8087611a99577d90e40fbeea1d3a4abc8955e946fe31cdcf66f634e1000000000000000000611aba565b7e05a8e89d75252446eb5d5d5b1cc5edf20a1a059e10ca0000000000000000005b7effffffffffffffffffffffffffffffffffffffffffffffffffffffffffffff169050808c81611aec57611aec614a5b565b05818102955090850193507ffffffffffffffffffffffffffffffffffffffffffffffffffffffffffffffc18019050611b258c82613cfa565b7d90e40fbeea1d3a4abc8955e946fe31cdcf66f634e10000000000000000000295508594508a8414611bb1576123278114611b8c57611b678c82600101613cfa565b7d90e40fbeea1d3a4abc8955e946fe31cdcf66f634e100000000000000000002611bae565b7f161bcca7119915b50764b4abe86529797775a5f17195100000000000000000005b94505b50611be1838b848c89897fffffffffffffffffffffffffffffffffffffffffffffffffffffffffffffffb4613c07565b909a509850611bf28a8a835f6131b7565b9750975050505050505061178f565b611c0b85856114d9565b9095509350611c1b868686611908565b9095509350611c2a85856133bb565b925092505061178f565b50935093915050565b5f805f8312611c5057508290505f6106da565b7fffffffffffffffffffffffffffffffffffffffffffffffffffffffffffffffb4831215611c8257505f9050826106da565b5f839003600a0a808581611c9857611c98614a5b565b0794859003959350505050565b5f818303611cb45750826106c2565b82821315611cf757828203604c811380611cce57505f8113155b15611cdc575f9150506106c2565b80600a0a8581611cee57611cee614a5b565b059150506106c2565b818303604c811380611d0957505f8113155b15611d51576040517f1d5d6d10000000000000000000000000000000000000000000000000000000008152600481018690526024810185905260448101849052606401610905565b600a81900a85810286828281611d6957611d69614a5b565b0514611db2576040517f1d5d6d10000000000000000000000000000000000000000000000000000000008152600481018890526024810187905260448101869052606401610905565b92506106c2915050565b5f8085158415178015611dd4575f92505f9150611ed1565b611dde8487614adb565b91505f611dea88613d81565b90505f611df687613d81565b90505f611e038383613de7565b5090505f6f0785ee10d5da46d900f436a000000000821115611e38576f0785ee10d5da46d900f436a000000000820491506025015b670de0b6b3a7640000821115611e5957670de0b6b3a7640000820491506012015b633b9aca00821115611e7257633b9aca00820491506009015b612710821115611e8757612710820491506004015b8115611e9b57600a82049150600101611e87565b611ea58187614adb565b9550611ec78b8a611ec18787611ebc87600a614c6b565b613e22565b89613f07565b9097509550505050505b5094509492505050565b5f80835f03611f20576040517f7a97930f0000000000000000000000000000000000000000000000000000000081526004810187905260248101869052604401610905565b855f03611f3157505f9050806124f6565b5f805f80611f3f8a8a61400e565b919b5099509150611f50888861400e565b919950975090505f611f618b613d81565b90505f611f6d8a613d81565b90507f161bcca7119915b50764b4abe86529797775a5f1719510000000000000000000604c8183101561238a578415611fcb57507f0235fadd81c2822bb3f07877973d50f28bf22a31be8ee80000000000000000009050604b612349565b6f4b3b4ca85a86c47a098a2240000000008310156120f757678ac7230489e8000083101561205b576402540be40083101561202957620186a08310156120195750620186a0905060056122d2565b506402540be4009050600a6122d2565b655af3107a40008310156120485750655af3107a40009050600e6122d2565b50678ac7230489e80000905060136122d2565b6b204fce5e3e250261100000008310156120ad5769152d02c7e14af6800000831015612096575069152d02c7e14af6800000905060176122d2565b506b204fce5e3e250261100000009050601c6122d2565b6d314dc6448d9338c15b0a000000008310156120dc57506d314dc6448d9338c15b0a00000000905060216122d2565b506f4b3b4ca85a86c47a098a224000000000905060266122d2565b780197d4df19d605767337e9f14d3eec8920e4000000000000008310156121ef5773af298d050e4395d69670b12b7f4100000000000083101561218a577172cb5bd86321e38cb6ce6682e8000000000083101561216b57507172cb5bd86321e38cb6ce6682e800000000009050602b6122d2565b5073af298d050e4395d69670b12b7f41000000000000905060306122d2565b76010b46c6cdd6e3e0828f4db456ff0c8ea00000000000008310156121cb575076010b46c6cdd6e3e0828f4db456ff0c8ea0000000000000905060356122d2565b50780197d4df19d605767337e9f14d3eec8920e4000000000000009050603a6122d2565b7c03b58e88c75313ec9d329eaaa18fb92f75215b17100000000000000000831015612285577a026e4d30eccc3215dd8f3157d27e23acbdcfe6800000000000000083101561225d57507a026e4d30eccc3215dd8f3157d27e23acbdcfe680000000000000009050603f6122d2565b507c03b58e88c75313ec9d329eaaa18fb92f75215b17100000000000000000905060446122d2565b7e05a8e89d75252446eb5d5d5b1cc5edf20a1a059e10ca0000000000000000008310156122d257507e05a8e89d75252446eb5d5d5b1cc5edf20a1a059e10ca000000000000000000905060495b81831161230657600a820491507fffffffffffffffffffffffffffffffffffffffffffffffffffffffffffffffff016122d2565b815f03612349576040517f05e51ecb000000000000000000000000000000000000000000000000000000008152600481018d9052602481018c9052604401610905565b8561238a576040517f05e51ecb000000000000000000000000000000000000000000000000000000008152600481018f9052602481018e9052604401610905565b807f8000000000000000000000000000000000000000000000000000000000000000018d126123bd57808d039c50612430565b7f80000000000000000000000000000000000000000000000000000000000000009c90038c015f81131561243057807f7fffffffffffffffffffffffffffffffffffffffffffffffffffffffffffffff038b1361241d57998a0199612430565b5f809950995050505050505050506124f6565b5f808e12801561243f57505f8c135b1561247c577f80000000000000000000000000000000000000000000000000000000000000008e01808d13612474575f612478565b808d035b9150505b8b818f010397506124998f8e612493888789613e22565b8b613f07565b90995097505f8113156124e357604c8113156124c3575f809a509a505050505050505050506124f6565b80600a0a89816124d5576124d5614a5b565b059850885f036124e3575f97505b509698509496506124f695505050505050565b94509492505050565b5f61250c858585856132e7565b1495945050505050565b6060816125238482613ca4565b90945092505f806125547f161bcca7119915b50764b4abe86529797775a5f171951000000000000000000087614c76565b1561258457507f161bcca7119915b50764b4abe86529797775a5f17195100000000000000000009050604c6125ab565b507f0235fadd81c2822bb3f07877973d50f28bf22a31be8ee80000000000000000009050604b5b5f6125b68388614c76565b90505f6125c38489614cdd565b90505f808312156125dd575060016125da83614cf0565b92505b5f8212156125f4575060016125f182614cf0565b91505b60408051602081019091525f815282156126fd575f80612615600a89614d20565b90505b6126228186614c76565b5f0361264757612633600a82614d20565b90508161263f81614d33565b925050612618565b60408051602081019091525f8082525b838110156126a857816040516020016126709190614d81565b604080517fffffffffffffffffffffffffffffffffffffffffffffffffffffffffffffffe08184030181529190529150600101612657565b505b6126b5600a87614cdd565b5f036126cd576126c6600a87614c76565b95506126aa565b806126d7876142af565b6040516020016126e8929190614db9565b60405160208183030381529060405293505050505b5f612707856142af565b90505f612714878c614adb565b9050637fffffff81138061274757507fffffffffffffffffffffffffffffffffffffffffffffffffffffffff8000000081125b15612781576040517fe44c72b0000000000000000000000000000000000000000000000000000000008152600481018a9052602401610905565b5f81156127b557612791826142af565b6040516020016127a19190614df3565b6040516020818303038152906040526127c5565b60405180602001604052805f8152505b90505f856127e15760405180602001604052805f815250612818565b6040518060400160405280600181526020017f2d000000000000000000000000000000000000000000000000000000000000008152505b9050808486846040516020016128319493929190614e24565b6040516020818303038152906040529b50505050505050505050505092915050565b60606103e882138061286e575061286b6103e8614cf0565b82125b156128a8576040517fe44c72b000000000000000000000000000000000000000000000000000000000815260048101839052602401610905565b5f8084129081156128c3576128bc85614cf0565b90506128c6565b50835b5f84131561298957836044811061290c576040517fe44c72b000000000000000000000000000000000000000000000000000000000815260048101869052602401610905565b7b7fffffffffffffffffffffffffffffffffffffffffffffffffffffff5f5b828110156129485761293e600a83614d20565b915060010161292b565b5080831115612986576040517fe44c72b000000000000000000000000000000000000000000000000000000000815260048101879052602401610905565b50505b5f6129938261433b565b80519091505f5b8181108015612a16575082816129b1600185614e44565b6129bb9190614e44565b815181106129cb576129cb614e57565b6020910101517fff00000000000000000000000000000000000000000000000000000000000000167f3000000000000000000000000000000000000000000000000000000000000000145b15612a2d5780612a2581614d33565b91505061299a565b5f612a388284614e44565b90505f612a45838a614adb565b90505f87612a615760405180602001604052805f815250612a98565b6040518060400160405280600181526020017f2d000000000000000000000000000000000000000000000000000000000000008152505b90505f8212612c1257815f612aad8286614e84565b67ffffffffffffffff811115612ac557612ac561493c565b6040519080825280601f01601f191660200182016040528015612aef576020820181803683370190505b5090505f5b85811015612b6157888181518110612b0e57612b0e614e57565b602001015160f81c60f81b828281518110612b2b57612b2b614e57565b60200101907effffffffffffffffffffffffffffffffffffffffffffffffffffffffffffff191690815f1a905350600101612af4565b505f5b82811015612bde577f300000000000000000000000000000000000000000000000000000000000000082612b988389614e84565b81518110612ba857612ba8614e57565b60200101907effffffffffffffffffffffffffffffffffffffffffffffffffffffffffffff191690815f1a905350600101612b64565b508281604051602001612bf2929190614e97565b6040516020818303038152906040529a50505050505050505050506106b1565b5f612c1c83614cf0565b905080841115612e33575f612c318286614e44565b90505f612c3f866001614e84565b67ffffffffffffffff811115612c5757612c5761493c565b6040519080825280601f01601f191660200182016040528015612c81576020820181803683370190505b5090505f5b82811015612cf357898181518110612ca057612ca0614e57565b602001015160f81c60f81b828281518110612cbd57612cbd614e57565b60200101907effffffffffffffffffffffffffffffffffffffffffffffffffffffffffffff191690815f1a905350600101612c86565b507f2e00000000000000000000000000000000000000000000000000000000000000818381518110612d2757612d27614e57565b60200101907effffffffffffffffffffffffffffffffffffffffffffffffffffffffffffff191690815f1a9053505f5b83811015612dfe5789612d6a8285614e84565b81518110612d7a57612d7a614e57565b01602001517fff00000000000000000000000000000000000000000000000000000000000000168282612dae866001614e84565b612db89190614e84565b81518110612dc857612dc8614e57565b60200101907effffffffffffffffffffffffffffffffffffffffffffffffffffffffffffff191690815f1a905350600101612d57565b508381604051602001612e12929190614e97565b6040516020818303038152906040529b5050505050505050505050506106b1565b5f612e3e8583614e44565b90505f85612e4d836002614e84565b612e579190614e84565b67ffffffffffffffff811115612e6f57612e6f61493c565b6040519080825280601f01601f191660200182016040528015612e99576020820181803683370190505b5090507f3000000000000000000000000000000000000000000000000000000000000000815f81518110612ecf57612ecf614e57565b60200101907effffffffffffffffffffffffffffffffffffffffffffffffffffffffffffff191690815f1a9053507f2e0000000000000000000000000000000000000000000000000000000000000081600181518110612f3157612f31614e57565b60200101907effffffffffffffffffffffffffffffffffffffffffffffffffffffffffffff191690815f1a9053505f5b82811015612fdc577f300000000000000000000000000000000000000000000000000000000000000082612f96836002614e84565b81518110612fa657612fa6614e57565b60200101907effffffffffffffffffffffffffffffffffffffffffffffffffffffffffffff191690815f1a905350600101612f61565b505f5b86811015612dfe57898181518110612ff957612ff9614e57565b01602001517fff0000000000000000000000000000000000000000000000000000000000000016828261302d866002614e84565b6130379190614e84565b8151811061304757613047614e57565b60200101907effffffffffffffffffffffffffffffffffffffffffffffffffffffffffffff191690815f1a905350600101612fdf565b5f805f805f61308c8787613a03565b925092509250806130d3576040517fc47179660000000000000000000000000000000000000000000000000000000081526004810184905260248101839052604401610905565b50909590945092505050565b5f805f6130ec85856138fd565b9150915080611585576040517f22c9f7bb0000000000000000000000000000000000000000000000000000000081526004810186905260248101859052604401610905565b5f8061313d84846133bb565b909450925061314e868686866131b7565b9150915094509492505050565b5f805f61316986868661158d565b91509150806131ae576040517f05e476780000000000000000000000000000000000000000000000000000000081526004810187905260248101869052604401610905565b50949350505050565b5f80851584151780156131e357865f036131d757848492509250506124f6565b868692509250506124f6565b6131ed8787613ca4565b90975095506131fc8585613ca4565b909550935085841315613210579395929492935b838603604c8111156132295787879350935050506124f6565b80600a0a868161323b5761323b614a5b565b0595505086850180881860ff90811c151589881890911c151680156132d657877f7fffffffffffffffffffffffffffffffffffffffffffffffffffffffffffffff036132bd576040517fd556b111000000000000000000000000000000000000000000000000000000008152600481018a905260248101899052604401610905565b600a9687900596909805860197600197909701966132da565b8198505b5096979596505050505050565b5f808515841517818712828612181785841417801561330c57868592509250506124f6565b505f85841315613320575092949193919260015b8386035f8112604c8213178015613353578215613345575f89945094505050506124f6565b885f945094505050506124f6565b600a82900a8981028a82828161336b5761336b614a5b565b0514613397578415613387575f8b9650965050505050506124f6565b8a5f9650965050505050506124f6565b84156133ac5788965094506124f69350505050565b95508794506124f69350505050565b5f807f80000000000000000000000000000000000000000000000000000000000000008403613454577f7fffffffffffffffffffffffffffffffffffffffffffffffffffffffffffffff8303613447576040517fd556b1110000000000000000000000000000000000000000000000000000000081526004810185905260248101849052604401610905565b600a840593508260010192505b50505f9190910391565b5f8281806134738386652000000000006143f7565b9250858314158361348d81886703ff0000000000006143f7565b94508085036134c757507f34bd20690000000000000000000000000000000000000000000000000000000094505f92508291506138f49050565b5f806134d38a88614420565b90925090507fffffffff00000000000000000000000000000000000000000000000000000000821615613511575095505f93508392506138f4915050565b86519095506540000000000060015f9290921a9190911b1615158887101691505080156137a057506001909301925f8461355481896703ff0000000000006143f7565b955080860361358f57507f7bfa48af0000000000000000000000000000000000000000000000000000000095505f93508392506138f4915050565b855b7fffffffffffffffffffffffffffffffffffffffffffffffffffffffffffffffff81018051908a1160015f9290921a9190911b6601000000000000161515166001036135fe577fffffffffffffffffffffffffffffffffffffffffffffffffffffffffffffffff01613591565b818114613655575f806136118484614420565b90925090507fffffffff00000000000000000000000000000000000000000000000000000000821615613651575097505f95508594506138f49350505050565b9350505b5f83121561369057507f7bfa48af0000000000000000000000000000000000000000000000000000000096505f94508493506138f492505050565b831561369c57825f0392505b80820394505f8513156136dc57507f013b2aaa0000000000000000000000000000000000000000000000000000000096505f94508493506138f492505050565b855f036136eb5782955061379d565b5f859003604381111561372c57507f32b8b8be0000000000000000000000000000000000000000000000000000000097505f95508594506138f49350505050565b600a0a8681025f8883838161374357613743614a5b565b0514159050601b82900b82141581806137595750805b1561379557507f32b8b8be000000000000000000000000000000000000000000000000000000009a505f98508897506138f49650505050505050565b505084019650505b50505b84516c2000000020000000000000000060015f9290921a9190911b1615158786101680156138e557600190950194856137e0818a652000000000006143f7565b9650866137f6818b6703ff0000000000006143f7565b975080880361383357507f013b2aaa0000000000000000000000000000000000000000000000000000000097505f95508594506138f49350505050565b505f80613840838a614420565b90925090507fffffffff00000000000000000000000000000000000000000000000000000000821615613880575097505f95508594506138f49350505050565b9250508482015f8313801561389457508581125b806138a857505f831280156138a857508581135b156138e157507fd556b1110000000000000000000000000000000000000000000000000000000097505f95508594506138f49350505050565b9450505b845f036138f0575f93505b5050505b92959194509250565b5f601b83900b8314838382613961577d90e40fbeea1d3a4abc8955e946fe31cdcf66f634e100000000000000000086051561394157620186a0860595506005850194505b8586601b0b1461395c57600a86059550846001019450613941565b613977565b855f0361397757505f9250600191506106da9050565b848560030b146139d3575f85121561399757505f92508291506106da9050565b6040517fd556b1110000000000000000000000000000000000000000000000000000000081526004810183905260248101829052604401610905565b50507bffffffffffffffffffffffffffffffffffffffffffffffffffffffff841660e084901b1791509250929050565b5f808060ff841681037f7fffffffffffffffffffffffffffffffffffffffffffffffffffffffffffffff861115613a4e57600a860460018201600a88065f1493509350935050613a58565b8593509150600190505b9250925092565b5f805f837ffffffffffffffffffffffffffffffffffffffffffffffffffffffffffffffffc03613a9757508391505f90506001613a58565b7ffffffffffffffffffffffffffffffffffffffffffffffffffffffffffffffffc841215613b25577fffffffffffffffffffffffffffffffffffffffffffffffffffffffffffffffb0841215613af657505f9150508215156001613a58565b5f846004015f03600a0a90505f818781613b1257613b12614a5b565b0594505080840286141592509050613a58565b5f8412613b3a57505f91508190506001613a58565b50505060048101600a0a82025f6001613a58565b5f80806064613b60600a612328614d20565b613b6d600a612328614d20565b613b78906002614ea5565b613b83906001614e84565b613b8d9190614e84565b613b979190614e84565b9050613bdb565b5f8052600280600a8504028301601e833c5f80516107d0840193505f80526001600a8606600a6064880402018501601f853c5f5101949350505050565b613be6858288613b9e565b92508315611c3457613bfc600186018288613b9e565b915050935093915050565b5f80888803613c1a575083905081613c98565b5f805f80613c2a8c8b8f8d613131565b915091505f80613c3c8a8a8d8c613131565b91509150613c4c84848484611dbc565b8096508197505050505050505f80613c668b8b8f8d613131565b915091505f80613c7886868686611edb565b915091505f80613c8a84848f8e6131b7565b909a50985050505050505050505b97509795505050505050565b5f805f805f613cb3878761400e565b925092509250806130d3576040517f05e51ecb0000000000000000000000000000000000000000000000000000000081526004810188905260248101879052604401610905565b5f80613d09600a612328614d20565b613d14906002614ea5565b613d1f906001614e84565b90505f613d2f600a612328614d20565b90506002600a8504026001015f8052600281601e883c505f51617fff81169350618000811615613d5e57918101915b505f80526001600a8506600a6064870402018301601f873c50505f510192915050565b5f80821215613dde577f80000000000000000000000000000000000000000000000000000000000000008203613dd857507f8000000000000000000000000000000000000000000000000000000000000000919050565b505f0390565b5090565b919050565b5f807fffffffffffffffffffffffffffffffffffffffffffffffffffffffffffffffff83850993909202808410938190039390930393915050565b5f805f613e2f8686613de7565b91509150815f03613e5357838181613e4957613e49614a5b565b04925050506106c2565b838210613e9d576040517f6c59da12000000000000000000000000000000000000000000000000000000008152600481018790526024810186905260448101859052606401610905565b5f84868809600186198101871696879004966002600389028118808a02820302808a02820302808a02820302808a02820302808a02820302808a02909103025f82900382900490920185841190960395909502919093039390930492909217029150509392505050565b5f805f8587181215613fd1577f7fffffffffffffffffffffffffffffffffffffffffffffffffffffffffffffff841115613fbe57613f667f7fffffffffffffffffffffffffffffffffffffffffffffffffffffffffffffff6001614e84565b8403613f9657507f80000000000000000000000000000000000000000000000000000000000000009050816124f6565b613fa1600a85614d20565b613faa90614cf0565b613fb5846001614adb565b915091506124f6565b613fc784614cf0565b83915091506124f6565b7f7fffffffffffffffffffffffffffffffffffffffffffffffffffffffffffffff84111561400457613faa600a85614d20565b50829050816124f6565b5f805f845f0361402657505f91508190506001613a58565b7f0235fadd81c2822bb3f07877973d50f28bf22a31be8ee800000000000000000085055f0361423a576f4b3b4ca85a86c47a098a224000000000850515801561408f57507f80000000000000000000000000000000000000000000000000000000000000268412155b156140b0576f4b3b4ca85a86c47a098a224000000000850294506026840393505b7728c87cb5c89a2571ebfdcb54864ada834a0000000000000085051580156140f857507f80000000000000000000000000000000000000000000000000000000000000138412155b1561411157678ac7230489e80000850294506013840393505b7b097edd871cfda3a5697758bf0e3cbb5ac5741c640000000000000000850515801561415d57507f800000000000000000000000000000000000000000000000000000000000000a8412155b15614173576402540be40085029450600a840393505b7e3899162693736ac531a5a58f1fbb4b746504382ca7e400000000000000000085051580156141c257507f80000000000000000000000000000000000000000000000000000000000000028412155b156141d857606485029450600284039350614173565b7f0235fadd81c2822bb3f07877973d50f28bf22a31be8ee8000000000000000000850515801561422857507f80000000000000000000000000000000000000000000000000000000000000018412155b1561423a57600a850294506001840393505b600a8086029081058614801561427057507f80000000000000000000000000000000000000000000000000000000000000018512155b1561427f578095506001850394505b50939492935050507f0235fadd81c2822bb3f07877973d50f28bf22a31be8ee80000000000000000008305151590565b60605f82126142cc5760405180602001604052805f815250614303565b6040518060400160405280600181526020017f2d000000000000000000000000000000000000000000000000000000000000008152505b61431460ff84901d8085011861433b565b604051602001614325929190614e97565b6040516020818303038152906040529050919050565b60605f6143478361454a565b60010190505f8167ffffffffffffffff8111156143665761436661493c565b6040519080825280601f01601f191660200182016040528015614390576020820181803683370190505b5090508181016020015b7fffffffffffffffffffffffffffffffffffffffffffffffffffffffffffffffff017f3031323334353637383961626364656600000000000000000000000000000000600a86061a8153600a850494508461439a57509392505050565b5f5b5f82600186515f1a1b16118385101615614418576001840193506143f9565b509192915050565b81515f90819065200000000000600191831a9190911b1615158385101680850190828061444d848861462b565b90925090507fffffffff00000000000000000000000000000000000000000000000000000000821615614488575093505f92506106da915050565b825f036144eb577f7fffffffffffffffffffffffffffffffffffffffffffffffffffffffffffffff81116144bc575f6144de565b7f0fdc2635000000000000000000000000000000000000000000000000000000005b955093506106da92505050565b7f80000000000000000000000000000000000000000000000000000000000000008111614518575f61453a565b7f0fdc2635000000000000000000000000000000000000000000000000000000005b95505f0393505050509250929050565b5f807a184f03e93ff9f4daa797ed6e38ed64bf6a1f0100000000000000008310614592577a184f03e93ff9f4daa797ed6e38ed64bf6a1f010000000000000000830492506040015b6d04ee2d6d415b85acef810000000083106145be576d04ee2d6d415b85acef8100000000830492506020015b662386f26fc1000083106145dc57662386f26fc10000830492506010015b6305f5e10083106145f4576305f5e100830492506008015b612710831061460857612710830492506004015b6064831061461a576064830492506002015b600a83106106b15760010192915050565b5f8082841061465e57507f34bd20690000000000000000000000000000000000000000000000000000000090505f6106da565b835f03614697576040517fda6966d400000000000000000000000000000000000000000000000000000000815260040160405180910390fd5b60305f7fffffffffffffffffffffffffffffffffffffffffffffffffffffffffffffffff8501815b8782101580156146cf5750604d83105b1561471257815160018401937fffffffffffffffffffffffffffffffffffffffffffffffffffffffffffffffff90930192600a0a5f9190911a85900302016146bf565b8782106148385781515f1a849003600181111561475a57507f0fdc26350000000000000000000000000000000000000000000000000000000095505f94506106da9350505050565b600a84900a810282810183111561479d57507f0fdc26350000000000000000000000000000000000000000000000000000000096505f95506106da945050505050565b9190910190507fffffffffffffffffffffffffffffffffffffffffffffffffffffffffffffffff909101905b8782106148385781515f1a6030811461480d57507f0fdc26350000000000000000000000000000000000000000000000000000000095505f94506106da9350505050565b507fffffffffffffffffffffffffffffffffffffffffffffffffffffffffffffffff909101906147c9565b5f9890975095505050505050565b5f60208284031215614856575f80fd5b5035919050565b5f806040838503121561486e575f80fd5b50508035926020909101359150565b803560ff81168114613de2575f80fd5b5f806040838503121561489e575f80fd5b823591506148ae6020840161487d565b90509250929050565b5f80604083850312156148c8575f80fd5b82359150602083013580151581146148de575f80fd5b809150509250929050565b602081525f82518060208401528060208501604085015e5f6040828501015260407fffffffffffffffffffffffffffffffffffffffffffffffffffffffffffffffe0601f83011684010191505092915050565b7f4e487b71000000000000000000000000000000000000000000000000000000005f52604160045260245ffd5b5f60208284031215614979575f80fd5b813567ffffffffffffffff80821115614990575f80fd5b818401915084601f8301126149a3575f80fd5b8135818111156149b5576149b561493c565b604051601f82017fffffffffffffffffffffffffffffffffffffffffffffffffffffffffffffffe0908116603f011681019083821181831017156149fb576149fb61493c565b81604052828152876020848701011115614a13575f80fd5b826020860160208301375f928101602001929092525095945050505050565b5f805f60608486031215614a44575f80fd5b505081359360208301359350604090920135919050565b7f4e487b71000000000000000000000000000000000000000000000000000000005f52601260045260245ffd5b7f4e487b71000000000000000000000000000000000000000000000000000000005f52601160045260245ffd5b8181035f831280158383131683831282161715614ad457614ad4614a88565b5092915050565b8082018281125f831280158216821582161715614afa57614afa614a88565b505092915050565b8082025f82127f800000000000000000000000000000000000000000000000000000000000000084141615614b3957614b39614a88565b81810583148215176106b1576106b1614a88565b600181815b80851115614ba657817fffffffffffffffffffffffffffffffffffffffffffffffffffffffffffffffff04821115614b8c57614b8c614a88565b80851615614b9957918102915b93841c9390800290614b52565b509250929050565b5f82614bbc575060016106b1565b81614bc857505f6106b1565b8160018114614bde5760028114614be857614c04565b60019150506106b1565b60ff841115614bf957614bf9614a88565b50506001821b6106b1565b5060208310610133831016604e8410600b8410161715614c27575081810a6106b1565b614c318383614b4d565b807fffffffffffffffffffffffffffffffffffffffffffffffffffffffffffffffff04821115614c6357614c63614a88565b029392505050565b5f6106c28383614bae565b5f82614c8457614c84614a5b565b7fffffffffffffffffffffffffffffffffffffffffffffffffffffffffffffffff83147f800000000000000000000000000000000000000000000000000000000000000083141615614cd857614cd8614a88565b500590565b5f82614ceb57614ceb614a5b565b500790565b5f7f80000000000000000000000000000000000000000000000000000000000000008203613dd857613dd8614a88565b5f82614d2e57614d2e614a5b565b500490565b5f7fffffffffffffffffffffffffffffffffffffffffffffffffffffffffffffffff8203614d6357614d63614a88565b5060010190565b5f81518060208401855e5f93019283525090919050565b5f614d8c8284614d6a565b7f300000000000000000000000000000000000000000000000000000000000000081526001019392505050565b7f2e0000000000000000000000000000000000000000000000000000000000000081525f61129c614ded6001840186614d6a565b84614d6a565b7f650000000000000000000000000000000000000000000000000000000000000081525f6106c26001830184614d6a565b5f610a60614ded614e3e614e38858a614d6a565b88614d6a565b86614d6a565b818103818111156106b1576106b1614a88565b7f4e487b71000000000000000000000000000000000000000000000000000000005f52603260045260245ffd5b808201808211156106b1576106b1614a88565b5f61129c614ded8386614d6a565b80820281158282048414176106b1576106b1614a8856"
  }
}